{"abi":[{"type":"function","name":"ARBITRUM_COMPRESSION_PERCENT","inputs":[],"outputs":[{"name":"","type":"uint128","internalType":"uint128"}],"stateMutability":"view"},{"type":"function","name":"arbitrumPriceExt","inputs":[],"outputs":[{"name":"","type":"tuple","internalType":"struct ILayerZeroPriceFeed.ArbitrumPriceExt","components":[{"name":"gasPerL2Tx","type":"uint64","internalType":"uint64"},{"name":"gasPerL1CallDataByte","type":"uint32","internalType":"uint32"}]}],"stateMutability":"view"},{"type":"function","name":"endpoint","inputs":[],"outputs":[{"name":"","type":"address","internalType":"contract ILayerZeroEndpointV2"}],"stateMutability":"view"},{"type":"function","name":"estimateFeeByChain","inputs":[{"name":"_dstEid","type":"uint16","internalType":"uint16"},{"name":"_callDataSize","type":"uint256","internalType":"uint256"},{"name":"_gas","type":"uint256","internalType":"uint256"}],"outputs":[{"name":"fee","type":"uint256","internalType":"uint256"},{"name":"priceRatio","type":"uint128","internalType":"uint128"}],"stateMutability":"view"},{"type":"function","name":"estimateFeeByEid","inputs":[{"name":"_dstEid","type":"uint32","internalType":"uint32"},{"name":"_callDataSize","type":"uint256","internalType":"uint256"},{"name":"_gas","type":"uint256","internalType":"uint256"}],"outputs":[{"name":"","type":"uint256","internalType":"uint256"},{"name":"","type":"uint128","internalType":"uint128"},{"name":"","type":"uint128","internalType":"uint128"},{"name":"","type":"uint128","internalType":"uint128"}],"stateMutability":"view"},{"type":"function","name":"estimateFeeOnSend","inputs":[{"name":"_dstEid","type":"uint32","internalType":"uint32"},{"name":"_callDataSize","type":"uint256","internalType":"uint256"},{"name":"_gas","type":"uint256","internalType":"uint256"}],"outputs":[{"name":"","type":"uint256","internalType":"uint256"},{"name":"","type":"uint128","internalType":"uint128"},{"name":"","type":"uint128","internalType":"uint128"},{"name":"","type":"uint128","internalType":"uint128"}],"stateMutability":"payable"},{"type":"function","name":"getFee","inputs":[{"name":"","type":"uint32","internalType":"uint32"},{"name":"","type":"uint256","internalType":"uint256"},{"name":"","type":"uint256","internalType":"uint256"}],"outputs":[{"name":"","type":"uint256","internalType":"uint256"}],"stateMutability":"pure"},{"type":"function","name":"getPrice","inputs":[{"name":"_dstEid","type":"uint32","internalType":"uint32"}],"outputs":[{"name":"price","type":"tuple","internalType":"struct ILayerZeroPriceFeed.Price","components":[{"name":"priceRatio","type":"uint128","internalType":"uint128"},{"name":"gasPriceInUnit","type":"uint64","internalType":"uint64"},{"name":"gasPerByte","type":"uint32","internalType":"uint32"}]}],"stateMutability":"view"},{"type":"function","name":"getPrice","inputs":[{"name":"_dstEid","type":"uint16","internalType":"uint16"}],"outputs":[{"name":"price","type":"tuple","internalType":"struct ILayerZeroPriceFeed.Price","components":[{"name":"priceRatio","type":"uint128","internalType":"uint128"},{"name":"gasPriceInUnit","type":"uint64","internalType":"uint64"},{"name":"gasPerByte","type":"uint32","internalType":"uint32"}]}],"stateMutability":"view"},{"type":"function","name":"getPriceRatioDenominator","inputs":[],"outputs":[{"name":"","type":"uint128","internalType":"uint128"}],"stateMutability":"view"},{"type":"function","name":"initialize","inputs":[{"name":"_priceUpdater","type":"address","internalType":"address"}],"outputs":[],"stateMutability":"nonpayable"},{"type":"function","name":"nativeTokenPriceUSD","inputs":[],"outputs":[{"name":"","type":"uint128","internalType":"uint128"}],"stateMutability":"view"},{"type":"function","name":"owner","inputs":[],"outputs":[{"name":"","type":"address","internalType":"address"}],"stateMutability":"view"},{"type":"function","name":"priceUpdater","inputs":[{"name":"updater","type":"address","internalType":"address"}],"outputs":[{"name":"active","type":"bool","internalType":"bool"}],"stateMutability":"view"},{"type":"function","name":"renounceOwnership","inputs":[],"outputs":[],"stateMutability":"nonpayable"},{"type":"function","name":"setArbitrumCompressionPercent","inputs":[{"name":"_compressionPercent","type":"uint128","internalType":"uint128"}],"outputs":[],"stateMutability":"nonpayable"},{"type":"function","name":"setEndpoint","inputs":[{"name":"_endpoint","type":"address","internalType":"address"}],"outputs":[],"stateMutability":"nonpayable"},{"type":"function","name":"setNativeTokenPriceUSD","inputs":[{"name":"_nativeTokenPriceUSD","type":"uint128","internalType":"uint128"}],"outputs":[],"stateMutability":"nonpayable"},{"type":"function","name":"setPrice","inputs":[{"name":"_price","type":"tuple[]","internalType":"struct ILayerZeroPriceFeed.UpdatePrice[]","components":[{"name":"eid","type":"uint32","internalType":"uint32"},{"name":"price","type":"tuple","internalType":"struct ILayerZeroPriceFeed.Price","components":[{"name":"priceRatio","type":"uint128","internalType":"uint128"},{"name":"gasPriceInUnit","type":"uint64","internalType":"uint64"},{"name":"gasPerByte","type":"uint32","internalType":"uint32"}]}]}],"outputs":[],"stateMutability":"nonpayable"},{"type":"function","name":"setPriceForArbitrum","inputs":[{"name":"_update","type":"tuple","internalType":"struct ILayerZeroPriceFeed.UpdatePriceExt","components":[{"name":"eid","type":"uint32","internalType":"uint32"},{"name":"price","type":"tuple","internalType":"struct ILayerZeroPriceFeed.Price","components":[{"name":"priceRatio","type":"uint128","internalType":"uint128"},{"name":"gasPriceInUnit","type":"uint64","internalType":"uint64"},{"name":"gasPerByte","type":"uint32","internalType":"uint32"}]},{"name":"extend","type":"tuple","internalType":"struct ILayerZeroPriceFeed.ArbitrumPriceExt","components":[{"name":"gasPerL2Tx","type":"uint64","internalType":"uint64"},{"name":"gasPerL1CallDataByte","type":"uint32","internalType":"uint32"}]}]}],"outputs":[],"stateMutability":"nonpayable"},{"type":"function","name":"setPriceRatioDenominator","inputs":[{"name":"_denominator","type":"uint128","internalType":"uint128"}],"outputs":[],"stateMutability":"nonpayable"},{"type":"function","name":"setPriceUpdater","inputs":[{"name":"_addr","type":"address","internalType":"address"},{"name":"_active","type":"bool","internalType":"bool"}],"outputs":[],"stateMutability":"nonpayable"},{"type":"function","name":"transferOwnership","inputs":[{"name":"newOwner","type":"address","internalType":"address"}],"outputs":[],"stateMutability":"nonpayable"},{"type":"function","name":"withdrawFee","inputs":[{"name":"_to","type":"address","internalType":"address"},{"name":"_amount","type":"uint256","internalType":"uint256"}],"outputs":[],"stateMutability":"nonpayable"},{"type":"event","name":"Initialized","inputs":[{"name":"version","type":"uint8","indexed":false,"internalType":"uint8"}],"anonymous":false},{"type":"event","name":"OwnershipTransferred","inputs":[{"name":"previousOwner","type":"address","indexed":true,"internalType":"address"},{"name":"newOwner","type":"address","indexed":true,"internalType":"address"}],"anonymous":false},{"type":"error","name":"LZ_PriceFeed_InsufficientFee","inputs":[{"name":"provided","type":"uint256","internalType":"uint256"},{"name":"required","type":"uint256","internalType":"uint256"}]},{"type":"error","name":"LZ_PriceFeed_OnlyPriceUpdater","inputs":[]},{"type":"error","name":"LZ_PriceFeed_UnknownL2Eid","inputs":[{"name":"l2Eid","type":"uint32","internalType":"uint32"}]},{"type":"error","name":"Transfer_NativeFailed","inputs":[{"name":"_to","type":"address","internalType":"address"},{"name":"_value","type":"uint256","internalType":"uint256"}]},{"type":"error","name":"Transfer_ToAddressIsZero","inputs":[]}],"bytecode":{"object":"0x608060405234801561001057600080fd5b50611d78806100206000396000f3fe60806040526004361061018b5760003560e01c80638da5cb5b116100d6578063d350ad251161007f578063e0ad121a11610059578063e0ad121a14610653578063f2fde38b14610708578063fd9be5221461072857600080fd5b8063d350ad251461051c578063da26663a1461053c578063dbbb41551461063357600080fd5b8063c1840327116100b0578063c184032714610498578063c4d66de8146104bf578063cd68b79b146104df57600080fd5b80638da5cb5b1461041657806392807f5814610441578063c1723a1d1461048557600080fd5b80635e280f11116101385780637dc438a4116101125780637dc438a41461035e57806388a4124c1461037e5780638ca2fb08146103d657600080fd5b80635e280f11146102b1578063715018a6146103035780637bc3c9ab1461031857600080fd5b806336a5beba1161016957806336a5beba1461020957806352a72510146102715780635d6d7ccb1461029157600080fd5b806311f2c343146101905780632f7cb0b4146101c75780633161b7f6146101e9575b600080fd5b34801561019c57600080fd5b506101b46101ab36600461197b565b60009392505050565b6040519081526020015b60405180910390f35b3480156101d357600080fd5b506101e76101e23660046119ce565b610748565b005b3480156101f557600080fd5b506101e76102043660046119f0565b610785565b34801561021557600080fd5b5060408051808201825260008082526020918201528151808301835260685467ffffffffffffffff811680835263ffffffff680100000000000000009092048216928401928352845190815291511691810191909152016101be565b34801561027d57600080fd5b506101e761028c366004611a89565b610955565b34801561029d57600080fd5b506101e76102ac3660046119ce565b6109b3565b3480156102bd57600080fd5b50606a546102de9073ffffffffffffffffffffffffffffffffffffffff1681565b60405173ffffffffffffffffffffffffffffffffffffffff90911681526020016101be565b34801561030f57600080fd5b506101e7610a7a565b34801561032457600080fd5b50610338610333366004611ad7565b610a8e565b604080519283526fffffffffffffffffffffffffffffffff9091166020830152016101be565b34801561036a57600080fd5b506101e7610379366004611af5565b610b29565b34801561038a57600080fd5b5061039e61039936600461197b565b610c36565b604080519485526fffffffffffffffffffffffffffffffff9384166020860152918316918401919091521660608201526080016101be565b3480156103e257600080fd5b506104066103f1366004611b0d565b60666020526000908152604090205460ff1681565b60405190151581526020016101be565b34801561042257600080fd5b5060335473ffffffffffffffffffffffffffffffffffffffff166102de565b34801561044d57600080fd5b506069546fffffffffffffffffffffffffffffffff165b6040516fffffffffffffffffffffffffffffffff90911681526020016101be565b61039e61049336600461197b565b610c58565b3480156104a457600080fd5b506065546fffffffffffffffffffffffffffffffff16610464565b3480156104cb57600080fd5b506101e76104da366004611b0d565b610c89565b3480156104eb57600080fd5b506069546104649070010000000000000000000000000000000090046fffffffffffffffffffffffffffffffff1681565b34801561052857600080fd5b506101e76105373660046119ce565b610f70565b34801561054857600080fd5b506105ef610557366004611b28565b60408051606080820183526000808352602080840182905292840181905263ffffffff94851681526067835283902083519182018452546fffffffffffffffffffffffffffffffff81168252700100000000000000000000000000000000810467ffffffffffffffff169282019290925278010000000000000000000000000000000000000000000000009091049092169082015290565b6040805182516fffffffffffffffffffffffffffffffff16815260208084015167ffffffffffffffff16908201529181015163ffffffff16908201526060016101be565b34801561063f57600080fd5b506101e761064e366004611b0d565b610fbb565b34801561065f57600080fd5b506105ef61066e366004611b43565b60408051606080820183526000808352602080840182905292840181905261ffff949094168452606782529282902082519384018352546fffffffffffffffffffffffffffffffff8116845267ffffffffffffffff700100000000000000000000000000000000820416918401919091527801000000000000000000000000000000000000000000000000900463ffffffff169082015290565b34801561071457600080fd5b506101e7610723366004611b0d565b61100a565b34801561073457600080fd5b506101e7610743366004611b5e565b6110c1565b6107506110d7565b606980546fffffffffffffffffffffffffffffffff928316700100000000000000000000000000000000029216919091179055565b336107a560335473ffffffffffffffffffffffffffffffffffffffff1690565b73ffffffffffffffffffffffffffffffffffffffff1614610809573360009081526066602052604090205460ff16610809576040517f320ae52900000000000000000000000000000000000000000000000000000000815260040160405180910390fd5b60005b81811015610950573683838381811061082757610827611b88565b60800291909101915061094790506108426020830183611b28565b61085436849003840160208501611bcf565b805160208083015160409384015184516060810186526fffffffffffffffffffffffffffffffff948516815267ffffffffffffffff92831681850190815263ffffffff9283168288019081529783166000908152606790955295909320925183549551965194167fffffffffffffffff000000000000000000000000000000000000000000000000909516949094177001000000000000000000000000000000009590911694909402939093177fffffffff00000000ffffffffffffffffffffffffffffffffffffffffffffffff1678010000000000000000000000000000000000000000000000009190921602179055565b5060010161080c565b505050565b61095d6110d7565b73ffffffffffffffffffffffffffffffffffffffff91909116600090815260666020526040902080547fffffffffffffffffffffffffffffffffffffffffffffffffffffffffffffff0016911515919091179055565b336109d360335473ffffffffffffffffffffffffffffffffffffffff1690565b73ffffffffffffffffffffffffffffffffffffffff1614610a37573360009081526066602052604090205460ff16610a37576040517f320ae52900000000000000000000000000000000000000000000000000000000815260040160405180910390fd5b606980547fffffffffffffffffffffffffffffffff00000000000000000000000000000000166fffffffffffffffffffffffffffffffff92909216919091179055565b610a826110d7565b610a8c6000611158565b565b6000808461ffff16606e1480610aa957508461ffff1661279f145b80610ab957508461ffff16614eaf145b15610ad657610acd8561ffff1685856111cf565b91509150610b21565b8461ffff16606f1480610aee57508461ffff16612794145b80610afe57508461ffff16614ea4145b15610b1257610acd8561ffff16858561132c565b610acd8561ffff1685856114dd565b935093915050565b33610b4960335473ffffffffffffffffffffffffffffffffffffffff1690565b73ffffffffffffffffffffffffffffffffffffffff1614610bad573360009081526066602052604090205460ff16610bad576040517f320ae52900000000000000000000000000000000000000000000000000000000815260040160405180910390fd5b610bbd6108426020830183611b28565b6000610bcf60a0830160808401611c62565b90506000610be360c0840160a08501611b28565b6068805463ffffffff90921668010000000000000000027fffffffffffffffffffffffffffffffffffffffff00000000000000000000000090921667ffffffffffffffff90941693909317179091555050565b600080600080610c478787876115b2565b935093509350935093509350935093565b600080808080610c6c565b60405180910390fd5b610c778888886115b2565b94509450945094505093509350935093565b6000610cb37fb53127684a568b3173ae13b9f8a6016e243e63b6e8ee1178d6a717850b5d61035490565b905073ffffffffffffffffffffffffffffffffffffffff8116610d0c5773ffffffffffffffffffffffffffffffffffffffff7fb53127684a568b3173ae13b9f8a6016e243e63b6e8ee1178d6a717850b5d610355610d2e565b3373ffffffffffffffffffffffffffffffffffffffff821614610d2e57600080fd5b600054610100900460ff1615808015610d4e5750600054600160ff909116105b80610d685750303b158015610d68575060005460ff166001145b610df4576040517f08c379a000000000000000000000000000000000000000000000000000000000815260206004820152602e60248201527f496e697469616c697a61626c653a20636f6e747261637420697320616c72656160448201527f647920696e697469616c697a65640000000000000000000000000000000000006064820152608401610c63565b600080547fffffffffffffffffffffffffffffffffffffffffffffffffffffffffffffff001660011790558015610e5257600080547fffffffffffffffffffffffffffffffffffffffffffffffffffffffffffff00ff166101001790555b610e5a611689565b73ffffffffffffffffffffffffffffffffffffffff8316600090815260666020526040902080547fffffffffffffffffffffffffffffffffffffffffffffffffffffffffffffff00166001179055606580547fffffffffffffffffffffffffffffffff000000000000000000000000000000001668056bc75e2d6310000017905560698054702f000000000000000000000000000000006fffffffffffffffffffffffffffffffff91909116179055801561095057600080547fffffffffffffffffffffffffffffffffffffffffffffffffffffffffffff00ff169055604051600181527f7f26b83ff96e1f2b6a682f133852f6798a09c465da95921460cefb38474024989060200160405180910390a1505050565b610f786110d7565b606580547fffffffffffffffffffffffffffffffff00000000000000000000000000000000166fffffffffffffffffffffffffffffffff92909216919091179055565b610fc36110d7565b606a80547fffffffffffffffffffffffff00000000000000000000000000000000000000001673ffffffffffffffffffffffffffffffffffffffff92909216919091179055565b6110126110d7565b73ffffffffffffffffffffffffffffffffffffffff81166110b5576040517f08c379a000000000000000000000000000000000000000000000000000000000815260206004820152602660248201527f4f776e61626c653a206e6577206f776e657220697320746865207a65726f206160448201527f64647265737300000000000000000000000000000000000000000000000000006064820152608401610c63565b6110be81611158565b50565b6110c96110d7565b6110d38282611728565b5050565b60335473ffffffffffffffffffffffffffffffffffffffff163314610a8c576040517f08c379a000000000000000000000000000000000000000000000000000000000815260206004820181905260248201527f4f776e61626c653a2063616c6c6572206973206e6f7420746865206f776e65726044820152606401610c63565b6033805473ffffffffffffffffffffffffffffffffffffffff8381167fffffffffffffffffffffffff0000000000000000000000000000000000000000831681179093556040519116919082907f8be0079c531659141344cd1fd0a4f28419497f9722a3daafe3b4186f6b6457e090600090a35050565b63ffffffff8381166000908152606760205260408120606854606954929384938492680100000000000000009004909116906064906112349070010000000000000000000000000000000090046fffffffffffffffffffffffffffffffff1689611cac565b61123e9190611cf8565b6112489190611cac565b825490915060009061127c907801000000000000000000000000000000000000000000000000900463ffffffff1688611cac565b835460685491925060009167ffffffffffffffff700100000000000000000000000000000000909204821691849186916112b791168b611d0c565b6112c19190611d0c565b6112cb9190611d0c565b6112d59190611cac565b60655485549192506fffffffffffffffffffffffffffffffff908116916112fd911683611cac565b6113079190611cf8565b935493996fffffffffffffffffffffffffffffffff9094169850929650505050505050565b600080600061133a8661182e565b63ffffffff8082166000908152606760205260408120805493945092909161137f91780100000000000000000000000000000000000000000000000090041688611cac565b61138b90610c74611d0c565b82549091506000906113bb90700100000000000000000000000000000000900467ffffffffffffffff1683611cac565b63ffffffff808b16600090815260676020526040812080549394509290916114009178010000000000000000000000000000000000000000000000009004168b611cac565b8254909150600090700100000000000000000000000000000000900467ffffffffffffffff166114308b84611d0c565b61143a9190611cac565b60655487549192506000916fffffffffffffffffffffffffffffffff91821691611465911687611cac565b61146f9190611cf8565b60655485549192506000916fffffffffffffffffffffffffffffffff9182169161149a911685611cac565b6114a49190611cf8565b905060006114b28284611d0c565b9554959f6fffffffffffffffffffffffffffffffff9096169e50949c50505050505050505050505050565b63ffffffff8084166000908152606760205260408120805491928392839161152291780100000000000000000000000000000000000000000000000090041687611cac565b8254909150600090700100000000000000000000000000000000900467ffffffffffffffff166115528784611d0c565b61155c9190611cac565b60655484549192506fffffffffffffffffffffffffffffffff90811691611584911683611cac565b61158e9190611cf8565b925492986fffffffffffffffffffffffffffffffff90931697509195505050505050565b6000808080806115c461753089611d1f565b90508063ffffffff16606e14806115e257508063ffffffff1661279f145b806115f457508063ffffffff16614eaf145b1561160e576116048188886111cf565b909550935061165d565b8063ffffffff16606f148061162a57508063ffffffff16612794145b8061163c57508063ffffffff16614ea4145b1561164c5761160481888861132c565b6116578188886114dd565b90955093505b505060655460695493979296506fffffffffffffffffffffffffffffffff908116955090921692509050565b600054610100900460ff16611720576040517f08c379a000000000000000000000000000000000000000000000000000000000815260206004820152602b60248201527f496e697469616c697a61626c653a20636f6e7472616374206973206e6f74206960448201527f6e697469616c697a696e670000000000000000000000000000000000000000006064820152608401610c63565b610a8c6118c2565b73ffffffffffffffffffffffffffffffffffffffff8216611775576040517f6b7a931000000000000000000000000000000000000000000000000000000000815260040160405180910390fd5b60008273ffffffffffffffffffffffffffffffffffffffff168260405160006040518083038185875af1925050503d80600081146117cf576040519150601f19603f3d011682016040523d82523d6000602084013e6117d4565b606091505b5050905080610950576040517f465bc83400000000000000000000000000000000000000000000000000000000815273ffffffffffffffffffffffffffffffffffffffff8416600482015260248101839052604401610c63565b60008061183d61753084611d1f565b90508063ffffffff16606f036118565750606592915050565b8063ffffffff166127940361186f575061278992915050565b8063ffffffff16614ea4036118885750614e9992915050565b6040517fea25394500000000000000000000000000000000000000000000000000000000815263ffffffff82166004820152602401610c63565b600054610100900460ff16611959576040517f08c379a000000000000000000000000000000000000000000000000000000000815260206004820152602b60248201527f496e697469616c697a61626c653a20636f6e7472616374206973206e6f74206960448201527f6e697469616c697a696e670000000000000000000000000000000000000000006064820152608401610c63565b610a8c33611158565b803563ffffffff8116811461197657600080fd5b919050565b60008060006060848603121561199057600080fd5b61199984611962565b95602085013595506040909401359392505050565b80356fffffffffffffffffffffffffffffffff8116811461197657600080fd5b6000602082840312156119e057600080fd5b6119e9826119ae565b9392505050565b60008060208385031215611a0357600080fd5b823567ffffffffffffffff80821115611a1b57600080fd5b818501915085601f830112611a2f57600080fd5b813581811115611a3e57600080fd5b8660208260071b8501011115611a5357600080fd5b60209290920196919550909350505050565b803573ffffffffffffffffffffffffffffffffffffffff8116811461197657600080fd5b60008060408385031215611a9c57600080fd5b611aa583611a65565b915060208301358015158114611aba57600080fd5b809150509250929050565b803561ffff8116811461197657600080fd5b600080600060608486031215611aec57600080fd5b61199984611ac5565b600060c08284031215611b0757600080fd5b50919050565b600060208284031215611b1f57600080fd5b6119e982611a65565b600060208284031215611b3a57600080fd5b6119e982611962565b600060208284031215611b5557600080fd5b6119e982611ac5565b60008060408385031215611b7157600080fd5b611b7a83611a65565b946020939093013593505050565b7f4e487b7100000000000000000000000000000000000000000000000000000000600052603260045260246000fd5b803567ffffffffffffffff8116811461197657600080fd5b600060608284031215611be157600080fd5b6040516060810181811067ffffffffffffffff82111715611c2b577f4e487b7100000000000000000000000000000000000000000000000000000000600052604160045260246000fd5b604052611c37836119ae565b8152611c4560208401611bb7565b6020820152611c5660408401611962565b60408201529392505050565b600060208284031215611c7457600080fd5b6119e982611bb7565b7f4e487b7100000000000000000000000000000000000000000000000000000000600052601160045260246000fd5b8082028115828204841417611cc357611cc3611c7d565b92915050565b7f4e487b7100000000000000000000000000000000000000000000000000000000600052601260045260246000fd5b600082611d0757611d07611cc9565b500490565b80820180821115611cc357611cc3611c7d565b600063ffffffff80841680611d3657611d36611cc9565b9216919091069291505056fea2646970667358221220122c9ec50d5efbfad941bdb0d65d9053c54d3245bfa91a752938a0f082ee265564736f6c63430008160033","linkReferences":{}},"methodIdentifiers":{"ARBITRUM_COMPRESSION_PERCENT()":"cd68b79b","arbitrumPriceExt()":"36a5beba","endpoint()":"5e280f11","estimateFeeByChain(uint16,uint256,uint256)":"7bc3c9ab","estimateFeeByEid(uint32,uint256,uint256)":"88a4124c","estimateFeeOnSend(uint32,uint256,uint256)":"c1723a1d","getFee(uint32,uint256,uint256)":"11f2c343","getPrice(uint16)":"e0ad121a","getPrice(uint32)":"da26663a","getPriceRatioDenominator()":"c1840327","initialize(address)":"c4d66de8","nativeTokenPriceUSD()":"92807f58","owner()":"8da5cb5b","priceUpdater(address)":"8ca2fb08","renounceOwnership()":"715018a6","setArbitrumCompressionPercent(uint128)":"2f7cb0b4","setEndpoint(address)":"dbbb4155","setNativeTokenPriceUSD(uint128)":"5d6d7ccb","setPrice((uint32,(uint128,uint64,uint32))[])":"3161b7f6","setPriceForArbitrum((uint32,(uint128,uint64,uint32),(uint64,uint32)))":"7dc438a4","setPriceRatioDenominator(uint128)":"d350ad25","setPriceUpdater(address,bool)":"52a72510","transferOwnership(address)":"f2fde38b","withdrawFee(address,uint256)":"fd9be522"},"id":48}