{"abi":[{"type":"constructor","inputs":[{"name":"_endpoint","type":"address","internalType":"address"},{"name":"_delegate","type":"address","internalType":"address"}],"stateMutability":"nonpayable"},{"type":"function","name":"allowInitializePath","inputs":[{"name":"origin","type":"tuple","internalType":"struct Origin","components":[{"name":"srcEid","type":"uint32","internalType":"uint32"},{"name":"sender","type":"bytes32","internalType":"bytes32"},{"name":"nonce","type":"uint64","internalType":"uint64"}]}],"outputs":[{"name":"","type":"bool","internalType":"bool"}],"stateMutability":"view"},{"type":"function","name":"composeMsgSender","inputs":[],"outputs":[{"name":"sender","type":"address","internalType":"address"}],"stateMutability":"view"},{"type":"function","name":"data","inputs":[],"outputs":[{"name":"","type":"string","internalType":"string"}],"stateMutability":"view"},{"type":"function","name":"endpoint","inputs":[],"outputs":[{"name":"","type":"address","internalType":"contract ILayerZeroEndpointV2"}],"stateMutability":"view"},{"type":"function","name":"lzReceive","inputs":[{"name":"_origin","type":"tuple","internalType":"struct Origin","components":[{"name":"srcEid","type":"uint32","internalType":"uint32"},{"name":"sender","type":"bytes32","internalType":"bytes32"},{"name":"nonce","type":"uint64","internalType":"uint64"}]},{"name":"_guid","type":"bytes32","internalType":"bytes32"},{"name":"_message","type":"bytes","internalType":"bytes"},{"name":"_executor","type":"address","internalType":"address"},{"name":"_extraData","type":"bytes","internalType":"bytes"}],"outputs":[],"stateMutability":"payable"},{"type":"function","name":"nextNonce","inputs":[{"name":"","type":"uint32","internalType":"uint32"},{"name":"","type":"bytes32","internalType":"bytes32"}],"outputs":[{"name":"nonce","type":"uint64","internalType":"uint64"}],"stateMutability":"view"},{"type":"function","name":"oAppVersion","inputs":[],"outputs":[{"name":"senderVersion","type":"uint64","internalType":"uint64"},{"name":"receiverVersion","type":"uint64","internalType":"uint64"}],"stateMutability":"pure"},{"type":"function","name":"owner","inputs":[],"outputs":[{"name":"","type":"address","internalType":"address"}],"stateMutability":"view"},{"type":"function","name":"peers","inputs":[{"name":"eid","type":"uint32","internalType":"uint32"}],"outputs":[{"name":"peer","type":"bytes32","internalType":"bytes32"}],"stateMutability":"view"},{"type":"function","name":"quote","inputs":[{"name":"_dstEid","type":"uint32","internalType":"uint32"},{"name":"_message","type":"string","internalType":"string"},{"name":"_options","type":"bytes","internalType":"bytes"},{"name":"_payInLzToken","type":"bool","internalType":"bool"}],"outputs":[{"name":"fee","type":"tuple","internalType":"struct MessagingFee","components":[{"name":"nativeFee","type":"uint256","internalType":"uint256"},{"name":"lzTokenFee","type":"uint256","internalType":"uint256"}]}],"stateMutability":"view"},{"type":"function","name":"renounceOwnership","inputs":[],"outputs":[],"stateMutability":"nonpayable"},{"type":"function","name":"send","inputs":[{"name":"_dstEid","type":"uint32","internalType":"uint32"},{"name":"_message","type":"string","internalType":"string"},{"name":"_options","type":"bytes","internalType":"bytes"}],"outputs":[{"name":"receipt","type":"tuple","internalType":"struct MessagingReceipt","components":[{"name":"guid","type":"bytes32","internalType":"bytes32"},{"name":"nonce","type":"uint64","internalType":"uint64"},{"name":"fee","type":"tuple","internalType":"struct MessagingFee","components":[{"name":"nativeFee","type":"uint256","internalType":"uint256"},{"name":"lzTokenFee","type":"uint256","internalType":"uint256"}]}]}],"stateMutability":"payable"},{"type":"function","name":"setDelegate","inputs":[{"name":"_delegate","type":"address","internalType":"address"}],"outputs":[],"stateMutability":"nonpayable"},{"type":"function","name":"setPeer","inputs":[{"name":"_eid","type":"uint32","internalType":"uint32"},{"name":"_peer","type":"bytes32","internalType":"bytes32"}],"outputs":[],"stateMutability":"nonpayable"},{"type":"function","name":"transferOwnership","inputs":[{"name":"newOwner","type":"address","internalType":"address"}],"outputs":[],"stateMutability":"nonpayable"},{"type":"event","name":"MessageReceived","inputs":[{"name":"message","type":"string","indexed":false,"internalType":"string"}],"anonymous":false},{"type":"event","name":"MessageSent","inputs":[{"name":"message","type":"string","indexed":false,"internalType":"string"}],"anonymous":false},{"type":"event","name":"OwnershipTransferred","inputs":[{"name":"previousOwner","type":"address","indexed":true,"internalType":"address"},{"name":"newOwner","type":"address","indexed":true,"internalType":"address"}],"anonymous":false},{"type":"event","name":"PeerSet","inputs":[{"name":"eid","type":"uint32","indexed":false,"internalType":"uint32"},{"name":"peer","type":"bytes32","indexed":false,"internalType":"bytes32"}],"anonymous":false},{"type":"error","name":"InvalidDelegate","inputs":[]},{"type":"error","name":"InvalidEndpointCall","inputs":[]},{"type":"error","name":"LzTokenUnavailable","inputs":[]},{"type":"error","name":"NoPeer","inputs":[{"name":"eid","type":"uint32","internalType":"uint32"}]},{"type":"error","name":"NotEnoughNative","inputs":[{"name":"msgValue","type":"uint256","internalType":"uint256"}]},{"type":"error","name":"OnlyEndpoint","inputs":[{"name":"addr","type":"address","internalType":"address"}]},{"type":"error","name":"OnlyPeer","inputs":[{"name":"eid","type":"uint32","internalType":"uint32"},{"name":"sender","type":"bytes32","internalType":"bytes32"}]}],"bytecode":{"object":"0x60e0604052601560a09081527f4e6f7468696e67207265636569766564207965742e000000000000000000000060c0526002906200003e908262000210565b503480156200004c57600080fd5b5060405162001d3e38038062001d3e8339810160408190526200006f91620002f9565b818181816200007e3362000119565b6001600160a01b038083166080528116620000ac57604051632d618d8160e21b815260040160405180910390fd5b60805160405163ca5eb5e160e01b81526001600160a01b0383811660048301529091169063ca5eb5e190602401600060405180830381600087803b158015620000f457600080fd5b505af115801562000109573d6000803e3d6000fd5b5050505050505050505062000331565b600080546001600160a01b038381166001600160a01b0319831681178455604051919092169283917f8be0079c531659141344cd1fd0a4f28419497f9722a3daafe3b4186f6b6457e09190a35050565b634e487b7160e01b600052604160045260246000fd5b600181811c908216806200019457607f821691505b602082108103620001b557634e487b7160e01b600052602260045260246000fd5b50919050565b601f8211156200020b576000816000526020600020601f850160051c81016020861015620001e65750805b601f850160051c820191505b818110156200020757828155600101620001f2565b5050505b505050565b81516001600160401b038111156200022c576200022c62000169565b62000244816200023d84546200017f565b84620001bb565b602080601f8311600181146200027c5760008415620002635750858301515b600019600386901b1c1916600185901b17855562000207565b600085815260208120601f198616915b82811015620002ad578886015182559484019460019091019084016200028c565b5085821015620002cc5787850151600019600388901b60f8161c191681555b5050505050600190811b01905550565b80516001600160a01b0381168114620002f457600080fd5b919050565b600080604083850312156200030d57600080fd5b6200031883620002dc565b91506200032860208401620002dc565b90509250929050565b6080516119c7620003776000396000818161015a015281816103490152818161059b015281816109ed01528181610ae801528181610c070152610d0001526119c76000f3fe6080604052600436106100e85760003560e01c80638da5cb5b1161008a578063e0539e5811610059578063e0539e58146102aa578063f2fde38b146102ca578063f77e5dd3146102ea578063ff7bd03d1461031757600080fd5b80638da5cb5b14610211578063b92d0eff1461023c578063bb0b6a531461024f578063ca5eb5e11461028a57600080fd5b80635e280f11116100c65780635e280f1114610148578063715018a6146101a157806373d4a13a146101b65780637d25a05e146101d857600080fd5b806313137d65146100ed57806317442b70146101025780633400288b14610128575b600080fd5b6101006100fb366004611104565b610347565b005b34801561010e57600080fd5b506040805160018082526020820152015b60405180910390f35b34801561013457600080fd5b506101006101433660046111bd565b610446565b34801561015457600080fd5b5061017c7f000000000000000000000000000000000000000000000000000000000000000081565b60405173ffffffffffffffffffffffffffffffffffffffff909116815260200161011f565b3480156101ad57600080fd5b506101006104a3565b3480156101c257600080fd5b506101cb6104b7565b60405161011f9190611255565b3480156101e457600080fd5b506101f86101f33660046111bd565b610545565b60405167ffffffffffffffff909116815260200161011f565b34801561021d57600080fd5b5060005473ffffffffffffffffffffffffffffffffffffffff1661017c565b34801561024857600080fd5b503061017c565b34801561025b57600080fd5b5061027c61026a36600461126f565b60016020526000908152604090205481565b60405190815260200161011f565b34801561029657600080fd5b506101006102a536600461128a565b61054e565b6102bd6102b836600461138a565b6105fa565b60405161011f9190611401565b3480156102d657600080fd5b506101006102e536600461128a565b6106d9565b3480156102f657600080fd5b5061030a610305366004611452565b610790565b60405161011f91906114ed565b34801561032357600080fd5b50610337610332366004611504565b6107de565b604051901515815260200161011f565b7f000000000000000000000000000000000000000000000000000000000000000073ffffffffffffffffffffffffffffffffffffffff1633146103bd576040517f91ac5e4f0000000000000000000000000000000000000000000000000000000081523360048201526024015b60405180910390fd5b602087018035906103d7906103d2908a61126f565b610814565b1461042e576103e9602088018861126f565b6040517fc26bebcc00000000000000000000000000000000000000000000000000000000815263ffffffff9091166004820152602088013560248201526044016103b4565b61043d87878787878787610869565b50505050505050565b61044e6108c4565b63ffffffff8216600081815260016020908152604091829020849055815192835282018390527f238399d427b947898edb290f5ff0f9109849b1c3ba196a42e35f00c50a54b98b910160405180910390a15050565b6104ab6108c4565b6104b56000610945565b565b600280546104c490611520565b80601f01602080910402602001604051908101604052809291908181526020018280546104f090611520565b801561053d5780601f106105125761010080835404028352916020019161053d565b820191906000526020600020905b81548152906001019060200180831161052057829003601f168201915b505050505081565b60005b92915050565b6105566108c4565b6040517fca5eb5e100000000000000000000000000000000000000000000000000000000815273ffffffffffffffffffffffffffffffffffffffff82811660048301527f0000000000000000000000000000000000000000000000000000000000000000169063ca5eb5e190602401600060405180830381600087803b1580156105df57600080fd5b505af11580156105f3573d6000803e3d6000fd5b5050505050565b610602611039565b6000846040516020016106159190611255565b604080517fffffffffffffffffffffffffffffffffffffffffffffffffffffffffffffffe08184030181526020601f870181900481028401810190925285835292506106979188918491908890889081908401838280828437600092018290525060408051808201909152348152602081019190915292503391506109ba9050565b91507fbdc68c10503e06bda29a088fc440065f6f48d934e35de224cfd493a67ca3127b856040516106c89190611255565b60405180910390a150949350505050565b6106e16108c4565b73ffffffffffffffffffffffffffffffffffffffff8116610784576040517f08c379a000000000000000000000000000000000000000000000000000000000815260206004820152602660248201527f4f776e61626c653a206e6577206f776e657220697320746865207a65726f206160448201527f646472657373000000000000000000000000000000000000000000000000000060648201526084016103b4565b61078d81610945565b50565b60408051808201909152600080825260208201526000846040516020016107b79190611255565b60405160208183030381529060405290506107d486828686610ad2565b9695505050505050565b60006020820180359060019083906107f6908661126f565b63ffffffff1681526020810191909152604001600020541492915050565b63ffffffff811660009081526001602052604081205480610548576040517ff6ff4fb700000000000000000000000000000000000000000000000000000000815263ffffffff841660048201526024016103b4565b6108758486018661156d565b60029061088290826115f2565b507ff7d0fdc395711a2233b76a4ff1de3b5657584b471fd633499a7faf1fbcaba46360026040516108b3919061170c565b60405180910390a150505050505050565b60005473ffffffffffffffffffffffffffffffffffffffff1633146104b5576040517f08c379a000000000000000000000000000000000000000000000000000000000815260206004820181905260248201527f4f776e61626c653a2063616c6c6572206973206e6f7420746865206f776e657260448201526064016103b4565b6000805473ffffffffffffffffffffffffffffffffffffffff8381167fffffffffffffffffffffffff0000000000000000000000000000000000000000831681178455604051919092169283917f8be0079c531659141344cd1fd0a4f28419497f9722a3daafe3b4186f6b6457e09190a35050565b6109c2611039565b60006109d18460000151610bc2565b6020850151909150156109eb576109eb8460200151610c03565b7f000000000000000000000000000000000000000000000000000000000000000073ffffffffffffffffffffffffffffffffffffffff16632637a450826040518060a001604052808b63ffffffff168152602001610a488c610814565b81526020018a815260200189815260200160008960200151111515815250866040518463ffffffff1660e01b8152600401610a849291906117ba565b60806040518083038185885af1158015610aa2573d6000803e3d6000fd5b50505050506040513d601f19601f82011682018060405250810190610ac791906118ad565b979650505050505050565b60408051808201909152600080825260208201527f000000000000000000000000000000000000000000000000000000000000000073ffffffffffffffffffffffffffffffffffffffff1663ddc28c586040518060a001604052808863ffffffff168152602001610b4289610814565b8152602001878152602001868152602001851515815250306040518363ffffffff1660e01b8152600401610b779291906117ba565b6040805180830381865afa158015610b93573d6000803e3d6000fd5b505050506040513d601f19601f82011682018060405250810190610bb7919061191f565b90505b949350505050565b6000813414610bff576040517f9f7041200000000000000000000000000000000000000000000000000000000081523460048201526024016103b4565b5090565b60007f000000000000000000000000000000000000000000000000000000000000000073ffffffffffffffffffffffffffffffffffffffff1663e4fe1d946040518163ffffffff1660e01b8152600401602060405180830381865afa158015610c70573d6000803e3d6000fd5b505050506040513d601f19601f82011682018060405250810190610c94919061193b565b905073ffffffffffffffffffffffffffffffffffffffff8116610ce3576040517f5373352a00000000000000000000000000000000000000000000000000000000815260040160405180910390fd5b610d2573ffffffffffffffffffffffffffffffffffffffff8216337f000000000000000000000000000000000000000000000000000000000000000085610d29565b5050565b6040805173ffffffffffffffffffffffffffffffffffffffff85811660248301528416604482015260648082018490528251808303909101815260849091019091526020810180517bffffffffffffffffffffffffffffffffffffffffffffffffffffffff167f23b872dd00000000000000000000000000000000000000000000000000000000179052610dbe908590610dc4565b50505050565b6000610e26826040518060400160405280602081526020017f5361666545524332303a206c6f772d6c6576656c2063616c6c206661696c65648152508573ffffffffffffffffffffffffffffffffffffffff16610ed89092919063ffffffff16565b9050805160001480610e47575080806020019051810190610e479190611958565b610ed3576040517f08c379a000000000000000000000000000000000000000000000000000000000815260206004820152602a60248201527f5361666545524332303a204552433230206f7065726174696f6e20646964206e60448201527f6f7420737563636565640000000000000000000000000000000000000000000060648201526084016103b4565b505050565b6060610bba8484600085856000808673ffffffffffffffffffffffffffffffffffffffff168587604051610f0c9190611975565b60006040518083038185875af1925050503d8060008114610f49576040519150601f19603f3d011682016040523d82523d6000602084013e610f4e565b606091505b5091509150610ac78783838760608315610ff0578251600003610fe95773ffffffffffffffffffffffffffffffffffffffff85163b610fe9576040517f08c379a000000000000000000000000000000000000000000000000000000000815260206004820152601d60248201527f416464726573733a2063616c6c20746f206e6f6e2d636f6e747261637400000060448201526064016103b4565b5081610bba565b610bba83838151156110055781518083602001fd5b806040517f08c379a00000000000000000000000000000000000000000000000000000000081526004016103b49190611255565b604051806060016040528060008019168152602001600067ffffffffffffffff16815260200161107c604051806040016040528060008152602001600081525090565b905290565b60006060828403121561109357600080fd5b50919050565b60008083601f8401126110ab57600080fd5b50813567ffffffffffffffff8111156110c357600080fd5b6020830191508360208285010111156110db57600080fd5b9250929050565b73ffffffffffffffffffffffffffffffffffffffff8116811461078d57600080fd5b600080600080600080600060e0888a03121561111f57600080fd5b6111298989611081565b965060608801359550608088013567ffffffffffffffff8082111561114d57600080fd5b6111598b838c01611099565b909750955060a08a0135915061116e826110e2565b90935060c0890135908082111561118457600080fd5b506111918a828b01611099565b989b979a50959850939692959293505050565b803563ffffffff811681146111b857600080fd5b919050565b600080604083850312156111d057600080fd5b6111d9836111a4565b946020939093013593505050565b60005b838110156112025781810151838201526020016111ea565b50506000910152565b600081518084526112238160208601602086016111e7565b601f017fffffffffffffffffffffffffffffffffffffffffffffffffffffffffffffffe0169290920160200192915050565b602081526000611268602083018461120b565b9392505050565b60006020828403121561128157600080fd5b611268826111a4565b60006020828403121561129c57600080fd5b8135611268816110e2565b7f4e487b7100000000000000000000000000000000000000000000000000000000600052604160045260246000fd5b600067ffffffffffffffff808411156112f1576112f16112a7565b604051601f85017fffffffffffffffffffffffffffffffffffffffffffffffffffffffffffffffe0908116603f01168101908282118183101715611337576113376112a7565b8160405280935085815286868601111561135057600080fd5b858560208301376000602087830101525050509392505050565b600082601f83011261137b57600080fd5b611268838335602085016112d6565b600080600080606085870312156113a057600080fd5b6113a9856111a4565b9350602085013567ffffffffffffffff808211156113c657600080fd5b6113d28883890161136a565b945060408701359150808211156113e857600080fd5b506113f587828801611099565b95989497509550505050565b60006080820190508251825267ffffffffffffffff6020840151166020830152604083015161143d604084018280518252602090810151910152565b5092915050565b801515811461078d57600080fd5b6000806000806080858703121561146857600080fd5b611471856111a4565b9350602085013567ffffffffffffffff8082111561148e57600080fd5b61149a8883890161136a565b945060408701359150808211156114b057600080fd5b508501601f810187136114c257600080fd5b6114d1878235602084016112d6565b92505060608501356114e281611444565b939692955090935050565b815181526020808301519082015260408101610548565b60006060828403121561151657600080fd5b6112688383611081565b600181811c9082168061153457607f821691505b602082108103611093577f4e487b7100000000000000000000000000000000000000000000000000000000600052602260045260246000fd5b60006020828403121561157f57600080fd5b813567ffffffffffffffff81111561159657600080fd5b610bba8482850161136a565b601f821115610ed3576000816000526020600020601f850160051c810160208610156115cb5750805b601f850160051c820191505b818110156115ea578281556001016115d7565b505050505050565b815167ffffffffffffffff81111561160c5761160c6112a7565b6116208161161a8454611520565b846115a2565b602080601f831160018114611673576000841561163d5750858301515b7fffffffffffffffffffffffffffffffffffffffffffffffffffffffffffffffff600386901b1c1916600185901b1785556115ea565b6000858152602081207fffffffffffffffffffffffffffffffffffffffffffffffffffffffffffffffe08616915b828110156116c0578886015182559484019460019091019084016116a1565b50858210156116fc57878501517fffffffffffffffffffffffffffffffffffffffffffffffffffffffffffffffff600388901b60f8161c191681555b5050505050600190811b01905550565b600060208083526000845461172081611520565b8060208701526040600180841660008114611742576001811461177c576117ac565b7fffffffffffffffffffffffffffffffffffffffffffffffffffffffffffffff00851660408a0152604084151560051b8a010195506117ac565b89600052602060002060005b858110156117a35781548b8201860152908301908801611788565b8a016040019650505b509398975050505050505050565b6040815263ffffffff8351166040820152602083015160608201526000604084015160a060808401526117f060e084018261120b565b905060608501517fffffffffffffffffffffffffffffffffffffffffffffffffffffffffffffffc08483030160a085015261182b828261120b565b60809690960151151560c085015250505073ffffffffffffffffffffffffffffffffffffffff9190911660209091015290565b60006040828403121561187057600080fd5b6040516040810181811067ffffffffffffffff82111715611893576118936112a7565b604052825181526020928301519281019290925250919050565b6000608082840312156118bf57600080fd5b6040516060810167ffffffffffffffff82821081831117156118e3576118e36112a7565b816040528451835260208501519150808216821461190057600080fd5b506020820152611913846040850161185e565b60408201529392505050565b60006040828403121561193157600080fd5b611268838361185e565b60006020828403121561194d57600080fd5b8151611268816110e2565b60006020828403121561196a57600080fd5b815161126881611444565b600082516119878184602087016111e7565b919091019291505056fea2646970667358221220fae1d4811cc21a9cf0f61c7bd41cedae69b957e2022fbb38f09ad83c0afa86f064736f6c63430008160033","linkReferences":{}},"methodIdentifiers":{"allowInitializePath((uint32,bytes32,uint64))":"ff7bd03d","composeMsgSender()":"b92d0eff","data()":"73d4a13a","endpoint()":"5e280f11","lzReceive((uint32,bytes32,uint64),bytes32,bytes,address,bytes)":"13137d65","nextNonce(uint32,bytes32)":"7d25a05e","oAppVersion()":"17442b70","owner()":"8da5cb5b","peers(uint32)":"bb0b6a53","quote(uint32,string,bytes,bool)":"f77e5dd3","renounceOwnership()":"715018a6","send(uint32,string,bytes)":"e0539e58","setDelegate(address)":"ca5eb5e1","setPeer(uint32,bytes32)":"3400288b","transferOwnership(address)":"f2fde38b"},"id":0}