{"abi":[{"type":"constructor","inputs":[{"name":"_eid","type":"uint32","internalType":"uint32"},{"name":"_owner","type":"address","internalType":"address"}],"stateMutability":"nonpayable"},{"type":"function","name":"EMPTY_PAYLOAD_HASH","inputs":[],"outputs":[{"name":"","type":"bytes32","internalType":"bytes32"}],"stateMutability":"view"},{"type":"function","name":"NIL_PAYLOAD_HASH","inputs":[],"outputs":[{"name":"","type":"bytes32","internalType":"bytes32"}],"stateMutability":"view"},{"type":"function","name":"blockedLibrary","inputs":[],"outputs":[{"name":"","type":"address","internalType":"address"}],"stateMutability":"view"},{"type":"function","name":"burn","inputs":[{"name":"_oapp","type":"address","internalType":"address"},{"name":"_srcEid","type":"uint32","internalType":"uint32"},{"name":"_sender","type":"bytes32","internalType":"bytes32"},{"name":"_nonce","type":"uint64","internalType":"uint64"},{"name":"_payloadHash","type":"bytes32","internalType":"bytes32"}],"outputs":[],"stateMutability":"nonpayable"},{"type":"function","name":"clear","inputs":[{"name":"_oapp","type":"address","internalType":"address"},{"name":"_origin","type":"tuple","internalType":"struct Origin","components":[{"name":"srcEid","type":"uint32","internalType":"uint32"},{"name":"sender","type":"bytes32","internalType":"bytes32"},{"name":"nonce","type":"uint64","internalType":"uint64"}]},{"name":"_guid","type":"bytes32","internalType":"bytes32"},{"name":"_message","type":"bytes","internalType":"bytes"}],"outputs":[],"stateMutability":"nonpayable"},{"type":"function","name":"composeQueue","inputs":[{"name":"from","type":"address","internalType":"address"},{"name":"to","type":"address","internalType":"address"},{"name":"guid","type":"bytes32","internalType":"bytes32"},{"name":"index","type":"uint16","internalType":"uint16"}],"outputs":[{"name":"messageHash","type":"bytes32","internalType":"bytes32"}],"stateMutability":"view"},{"type":"function","name":"defaultReceiveLibrary","inputs":[{"name":"srcEid","type":"uint32","internalType":"uint32"}],"outputs":[{"name":"lib","type":"address","internalType":"address"}],"stateMutability":"view"},{"type":"function","name":"defaultReceiveLibraryTimeout","inputs":[{"name":"srcEid","type":"uint32","internalType":"uint32"}],"outputs":[{"name":"lib","type":"address","internalType":"address"},{"name":"expiry","type":"uint256","internalType":"uint256"}],"stateMutability":"view"},{"type":"function","name":"defaultSendLibrary","inputs":[{"name":"dstEid","type":"uint32","internalType":"uint32"}],"outputs":[{"name":"lib","type":"address","internalType":"address"}],"stateMutability":"view"},{"type":"function","name":"delegates","inputs":[{"name":"oapp","type":"address","internalType":"address"}],"outputs":[{"name":"delegate","type":"address","internalType":"address"}],"stateMutability":"view"},{"type":"function","name":"eid","inputs":[],"outputs":[{"name":"","type":"uint32","internalType":"uint32"}],"stateMutability":"view"},{"type":"function","name":"getConfig","inputs":[{"name":"_oapp","type":"address","internalType":"address"},{"name":"_lib","type":"address","internalType":"address"},{"name":"_eid","type":"uint32","internalType":"uint32"},{"name":"_configType","type":"uint32","internalType":"uint32"}],"outputs":[{"name":"config","type":"bytes","internalType":"bytes"}],"stateMutability":"view"},{"type":"function","name":"getReceiveLibrary","inputs":[{"name":"_receiver","type":"address","internalType":"address"},{"name":"_srcEid","type":"uint32","internalType":"uint32"}],"outputs":[{"name":"lib","type":"address","internalType":"address"},{"name":"isDefault","type":"bool","internalType":"bool"}],"stateMutability":"view"},{"type":"function","name":"getRegisteredLibraries","inputs":[],"outputs":[{"name":"","type":"address[]","internalType":"address[]"}],"stateMutability":"view"},{"type":"function","name":"getSendContext","inputs":[],"outputs":[{"name":"","type":"uint32","internalType":"uint32"},{"name":"","type":"address","internalType":"address"}],"stateMutability":"view"},{"type":"function","name":"getSendLibrary","inputs":[{"name":"_sender","type":"address","internalType":"address"},{"name":"_dstEid","type":"uint32","internalType":"uint32"}],"outputs":[{"name":"lib","type":"address","internalType":"address"}],"stateMutability":"view"},{"type":"function","name":"inboundNonce","inputs":[{"name":"_receiver","type":"address","internalType":"address"},{"name":"_srcEid","type":"uint32","internalType":"uint32"},{"name":"_sender","type":"bytes32","internalType":"bytes32"}],"outputs":[{"name":"","type":"uint64","internalType":"uint64"}],"stateMutability":"view"},{"type":"function","name":"inboundPayloadHash","inputs":[{"name":"receiver","type":"address","internalType":"address"},{"name":"srcEid","type":"uint32","internalType":"uint32"},{"name":"sender","type":"bytes32","internalType":"bytes32"},{"name":"inboundNonce","type":"uint64","internalType":"uint64"}],"outputs":[{"name":"payloadHash","type":"bytes32","internalType":"bytes32"}],"stateMutability":"view"},{"type":"function","name":"initializable","inputs":[{"name":"_origin","type":"tuple","internalType":"struct Origin","components":[{"name":"srcEid","type":"uint32","internalType":"uint32"},{"name":"sender","type":"bytes32","internalType":"bytes32"},{"name":"nonce","type":"uint64","internalType":"uint64"}]},{"name":"_receiver","type":"address","internalType":"address"}],"outputs":[{"name":"","type":"bool","internalType":"bool"}],"stateMutability":"view"},{"type":"function","name":"isDefaultSendLibrary","inputs":[{"name":"_sender","type":"address","internalType":"address"},{"name":"_dstEid","type":"uint32","internalType":"uint32"}],"outputs":[{"name":"","type":"bool","internalType":"bool"}],"stateMutability":"view"},{"type":"function","name":"isRegisteredLibrary","inputs":[{"name":"lib","type":"address","internalType":"address"}],"outputs":[{"name":"","type":"bool","internalType":"bool"}],"stateMutability":"view"},{"type":"function","name":"isSendingMessage","inputs":[],"outputs":[{"name":"","type":"bool","internalType":"bool"}],"stateMutability":"view"},{"type":"function","name":"isSupportedEid","inputs":[{"name":"_eid","type":"uint32","internalType":"uint32"}],"outputs":[{"name":"","type":"bool","internalType":"bool"}],"stateMutability":"view"},{"type":"function","name":"isValidReceiveLibrary","inputs":[{"name":"_receiver","type":"address","internalType":"address"},{"name":"_srcEid","type":"uint32","internalType":"uint32"},{"name":"_actualReceiveLib","type":"address","internalType":"address"}],"outputs":[{"name":"","type":"bool","internalType":"bool"}],"stateMutability":"view"},{"type":"function","name":"lazyInboundNonce","inputs":[{"name":"receiver","type":"address","internalType":"address"},{"name":"srcEid","type":"uint32","internalType":"uint32"},{"name":"sender","type":"bytes32","internalType":"bytes32"}],"outputs":[{"name":"nonce","type":"uint64","internalType":"uint64"}],"stateMutability":"view"},{"type":"function","name":"lzCompose","inputs":[{"name":"_from","type":"address","internalType":"address"},{"name":"_to","type":"address","internalType":"address"},{"name":"_guid","type":"bytes32","internalType":"bytes32"},{"name":"_index","type":"uint16","internalType":"uint16"},{"name":"_message","type":"bytes","internalType":"bytes"},{"name":"_extraData","type":"bytes","internalType":"bytes"}],"outputs":[],"stateMutability":"payable"},{"type":"function","name":"lzComposeAlert","inputs":[{"name":"_from","type":"address","internalType":"address"},{"name":"_to","type":"address","internalType":"address"},{"name":"_guid","type":"bytes32","internalType":"bytes32"},{"name":"_index","type":"uint16","internalType":"uint16"},{"name":"_gas","type":"uint256","internalType":"uint256"},{"name":"_value","type":"uint256","internalType":"uint256"},{"name":"_message","type":"bytes","internalType":"bytes"},{"name":"_extraData","type":"bytes","internalType":"bytes"},{"name":"_reason","type":"bytes","internalType":"bytes"}],"outputs":[],"stateMutability":"nonpayable"},{"type":"function","name":"lzReceive","inputs":[{"name":"_origin","type":"tuple","internalType":"struct Origin","components":[{"name":"srcEid","type":"uint32","internalType":"uint32"},{"name":"sender","type":"bytes32","internalType":"bytes32"},{"name":"nonce","type":"uint64","internalType":"uint64"}]},{"name":"_receiver","type":"address","internalType":"address"},{"name":"_guid","type":"bytes32","internalType":"bytes32"},{"name":"_message","type":"bytes","internalType":"bytes"},{"name":"_extraData","type":"bytes","internalType":"bytes"}],"outputs":[],"stateMutability":"payable"},{"type":"function","name":"lzReceiveAlert","inputs":[{"name":"_origin","type":"tuple","internalType":"struct Origin","components":[{"name":"srcEid","type":"uint32","internalType":"uint32"},{"name":"sender","type":"bytes32","internalType":"bytes32"},{"name":"nonce","type":"uint64","internalType":"uint64"}]},{"name":"_receiver","type":"address","internalType":"address"},{"name":"_guid","type":"bytes32","internalType":"bytes32"},{"name":"_gas","type":"uint256","internalType":"uint256"},{"name":"_value","type":"uint256","internalType":"uint256"},{"name":"_message","type":"bytes","internalType":"bytes"},{"name":"_extraData","type":"bytes","internalType":"bytes"},{"name":"_reason","type":"bytes","internalType":"bytes"}],"outputs":[],"stateMutability":"nonpayable"},{"type":"function","name":"lzToken","inputs":[],"outputs":[{"name":"","type":"address","internalType":"address"}],"stateMutability":"view"},{"type":"function","name":"nativeToken","inputs":[],"outputs":[{"name":"","type":"address","internalType":"address"}],"stateMutability":"view"},{"type":"function","name":"nextGuid","inputs":[{"name":"_sender","type":"address","internalType":"address"},{"name":"_dstEid","type":"uint32","internalType":"uint32"},{"name":"_receiver","type":"bytes32","internalType":"bytes32"}],"outputs":[{"name":"","type":"bytes32","internalType":"bytes32"}],"stateMutability":"view"},{"type":"function","name":"nilify","inputs":[{"name":"_oapp","type":"address","internalType":"address"},{"name":"_srcEid","type":"uint32","internalType":"uint32"},{"name":"_sender","type":"bytes32","internalType":"bytes32"},{"name":"_nonce","type":"uint64","internalType":"uint64"},{"name":"_payloadHash","type":"bytes32","internalType":"bytes32"}],"outputs":[],"stateMutability":"nonpayable"},{"type":"function","name":"outboundNonce","inputs":[{"name":"sender","type":"address","internalType":"address"},{"name":"dstEid","type":"uint32","internalType":"uint32"},{"name":"receiver","type":"bytes32","internalType":"bytes32"}],"outputs":[{"name":"nonce","type":"uint64","internalType":"uint64"}],"stateMutability":"view"},{"type":"function","name":"owner","inputs":[],"outputs":[{"name":"","type":"address","internalType":"address"}],"stateMutability":"view"},{"type":"function","name":"quote","inputs":[{"name":"_params","type":"tuple","internalType":"struct MessagingParams","components":[{"name":"dstEid","type":"uint32","internalType":"uint32"},{"name":"receiver","type":"bytes32","internalType":"bytes32"},{"name":"message","type":"bytes","internalType":"bytes"},{"name":"options","type":"bytes","internalType":"bytes"},{"name":"payInLzToken","type":"bool","internalType":"bool"}]},{"name":"_sender","type":"address","internalType":"address"}],"outputs":[{"name":"","type":"tuple","internalType":"struct MessagingFee","components":[{"name":"nativeFee","type":"uint256","internalType":"uint256"},{"name":"lzTokenFee","type":"uint256","internalType":"uint256"}]}],"stateMutability":"view"},{"type":"function","name":"receiveLibraryTimeout","inputs":[{"name":"receiver","type":"address","internalType":"address"},{"name":"srcEid","type":"uint32","internalType":"uint32"}],"outputs":[{"name":"lib","type":"address","internalType":"address"},{"name":"expiry","type":"uint256","internalType":"uint256"}],"stateMutability":"view"},{"type":"function","name":"recoverToken","inputs":[{"name":"_token","type":"address","internalType":"address"},{"name":"_to","type":"address","internalType":"address"},{"name":"_amount","type":"uint256","internalType":"uint256"}],"outputs":[],"stateMutability":"nonpayable"},{"type":"function","name":"registerLibrary","inputs":[{"name":"_lib","type":"address","internalType":"address"}],"outputs":[],"stateMutability":"nonpayable"},{"type":"function","name":"renounceOwnership","inputs":[],"outputs":[],"stateMutability":"nonpayable"},{"type":"function","name":"send","inputs":[{"name":"_params","type":"tuple","internalType":"struct MessagingParams","components":[{"name":"dstEid","type":"uint32","internalType":"uint32"},{"name":"receiver","type":"bytes32","internalType":"bytes32"},{"name":"message","type":"bytes","internalType":"bytes"},{"name":"options","type":"bytes","internalType":"bytes"},{"name":"payInLzToken","type":"bool","internalType":"bool"}]},{"name":"_refundAddress","type":"address","internalType":"address"}],"outputs":[{"name":"","type":"tuple","internalType":"struct MessagingReceipt","components":[{"name":"guid","type":"bytes32","internalType":"bytes32"},{"name":"nonce","type":"uint64","internalType":"uint64"},{"name":"fee","type":"tuple","internalType":"struct MessagingFee","components":[{"name":"nativeFee","type":"uint256","internalType":"uint256"},{"name":"lzTokenFee","type":"uint256","internalType":"uint256"}]}]}],"stateMutability":"payable"},{"type":"function","name":"sendCompose","inputs":[{"name":"_to","type":"address","internalType":"address"},{"name":"_guid","type":"bytes32","internalType":"bytes32"},{"name":"_index","type":"uint16","internalType":"uint16"},{"name":"_message","type":"bytes","internalType":"bytes"}],"outputs":[],"stateMutability":"nonpayable"},{"type":"function","name":"setConfig","inputs":[{"name":"_oapp","type":"address","internalType":"address"},{"name":"_lib","type":"address","internalType":"address"},{"name":"_params","type":"tuple[]","internalType":"struct SetConfigParam[]","components":[{"name":"eid","type":"uint32","internalType":"uint32"},{"name":"configType","type":"uint32","internalType":"uint32"},{"name":"config","type":"bytes","internalType":"bytes"}]}],"outputs":[],"stateMutability":"nonpayable"},{"type":"function","name":"setDefaultReceiveLibrary","inputs":[{"name":"_eid","type":"uint32","internalType":"uint32"},{"name":"_newLib","type":"address","internalType":"address"},{"name":"_gracePeriod","type":"uint256","internalType":"uint256"}],"outputs":[],"stateMutability":"nonpayable"},{"type":"function","name":"setDefaultReceiveLibraryTimeout","inputs":[{"name":"_eid","type":"uint32","internalType":"uint32"},{"name":"_lib","type":"address","internalType":"address"},{"name":"_expiry","type":"uint256","internalType":"uint256"}],"outputs":[],"stateMutability":"nonpayable"},{"type":"function","name":"setDefaultSendLibrary","inputs":[{"name":"_eid","type":"uint32","internalType":"uint32"},{"name":"_newLib","type":"address","internalType":"address"}],"outputs":[],"stateMutability":"nonpayable"},{"type":"function","name":"setDelegate","inputs":[{"name":"_delegate","type":"address","internalType":"address"}],"outputs":[],"stateMutability":"nonpayable"},{"type":"function","name":"setLzToken","inputs":[{"name":"_lzToken","type":"address","internalType":"address"}],"outputs":[],"stateMutability":"nonpayable"},{"type":"function","name":"setReceiveLibrary","inputs":[{"name":"_oapp","type":"address","internalType":"address"},{"name":"_eid","type":"uint32","internalType":"uint32"},{"name":"_newLib","type":"address","internalType":"address"},{"name":"_gracePeriod","type":"uint256","internalType":"uint256"}],"outputs":[],"stateMutability":"nonpayable"},{"type":"function","name":"setReceiveLibraryTimeout","inputs":[{"name":"_oapp","type":"address","internalType":"address"},{"name":"_eid","type":"uint32","internalType":"uint32"},{"name":"_lib","type":"address","internalType":"address"},{"name":"_expiry","type":"uint256","internalType":"uint256"}],"outputs":[],"stateMutability":"nonpayable"},{"type":"function","name":"setSendLibrary","inputs":[{"name":"_oapp","type":"address","internalType":"address"},{"name":"_eid","type":"uint32","internalType":"uint32"},{"name":"_newLib","type":"address","internalType":"address"}],"outputs":[],"stateMutability":"nonpayable"},{"type":"function","name":"skip","inputs":[{"name":"_oapp","type":"address","internalType":"address"},{"name":"_srcEid","type":"uint32","internalType":"uint32"},{"name":"_sender","type":"bytes32","internalType":"bytes32"},{"name":"_nonce","type":"uint64","internalType":"uint64"}],"outputs":[],"stateMutability":"nonpayable"},{"type":"function","name":"transferOwnership","inputs":[{"name":"newOwner","type":"address","internalType":"address"}],"outputs":[],"stateMutability":"nonpayable"},{"type":"function","name":"verifiable","inputs":[{"name":"_origin","type":"tuple","internalType":"struct Origin","components":[{"name":"srcEid","type":"uint32","internalType":"uint32"},{"name":"sender","type":"bytes32","internalType":"bytes32"},{"name":"nonce","type":"uint64","internalType":"uint64"}]},{"name":"_receiver","type":"address","internalType":"address"}],"outputs":[{"name":"","type":"bool","internalType":"bool"}],"stateMutability":"view"},{"type":"function","name":"verify","inputs":[{"name":"_origin","type":"tuple","internalType":"struct Origin","components":[{"name":"srcEid","type":"uint32","internalType":"uint32"},{"name":"sender","type":"bytes32","internalType":"bytes32"},{"name":"nonce","type":"uint64","internalType":"uint64"}]},{"name":"_receiver","type":"address","internalType":"address"},{"name":"_payloadHash","type":"bytes32","internalType":"bytes32"}],"outputs":[],"stateMutability":"nonpayable"},{"type":"event","name":"ComposeDelivered","inputs":[{"name":"from","type":"address","indexed":false,"internalType":"address"},{"name":"to","type":"address","indexed":false,"internalType":"address"},{"name":"guid","type":"bytes32","indexed":false,"internalType":"bytes32"},{"name":"index","type":"uint16","indexed":false,"internalType":"uint16"}],"anonymous":false},{"type":"event","name":"ComposeSent","inputs":[{"name":"from","type":"address","indexed":false,"internalType":"address"},{"name":"to","type":"address","indexed":false,"internalType":"address"},{"name":"guid","type":"bytes32","indexed":false,"internalType":"bytes32"},{"name":"index","type":"uint16","indexed":false,"internalType":"uint16"},{"name":"message","type":"bytes","indexed":false,"internalType":"bytes"}],"anonymous":false},{"type":"event","name":"DefaultReceiveLibrarySet","inputs":[{"name":"eid","type":"uint32","indexed":false,"internalType":"uint32"},{"name":"newLib","type":"address","indexed":false,"internalType":"address"}],"anonymous":false},{"type":"event","name":"DefaultReceiveLibraryTimeoutSet","inputs":[{"name":"eid","type":"uint32","indexed":false,"internalType":"uint32"},{"name":"oldLib","type":"address","indexed":false,"internalType":"address"},{"name":"expiry","type":"uint256","indexed":false,"internalType":"uint256"}],"anonymous":false},{"type":"event","name":"DefaultSendLibrarySet","inputs":[{"name":"eid","type":"uint32","indexed":false,"internalType":"uint32"},{"name":"newLib","type":"address","indexed":false,"internalType":"address"}],"anonymous":false},{"type":"event","name":"DelegateSet","inputs":[{"name":"sender","type":"address","indexed":false,"internalType":"address"},{"name":"delegate","type":"address","indexed":false,"internalType":"address"}],"anonymous":false},{"type":"event","name":"InboundNonceSkipped","inputs":[{"name":"srcEid","type":"uint32","indexed":false,"internalType":"uint32"},{"name":"sender","type":"bytes32","indexed":false,"internalType":"bytes32"},{"name":"receiver","type":"address","indexed":false,"internalType":"address"},{"name":"nonce","type":"uint64","indexed":false,"internalType":"uint64"}],"anonymous":false},{"type":"event","name":"LibraryRegistered","inputs":[{"name":"newLib","type":"address","indexed":false,"internalType":"address"}],"anonymous":false},{"type":"event","name":"LzComposeAlert","inputs":[{"name":"from","type":"address","indexed":true,"internalType":"address"},{"name":"to","type":"address","indexed":true,"internalType":"address"},{"name":"executor","type":"address","indexed":true,"internalType":"address"},{"name":"guid","type":"bytes32","indexed":false,"internalType":"bytes32"},{"name":"index","type":"uint16","indexed":false,"internalType":"uint16"},{"name":"gas","type":"uint256","indexed":false,"internalType":"uint256"},{"name":"value","type":"uint256","indexed":false,"internalType":"uint256"},{"name":"message","type":"bytes","indexed":false,"internalType":"bytes"},{"name":"extraData","type":"bytes","indexed":false,"internalType":"bytes"},{"name":"reason","type":"bytes","indexed":false,"internalType":"bytes"}],"anonymous":false},{"type":"event","name":"LzReceiveAlert","inputs":[{"name":"receiver","type":"address","indexed":true,"internalType":"address"},{"name":"executor","type":"address","indexed":true,"internalType":"address"},{"name":"origin","type":"tuple","indexed":false,"internalType":"struct Origin","components":[{"name":"srcEid","type":"uint32","internalType":"uint32"},{"name":"sender","type":"bytes32","internalType":"bytes32"},{"name":"nonce","type":"uint64","internalType":"uint64"}]},{"name":"guid","type":"bytes32","indexed":false,"internalType":"bytes32"},{"name":"gas","type":"uint256","indexed":false,"internalType":"uint256"},{"name":"value","type":"uint256","indexed":false,"internalType":"uint256"},{"name":"message","type":"bytes","indexed":false,"internalType":"bytes"},{"name":"extraData","type":"bytes","indexed":false,"internalType":"bytes"},{"name":"reason","type":"bytes","indexed":false,"internalType":"bytes"}],"anonymous":false},{"type":"event","name":"LzTokenSet","inputs":[{"name":"token","type":"address","indexed":false,"internalType":"address"}],"anonymous":false},{"type":"event","name":"OwnershipTransferred","inputs":[{"name":"previousOwner","type":"address","indexed":true,"internalType":"address"},{"name":"newOwner","type":"address","indexed":true,"internalType":"address"}],"anonymous":false},{"type":"event","name":"PacketBurnt","inputs":[{"name":"srcEid","type":"uint32","indexed":false,"internalType":"uint32"},{"name":"sender","type":"bytes32","indexed":false,"internalType":"bytes32"},{"name":"receiver","type":"address","indexed":false,"internalType":"address"},{"name":"nonce","type":"uint64","indexed":false,"internalType":"uint64"},{"name":"payloadHash","type":"bytes32","indexed":false,"internalType":"bytes32"}],"anonymous":false},{"type":"event","name":"PacketDelivered","inputs":[{"name":"origin","type":"tuple","indexed":false,"internalType":"struct Origin","components":[{"name":"srcEid","type":"uint32","internalType":"uint32"},{"name":"sender","type":"bytes32","internalType":"bytes32"},{"name":"nonce","type":"uint64","internalType":"uint64"}]},{"name":"receiver","type":"address","indexed":false,"internalType":"address"}],"anonymous":false},{"type":"event","name":"PacketDeliveredHash","inputs":[{"name":"hash","type":"bytes32","indexed":false,"internalType":"bytes32"}],"anonymous":false},{"type":"event","name":"PacketNilified","inputs":[{"name":"srcEid","type":"uint32","indexed":false,"internalType":"uint32"},{"name":"sender","type":"bytes32","indexed":false,"internalType":"bytes32"},{"name":"receiver","type":"address","indexed":false,"internalType":"address"},{"name":"nonce","type":"uint64","indexed":false,"internalType":"uint64"},{"name":"payloadHash","type":"bytes32","indexed":false,"internalType":"bytes32"}],"anonymous":false},{"type":"event","name":"PacketSent","inputs":[{"name":"encodedPayload","type":"bytes","indexed":false,"internalType":"bytes"},{"name":"options","type":"bytes","indexed":false,"internalType":"bytes"},{"name":"sendLibrary","type":"address","indexed":false,"internalType":"address"}],"anonymous":false},{"type":"event","name":"PacketVerified","inputs":[{"name":"origin","type":"tuple","indexed":false,"internalType":"struct Origin","components":[{"name":"srcEid","type":"uint32","internalType":"uint32"},{"name":"sender","type":"bytes32","internalType":"bytes32"},{"name":"nonce","type":"uint64","internalType":"uint64"}]},{"name":"receiver","type":"address","indexed":false,"internalType":"address"},{"name":"payloadHash","type":"bytes32","indexed":false,"internalType":"bytes32"}],"anonymous":false},{"type":"event","name":"ReceiveLibrarySet","inputs":[{"name":"receiver","type":"address","indexed":false,"internalType":"address"},{"name":"eid","type":"uint32","indexed":false,"internalType":"uint32"},{"name":"newLib","type":"address","indexed":false,"internalType":"address"}],"anonymous":false},{"type":"event","name":"ReceiveLibraryTimeoutSet","inputs":[{"name":"receiver","type":"address","indexed":false,"internalType":"address"},{"name":"eid","type":"uint32","indexed":false,"internalType":"uint32"},{"name":"oldLib","type":"address","indexed":false,"internalType":"address"},{"name":"timeout","type":"uint256","indexed":false,"internalType":"uint256"}],"anonymous":false},{"type":"event","name":"SendLibrarySet","inputs":[{"name":"sender","type":"address","indexed":false,"internalType":"address"},{"name":"eid","type":"uint32","indexed":false,"internalType":"uint32"},{"name":"newLib","type":"address","indexed":false,"internalType":"address"}],"anonymous":false},{"type":"error","name":"LZ_AlreadyRegistered","inputs":[]},{"type":"error","name":"LZ_ComposeExists","inputs":[]},{"type":"error","name":"LZ_ComposeNotFound","inputs":[{"name":"expected","type":"bytes32","internalType":"bytes32"},{"name":"actual","type":"bytes32","internalType":"bytes32"}]},{"type":"error","name":"LZ_DefaultReceiveLibUnavailable","inputs":[]},{"type":"error","name":"LZ_DefaultSendLibUnavailable","inputs":[]},{"type":"error","name":"LZ_InsufficientFee","inputs":[{"name":"requiredNative","type":"uint256","internalType":"uint256"},{"name":"suppliedNative","type":"uint256","internalType":"uint256"},{"name":"requiredLzToken","type":"uint256","internalType":"uint256"},{"name":"suppliedLzToken","type":"uint256","internalType":"uint256"}]},{"type":"error","name":"LZ_InvalidExpiry","inputs":[]},{"type":"error","name":"LZ_InvalidNonce","inputs":[{"name":"nonce","type":"uint64","internalType":"uint64"}]},{"type":"error","name":"LZ_InvalidPayloadHash","inputs":[]},{"type":"error","name":"LZ_InvalidReceiveLibrary","inputs":[]},{"type":"error","name":"LZ_LzTokenUnavailable","inputs":[]},{"type":"error","name":"LZ_OnlyNonDefaultLib","inputs":[]},{"type":"error","name":"LZ_OnlyReceiveLib","inputs":[]},{"type":"error","name":"LZ_OnlyRegisteredLib","inputs":[]},{"type":"error","name":"LZ_OnlyRegisteredOrDefaultLib","inputs":[]},{"type":"error","name":"LZ_OnlySendLib","inputs":[]},{"type":"error","name":"LZ_PathNotInitializable","inputs":[]},{"type":"error","name":"LZ_PathNotVerifiable","inputs":[]},{"type":"error","name":"LZ_PayloadHashNotFound","inputs":[{"name":"expected","type":"bytes32","internalType":"bytes32"},{"name":"actual","type":"bytes32","internalType":"bytes32"}]},{"type":"error","name":"LZ_SameValue","inputs":[]},{"type":"error","name":"LZ_SendReentrancy","inputs":[]},{"type":"error","name":"LZ_Unauthorized","inputs":[]},{"type":"error","name":"LZ_UnsupportedEid","inputs":[]},{"type":"error","name":"LZ_UnsupportedInterface","inputs":[]},{"type":"error","name":"LZ_ZeroLzTokenFee","inputs":[]},{"type":"error","name":"Transfer_NativeFailed","inputs":[{"name":"_to","type":"address","internalType":"address"},{"name":"_value","type":"uint256","internalType":"uint256"}]},{"type":"error","name":"Transfer_ToAddressIsZero","inputs":[]}],"bytecode":{"object":"0x60c06040526001600d553480156200001657600080fd5b5060405162006449380380620064498339810160408190526200003991620002d6565b816200004533620000a6565b63ffffffff166080526040516200005c90620002c8565b604051809103906000f08015801562000079573d6000803e3d6000fd5b506001600160a01b031660a08190526200009390620000f6565b6200009e81620000a6565b505062000353565b600080546001600160a01b038381166001600160a01b0319831681178455604051919092169283917f8be0079c531659141344cd1fd0a4f28419497f9722a3daafe3b4186f6b6457e09190a35050565b6200010062000267565b6040516301ffc9a760e01b81526325fc096160e21b60048201526001600160a01b038216906301ffc9a790602401602060405180830381865afa1580156200014c573d6000803e3d6000fd5b505050506040513d601f19601f8201168201806040525081019062000172919062000328565b620001905760405163eb64f35d60e01b815260040160405180910390fd5b6001600160a01b03811660009081526005602052604090205460ff1615620001cb5760405163457517f360e11b815260040160405180910390fd5b6001600160a01b0381166000818152600560209081526040808320805460ff191660019081179091556004805491820181559093527f8a35acfbc15ff81a39ae7d344fd709f28e8600b4aa8c65c6b64bfe7fe36bd19b90920180546001600160a01b0319168417905590519182527f6b374d56679ca9463f27c85c6311e2bb7fde69bf201d3da39d53f10bd9d78af5910160405180910390a150565b6000546001600160a01b03163314620002c65760405162461bcd60e51b815260206004820181905260248201527f4f776e61626c653a2063616c6c6572206973206e6f7420746865206f776e6572604482015260640160405180910390fd5b565b61028f80620061ba83390190565b60008060408385031215620002ea57600080fd5b825163ffffffff81168114620002ff57600080fd5b60208401519092506001600160a01b03811681146200031d57600080fd5b809150509250929050565b6000602082840312156200033b57600080fd5b815180151581146200034c57600080fd5b9392505050565b60805160a051615e1e6200039c60003960006107b101526000818161055f01528181612e85015281816138aa01528181613911015281816140e101526141480152615e1e6000f3fe6080604052600436106103605760003560e01c80639132e5c3116101c6578063c9fc7bcd116100f7578063ddc28c5811610095578063e8964e811161006f578063e8964e8114610bc0578063ef667aa114610be0578063f2fde38b14610c2b578063f64be4c714610c4b57600080fd5b8063ddc28c5814610b5f578063e1758bd814610b8c578063e4fe1d9414610ba057600080fd5b8063d4b4ec8f116100d1578063d4b4ec8f14610aa3578063d70b890214610ac3578063dc706a6214610ae3578063dc93c8a214610b1357600080fd5b8063c9fc7bcd14610a27578063ca5eb5e114610a6e578063cb5026b914610a8e57600080fd5b8063a7229fd911610164578063aafea3121161013e578063aafea312146109a7578063b96a277f146109c7578063c28e0eed146109e7578063c9a54a9914610a0757600080fd5b8063a7229fd914610947578063a825d74714610967578063aafe5e071461098757600080fd5b80639c6d7340116101a05780639c6d73401461089f5780639d7f9775146108e7578063a0dd43fc14610907578063a718531b1461092757600080fd5b80639132e5c31461084a57806391d20fa11461086c5780639535ff301461087f57600080fd5b80635b17bb70116102a05780636f50a8031161023e57806379624ca91161021857806379624ca9146107d35780637cb59012146107ec578063861e1ca51461080c5780638da5cb5b1461082c57600080fd5b80636f50a80314610754578063715018a61461078a578063733180911461079f57600080fd5b80636a14d7151161027a5780636a14d715146106955780636bf73fa3146106b55780636dbd9f90146106d55780636e83f5bb146106f557600080fd5b80635b17bb70146105e45780636750cd4c14610645578063697fe6b61461067557600080fd5b80632baf0be71161030d578063402f8468116102e7578063402f8468146104ee57806340f806831461052d578063416ecebf1461054d578063587cde1e1461059657600080fd5b80632baf0be7146104455780632e80fbf31461048757806335d330b0146104a757600080fd5b80632637a4501161033e5780632637a450146103d85780632a56c1b0146103f85780632b3197b91461041857600080fd5b80630c0c389e1461036557806314f651a91461037a578063183c834f146103b8575b600080fd5b610378610373366004614c27565b610c81565b005b34801561038657600080fd5b5061038f610db6565b6040805163ffffffff90931683526001600160a01b039091166020830152015b60405180910390f35b3480156103c457600080fd5b506103786103d3366004614cd7565b610de8565b6103eb6103e6366004614d22565b611173565b6040516103af9190614d75565b34801561040457600080fd5b50610378610413366004614db8565b6112dc565b34801561042457600080fd5b50610438610433366004614e28565b6113d2565b6040516103af9190614eea565b34801561045157600080fd5b506104797fffffffffffffffffffffffffffffffffffffffffffffffffffffffffffffffff81565b6040519081526020016103af565b34801561049357600080fd5b506103786104a2366004614f15565b6114ed565b3480156104b357600080fd5b506104796104c2366004614f7c565b600c60209081526000948552604080862082529385528385208152918452828420909152825290205481565b3480156104fa57600080fd5b5061050e610509366004614fbe565b6116d0565b604080516001600160a01b0390931683529015156020830152016103af565b34801561053957600080fd5b50610378610548366004614f15565b611767565b34801561055957600080fd5b506105817f000000000000000000000000000000000000000000000000000000000000000081565b60405163ffffffff90911681526020016103af565b3480156105a257600080fd5b506105cc6105b1366004614fe8565b600f602052600090815260409020546001600160a01b031681565b6040516001600160a01b0390911681526020016103af565b3480156105f057600080fd5b5061062c6105ff366004615003565b600160209081526000938452604080852082529284528284209052825290205467ffffffffffffffff1681565b60405167ffffffffffffffff90911681526020016103af565b34801561065157600080fd5b5061066561066036600461503f565b611917565b60405190151581526020016103af565b34801561068157600080fd5b5061037861069036600461505a565b611967565b3480156106a157600080fd5b506103786106b0366004614cd7565b6119dc565b3480156106c157600080fd5b506103786106d0366004615158565b611edc565b3480156106e157600080fd5b506103786106f036600461523c565b611f46565b34801561070157600080fd5b5061073561071036600461503f565b600b60205260009081526040902080546001909101546001600160a01b039091169082565b604080516001600160a01b0390931683526020830191909152016103af565b34801561076057600080fd5b506105cc61076f36600461503f565b600a602052600090815260409020546001600160a01b031681565b34801561079657600080fd5b5061037861201a565b3480156107ab57600080fd5b506105cc7f000000000000000000000000000000000000000000000000000000000000000081565b3480156107df57600080fd5b50600d5460011415610665565b3480156107f857600080fd5b506103786108073660046152cd565b61202e565b34801561081857600080fd5b5061066561082736600461531f565b612133565b34801561083857600080fd5b506000546001600160a01b03166105cc565b34801561085657600080fd5b5061085f6121a0565b6040516103af919061534a565b61037861087a366004615397565b612202565b34801561088b57600080fd5b5061037861089a366004615442565b6123c4565b3480156108ab57600080fd5b5061062c6108ba366004615003565b600360209081526000938452604080852082529284528284209052825290205467ffffffffffffffff1681565b3480156108f357600080fd5b50610665610902366004615442565b6126bd565b34801561091357600080fd5b5061062c610922366004615003565b612797565b34801561093357600080fd5b50610378610942366004615485565b612830565b34801561095357600080fd5b506103786109623660046154b1565b612c35565b34801561097357600080fd5b506103786109823660046154cf565b612c4d565b34801561099357600080fd5b506104796109a2366004615003565b612de5565b3480156109b357600080fd5b506103786109c236600461550c565b612ef4565b3480156109d357600080fd5b506105cc6109e2366004614fbe565b6131b2565b3480156109f357600080fd5b50610378610a02366004614fe8565b61323a565b348015610a1357600080fd5b50610665610a2236600461531f565b6132af565b348015610a3357600080fd5b50610479610a42366004615528565b600260209081526000948552604080862082529385528385208152918452828420909152825290205481565b348015610a7a57600080fd5b50610378610a89366004614fe8565b613315565b348015610a9a57600080fd5b50610479600081565b348015610aaf57600080fd5b50610378610abe366004615485565b61338d565b348015610acf57600080fd5b50610378610ade366004615528565b613691565b348015610aef57600080fd5b50610665610afe366004614fe8565b60056020526000908152604090205460ff1681565b348015610b1f57600080fd5b50610665610b2e366004614fbe565b6001600160a01b03918216600090815260066020908152604080832063ffffffff9490941683529290522054161590565b348015610b6b57600080fd5b50610b7f610b7a366004614d22565b6137b4565b6040516103af919061556a565b348015610b9857600080fd5b5060006105cc565b348015610bac57600080fd5b50600e546105cc906001600160a01b031681565b348015610bcc57600080fd5b50610378610bdb366004614fe8565b613adf565b348015610bec57600080fd5b50610735610bfb366004614fbe565b6008602090815260009283526040808420909152908252902080546001909101546001600160a01b039091169082565b348015610c3757600080fd5b50610378610c46366004614fe8565b613cdd565b348015610c5757600080fd5b506105cc610c6636600461503f565b6009602052600090815260409020546001600160a01b031681565b6000610cd287610c9460208b018b61503f565b60208b0135610ca960608d0160408e01615581565b8a8a8a604051602001610cbe9392919061559c565b604051602081830303815290604052613d87565b9050866001600160a01b03166313137d65348a898989338a8a6040518963ffffffff1660e01b8152600401610d0d9796959493929190615639565b6000604051808303818588803b158015610d2657600080fd5b505af1158015610d3a573d6000803e3d6000fd5b50505050507f3cd5e48f9730b129dc7550f0fcea9c767b7be37837cd10e55eb35f734f4bca048888604051610d70929190615690565b60405180910390a16040518181527fb5dd4735fd6dfa64f900623988dde49dfdae4e61fa2def2cae78b1c1aa1fbe15906020015b60405180910390a15050505050505050565b600080610dc6600d546001141590565b610dd257600080610de0565b610de0600d5460a081901c91565b915091509091565b6001600160a01b038216600090815260056020526040902054829060ff16610e3c576040517f378b1de600000000000000000000000000000000000000000000000000000000815260040160405180910390fd5b826001600160a01b03811615610ef8576000816001600160a01b0316631881d94d6040518163ffffffff1660e01b8152600401602060405180830381865afa158015610e8c573d6000803e3d6000fd5b505050506040513d601f19601f82011682018060405250810190610eb091906156e3565b6002811115610ec157610ec16156b4565b03610ef8576040517f84ead63600000000000000000000000000000000000000000000000000000000815260040160405180910390fd5b83856001600160a01b03821615610fc6576040517f6750cd4c00000000000000000000000000000000000000000000000000000000815263ffffffff821660048201526001600160a01b03831690636750cd4c90602401602060405180830381865afa158015610f6c573d6000803e3d6000fd5b505050506040513d601f19601f82011682018060405250810190610f909190615712565b610fc6576040517f391daaa400000000000000000000000000000000000000000000000000000000815260040160405180910390fd5b610fcf88613fc5565b6000610fdb89896116d0565b9150508015611016576040517f3c075f7500000000000000000000000000000000000000000000000000000000815260040160405180910390fd5b85600003611076576001600160a01b038916600090815260086020908152604080832063ffffffff8c168452909152812080547fffffffffffffffffffffffff00000000000000000000000000000000000000001681556001015561110d565b4386116110af576040517f05df9f2200000000000000000000000000000000000000000000000000000000815260040160405180910390fd5b6001600160a01b03898116600090815260086020908152604080832063ffffffff8d168452909152902080547fffffffffffffffffffffffff0000000000000000000000000000000000000000169189169190911781556001018690555b604080516001600160a01b03808c16825263ffffffff8b166020830152891691810191909152606081018790527f4e0a5bbfa0c11a64effb1ada324b5437a17272e1aed9320398715ef71bb20928906080015b60405180910390a1505050505050505050565b61117b614b6e565b611188602084018461503f565b336001600d54146111c5576040517fee120b0900000000000000000000000000000000000000000000000000000000815260040160405180910390fd5b77ffffffff000000000000000000000000000000000000000060a083811b919091166001600160a01b03831617600d556112049086016080870161572f565b80156112195750600e546001600160a01b0316155b15611250576040517f5af6d2aa00000000000000000000000000000000000000000000000000000000815260040160405180910390fd5b60008061125d338861402f565b91509150600061126a3490565b9050600061128661128160a08b0160808c0161572f565b614313565b9050611297846040015183836143e1565b600e546040850151602001516112b9916001600160a01b03169083868c614448565b6040840151516112cb9083858b614475565b50506001600d555095945050505050565b6112e585613fc5565b60008383836040516020016112fc9392919061559c565b604080517fffffffffffffffffffffffffffffffffffffffffffffffffffffffffffffffe08184030181529190529050600061135a8761133f602089018961503f565b602089013561135460608b0160408c01615581565b86613d87565b90507f3cd5e48f9730b129dc7550f0fcea9c767b7be37837cd10e55eb35f734f4bca04868860405161138d929190615690565b60405180910390a16040518181527fb5dd4735fd6dfa64f900623988dde49dfdae4e61fa2def2cae78b1c1aa1fbe15906020015b60405180910390a150505050505050565b6001600160a01b038316600090815260056020526040902054606090849060ff16611429576040517f378b1de600000000000000000000000000000000000000000000000000000000815260040160405180910390fd5b6040517f9c33abf700000000000000000000000000000000000000000000000000000000815263ffffffff80861660048301526001600160a01b0388811660248401529085166044830152861690639c33abf790606401600060405180830381865afa15801561149d573d6000803e3d6000fd5b505050506040513d6000823e601f3d9081017fffffffffffffffffffffffffffffffffffffffffffffffffffffffffffffffe01682016040526114e39190810190615817565b9695505050505050565b6114f685613fc5565b6001600160a01b038516600090815260026020908152604080832063ffffffff881684528252808320868452825280832067ffffffffffffffff86168452909152902054818114611582576040517f7182306f00000000000000000000000000000000000000000000000000000000815260048101829052602481018390526044015b60405180910390fd5b6001600160a01b038616600090815260016020908152604080832063ffffffff89168452825280832087845290915290205467ffffffffffffffff908116908416118015906115cf575080155b15611612576040517fc09b635000000000000000000000000000000000000000000000000000000000815267ffffffffffffffff84166004820152602401611579565b6001600160a01b038616600081815260026020908152604080832063ffffffff8a16808552908352818420898552835281842067ffffffffffffffff8916808652908452938290207fffffffffffffffffffffffffffffffffffffffffffffffffffffffffffffffff905581519081529182018890528101929092526060820152608081018390527faf0450c392c4f702515a457a362328c8aa21916048ca6d0419e248b30cb552929060a0015b60405180910390a1505050505050565b6001600160a01b03808316600090815260076020908152604080832063ffffffff8616845290915281205490911690816117605763ffffffff83166000908152600a60205260409020546001600160a01b031691508161175c576040517f78e84d0600000000000000000000000000000000000000000000000000000000815260040160405180910390fd5b5060015b9250929050565b61177085613fc5565b6001600160a01b038516600090815260026020908152604080832063ffffffff881684528252808320868452825280832067ffffffffffffffff861684529091529020548181146117f7576040517f7182306f0000000000000000000000000000000000000000000000000000000081526004810182905260248101839052604401611579565b80158061184257506001600160a01b038616600090815260016020908152604080832063ffffffff89168452825280832087845290915290205467ffffffffffffffff908116908416115b15611885576040517fc09b635000000000000000000000000000000000000000000000000000000000815267ffffffffffffffff84166004820152602401611579565b6001600160a01b038616600081815260026020908152604080832063ffffffff8a16808552908352818420898552835281842067ffffffffffffffff89168086529084528285209490945581519081529182018890528101929092526060820152608081018390527f7f68a37a6e69a0de35024a234558f9efe4b33b58657753d21eaaa82d51c3510e9060a0016116c0565b63ffffffff81166000908152600960205260408120546001600160a01b031615801590611961575063ffffffff82166000908152600a60205260409020546001600160a01b031615155b92915050565b336001600160a01b03168b6001600160a01b03168d6001600160a01b03167f8a0b1dce321c5c5fb42349bce46d18087c04140de520917661fb923e44a904b98d8d8d8d8d8d8d8d8d8d6040516119c69a9998979695949392919061584c565b60405180910390a4505050505050505050505050565b6001600160a01b038216600090815260056020526040902054829060ff16158015611a0f57506001600160a01b03811615155b15611a46576040517fa4ff2ec300000000000000000000000000000000000000000000000000000000815260040160405180910390fd5b826001600160a01b03811615611b02576000816001600160a01b0316631881d94d6040518163ffffffff1660e01b8152600401602060405180830381865afa158015611a96573d6000803e3d6000fd5b505050506040513d601f19601f82011682018060405250810190611aba91906156e3565b6002811115611acb57611acb6156b4565b03611b02576040517f84ead63600000000000000000000000000000000000000000000000000000000815260040160405180910390fd5b83856001600160a01b03821615611bd0576040517f6750cd4c00000000000000000000000000000000000000000000000000000000815263ffffffff821660048201526001600160a01b03831690636750cd4c90602401602060405180830381865afa158015611b76573d6000803e3d6000fd5b505050506040513d601f19601f82011682018060405250810190611b9a9190615712565b611bd0576040517f391daaa400000000000000000000000000000000000000000000000000000000815260040160405180910390fd5b611bd988613fc5565b6001600160a01b03808916600090815260076020908152604080832063ffffffff8c16845290915290205481169087168103611c41576040517fd0ecb66b00000000000000000000000000000000000000000000000000000000815260040160405180910390fd5b6001600160a01b03898116600081815260076020908152604080832063ffffffff8e168085529083529281902080547fffffffffffffffffffffffff000000000000000000000000000000000000000016958d1695861790558051938452908301919091528101919091527fcd6f92f5ac6185a5acfa02c92090746cec64d777269cbcd0ed031e396657a1c29060600160405180910390a18515611e31576001600160a01b0381161580611cfc57506001600160a01b038716155b15611d33576040517f3c075f7500000000000000000000000000000000000000000000000000000000815260040160405180910390fd5b60006040518060400160405280836001600160a01b031681526020018843611d5b91906158e4565b90526001600160a01b03808c16600090815260086020908152604080832063ffffffff8f1684528252918290208451815494167fffffffffffffffffffffffff00000000000000000000000000000000000000009094169390931783558301516001909201829055519192507f4e0a5bbfa0c11a64effb1ada324b5437a17272e1aed9320398715ef71bb2092891611e23918d918d9187916001600160a01b03948516815263ffffffff93909316602084015292166040820152606081019190915260800190565b60405180910390a150611ed1565b6001600160a01b03898116600081815260086020908152604080832063ffffffff8e1680855290835281842080547fffffffffffffffffffffffff00000000000000000000000000000000000000001681556001018490558151948552918401919091529284169282019290925260608101919091527f4e0a5bbfa0c11a64effb1ada324b5437a17272e1aed9320398715ef71bb2092890608001611160565b505050505050505050565b336001600160a01b03168a6001600160a01b03167f7edfa10fe10193301ad8a8bea7e968c7bcabcc64981f368e3aeada40ce26ae2c8d8c8c8c8c8c8c8c8c8c604051611f319a999897969594939291906158f7565b60405180910390a35050505050505050505050565b6001600160a01b038316600090815260056020526040902054839060ff16611f9a576040517f378b1de600000000000000000000000000000000000000000000000000000000815260040160405180910390fd5b611fa385613fc5565b6040517f20efd7220000000000000000000000000000000000000000000000000000000081526001600160a01b038516906320efd72290611fec90889087908790600401615956565b600060405180830381600087803b15801561200657600080fd5b505af1158015611ed1573d6000803e3d6000fd5b61202261449f565b61202c6000614513565b565b336000908152600c602090815260408083206001600160a01b03891684528252808320878452825280832061ffff871684529091529020541561209d576040517f1508219400000000000000000000000000000000000000000000000000000000815260040160405180910390fd5b81816040516120ad929190615aa7565b60408051918290038220336000818152600c60209081528482206001600160a01b038c16835281528482208a8352815284822061ffff8a168352905292909220557f3d52ff888d033fd3dd1d8057da59e850c91d91a72c41dfa445b247dfedeb6dc191612124919088908890889088908890615ab7565b60405180910390a15050505050565b6001600160a01b03811660009081526001602090815260408220612199918591859185906121639085018561503f565b63ffffffff1681526020808201929092526040908101600090812089840135825290925290205467ffffffffffffffff1661457b565b9392505050565b606060048054806020026020016040519081016040528092919081815260200182805480156121f857602002820191906000526020600020905b81546001600160a01b031681526001909101906020018083116121da575b5050505050905090565b6001600160a01b038089166000908152600c60209081526040808320938b168352928152828220898352815282822061ffff89168352905281812054915161224d9087908790615aa7565b6040518091039020905080821461229a576040517f35ca595f0000000000000000000000000000000000000000000000000000000081526004810183905260248101829052604401611579565b6001600160a01b03808b166000908152600c60209081526040808320938d168084529382528083208c8452825280832061ffff8c1684529091529081902060019055517fd0a1026000000000000000000000000000000000000000000000000000000000815263d0a10260903490612322908e908d908c908c9033908d908d90600401615b00565b6000604051808303818588803b15801561233b57600080fd5b505af115801561234f573d6000803e3d6000fd5b50505050507e36c98efcf9e6641dfbc9051f66f405253e8e0c2ab4a24dccda15595b7378c88a8a8a8a6040516123b094939291906001600160a01b039485168152929093166020830152604082015261ffff91909116606082015260800190565b60405180910390a150505050505050505050565b6001600160a01b038116600090815260056020526040902054819060ff161580156123f757506001600160a01b03811615155b1561242e576040517fa4ff2ec300000000000000000000000000000000000000000000000000000000815260040160405180910390fd5b816001600160a01b038116156124ea576001816001600160a01b0316631881d94d6040518163ffffffff1660e01b8152600401602060405180830381865afa15801561247e573d6000803e3d6000fd5b505050506040513d601f19601f820116820180604052508101906124a291906156e3565b60028111156124b3576124b36156b4565b036124ea576040517f7a01ede200000000000000000000000000000000000000000000000000000000815260040160405180910390fd5b82846001600160a01b038216156125b8576040517f6750cd4c00000000000000000000000000000000000000000000000000000000815263ffffffff821660048201526001600160a01b03831690636750cd4c90602401602060405180830381865afa15801561255e573d6000803e3d6000fd5b505050506040513d601f19601f820116820180604052508101906125829190615712565b6125b8576040517f391daaa400000000000000000000000000000000000000000000000000000000815260040160405180910390fd5b6125c187613fc5565b6001600160a01b03878116600090815260066020908152604080832063ffffffff8b168452909152902054818716911603612628576040517fd0ecb66b00000000000000000000000000000000000000000000000000000000815260040160405180910390fd5b6001600160a01b03878116600081815260066020908152604080832063ffffffff8c168085529083529281902080547fffffffffffffffffffffffff000000000000000000000000000000000000000016958b1695861790558051938452908301919091528101919091527f4cff966ebee29a156dcb34cf72c1d06231fb1777f6bdf6e8089819232f002b1c906060016113c1565b60008060006126cc86866116d0565b91509150816001600160a01b0316846001600160a01b0316036126f457600192505050612199565b600081612729576001600160a01b038716600090815260086020908152604080832063ffffffff8a168452909152902061273f565b63ffffffff86166000908152600b602052604090205b6040805180820190915281546001600160a01b03908116808352600190930154602083015290925086161480156127795750438160200151115b1561278a5760019350505050612199565b5060009695505050505050565b6001600160a01b038316600090815260016020908152604080832063ffffffff86168452825280832084845290915281205467ffffffffffffffff165b6001600160a01b038516600090815260026020908152604080832063ffffffff881684528252808320868452825280832067ffffffffffffffff6001860116845290915290205415612828576001016127d4565b949350505050565b61283861449f565b6001600160a01b038216600090815260056020526040902054829060ff1661288c576040517f378b1de600000000000000000000000000000000000000000000000000000000815260040160405180910390fd5b826001600160a01b03811615612948576000816001600160a01b0316631881d94d6040518163ffffffff1660e01b8152600401602060405180830381865afa1580156128dc573d6000803e3d6000fd5b505050506040513d601f19601f8201168201806040525081019061290091906156e3565b6002811115612911576129116156b4565b03612948576040517f84ead63600000000000000000000000000000000000000000000000000000000815260040160405180910390fd5b83856001600160a01b03821615612a16576040517f6750cd4c00000000000000000000000000000000000000000000000000000000815263ffffffff821660048201526001600160a01b03831690636750cd4c90602401602060405180830381865afa1580156129bc573d6000803e3d6000fd5b505050506040513d601f19601f820116820180604052508101906129e09190615712565b612a16576040517f391daaa400000000000000000000000000000000000000000000000000000000815260040160405180910390fd5b63ffffffff87166000908152600a60205260409020546001600160a01b039081169087168103612a72576040517fd0ecb66b00000000000000000000000000000000000000000000000000000000815260040160405180910390fd5b63ffffffff88166000818152600a602090815260409182902080547fffffffffffffffffffffffff0000000000000000000000000000000000000000166001600160a01b038c169081179091558251938452908301527fc16891855cffb4a5ac51ac11864a3f3c96ba816cc45fe686c987ae36277de5ec910160405180910390a18515612ba45763ffffffff88166000908152600b6020526040902080547fffffffffffffffffffffffff0000000000000000000000000000000000000000166001600160a01b038316178155612b4987436158e4565b600182018190556040805163ffffffff8c1681526001600160a01b038516602082015280820192909252517f55b28633cdb29709386f555dfc54418592ad475ce7a65a78ac5928af60ffb8f89181900360600190a150612c2b565b63ffffffff88166000818152600b6020908152604080832080547fffffffffffffffffffffffff000000000000000000000000000000000000000016815560010183905580519384526001600160a01b038516918401919091528201527f55b28633cdb29709386f555dfc54418592ad475ce7a65a78ac5928af60ffb8f890606001610da4565b5050505050505050565b612c3d61449f565b612c48838383614616565b505050565b612c6482612c5e602086018661503f565b336126bd565b612c9a576040517f4fa6ecac00000000000000000000000000000000000000000000000000000000815260040160405180910390fd5b6001600160a01b03821660009081526001602090815260408220908290612cc39087018761503f565b63ffffffff1681526020808201929092526040908101600090812087840135825290925290205467ffffffffffffffff169050612d0184848361457b565b612d37576040517f751cb20f00000000000000000000000000000000000000000000000000000000815260040160405180910390fd5b612d42848483614639565b612d78576040517f0177e1ca00000000000000000000000000000000000000000000000000000000815260040160405180910390fd5b612da483612d89602087018761503f565b6020870135612d9e6060890160408a01615581565b866146f9565b7f0d87345f3d1c929caba93e1c3821b54ff3512e12b66aa3cfe54b6bcbc17e59b4848484604051612dd793929190615b54565b60405180910390a150505050565b6001600160a01b038316600090815260036020908152604080832063ffffffff8616845282528083208484529091528120548190612e2e9067ffffffffffffffff166001615b7c565b604080517fffffffffffffffff00000000000000000000000000000000000000000000000060c084901b166020808301919091527fffffffff000000000000000000000000000000000000000000000000000000007f000000000000000000000000000000000000000000000000000000000000000060e090811b821660288501526001600160a01b038b16602c85015289901b16604c830152605080830188905283518084039091018152607090920190925280519101209091505b95945050505050565b612efc61449f565b6001600160a01b038116600090815260056020526040902054819060ff16612f50576040517f378b1de600000000000000000000000000000000000000000000000000000000815260040160405180910390fd5b816001600160a01b0381161561300c576001816001600160a01b0316631881d94d6040518163ffffffff1660e01b8152600401602060405180830381865afa158015612fa0573d6000803e3d6000fd5b505050506040513d601f19601f82011682018060405250810190612fc491906156e3565b6002811115612fd557612fd56156b4565b0361300c576040517f7a01ede200000000000000000000000000000000000000000000000000000000815260040160405180910390fd5b82846001600160a01b038216156130da576040517f6750cd4c00000000000000000000000000000000000000000000000000000000815263ffffffff821660048201526001600160a01b03831690636750cd4c90602401602060405180830381865afa158015613080573d6000803e3d6000fd5b505050506040513d601f19601f820116820180604052508101906130a49190615712565b6130da576040517f391daaa400000000000000000000000000000000000000000000000000000000815260040160405180910390fd5b63ffffffff86166000908152600960205260409020546001600160a01b03808716911603613134576040517fd0ecb66b00000000000000000000000000000000000000000000000000000000815260040160405180910390fd5b63ffffffff861660008181526009602090815260409182902080547fffffffffffffffffffffffff0000000000000000000000000000000000000000166001600160a01b038a169081179091558251938452908301527f16aa0f528038ab41019e95bae5b418a50ba8532c5800e3b7ea2f517d3fa625f591016116c0565b6001600160a01b03808316600090815260066020908152604080832063ffffffff861684529091529020541680611961575063ffffffff81166000908152600960205260409020546001600160a01b031680611961576040517f6c1ccdb500000000000000000000000000000000000000000000000000000000815260040160405180910390fd5b61324261449f565b600e80547fffffffffffffffffffffffff0000000000000000000000000000000000000000166001600160a01b0383169081179091556040519081527fd476ec5ec1ac11cec3714d41e7ea49419471aceb9bd0dff1becfc3e363a62396906020015b60405180910390a150565b6001600160a01b03811660009081526001602090815260408220612199918591859185906132df9085018561503f565b63ffffffff1681526020808201929092526040908101600090812089840135825290925290205467ffffffffffffffff16614639565b336000818152600f602090815260409182902080547fffffffffffffffffffffffff0000000000000000000000000000000000000000166001600160a01b0386169081179091558251938452908301527f6ee10e9ed4d6ce9742703a498707862f4b00f1396a87195eb93267b3d798398191016132a4565b6001600160a01b038216600090815260056020526040902054829060ff166133e1576040517f378b1de600000000000000000000000000000000000000000000000000000000815260040160405180910390fd5b826001600160a01b0381161561349d576000816001600160a01b0316631881d94d6040518163ffffffff1660e01b8152600401602060405180830381865afa158015613431573d6000803e3d6000fd5b505050506040513d601f19601f8201168201806040525081019061345591906156e3565b6002811115613466576134666156b4565b0361349d576040517f84ead63600000000000000000000000000000000000000000000000000000000815260040160405180910390fd5b83856001600160a01b0382161561356b576040517f6750cd4c00000000000000000000000000000000000000000000000000000000815263ffffffff821660048201526001600160a01b03831690636750cd4c90602401602060405180830381865afa158015613511573d6000803e3d6000fd5b505050506040513d601f19601f820116820180604052508101906135359190615712565b61356b576040517f391daaa400000000000000000000000000000000000000000000000000000000815260040160405180910390fd5b61357361449f565b846000036135bf5763ffffffff87166000908152600b6020526040812080547fffffffffffffffffffffffff000000000000000000000000000000000000000016815560010155613645565b4385116135f8576040517f05df9f2200000000000000000000000000000000000000000000000000000000815260040160405180910390fd5b63ffffffff87166000908152600b6020526040902080547fffffffffffffffffffffffff0000000000000000000000000000000000000000166001600160a01b0388161781556001018590555b6040805163ffffffff891681526001600160a01b03881660208201529081018690527f55b28633cdb29709386f555dfc54418592ad475ce7a65a78ac5928af60ffb8f8906060016113c1565b61369a84613fc5565b6136a5848484612797565b6136b0906001615b7c565b67ffffffffffffffff168167ffffffffffffffff1614613708576040517fc09b635000000000000000000000000000000000000000000000000000000000815267ffffffffffffffff82166004820152602401611579565b6001600160a01b038416600081815260016020908152604080832063ffffffff881680855290835281842087855283529281902080547fffffffffffffffffffffffffffffffffffffffffffffffff00000000000000001667ffffffffffffffff8716908117909155815193845291830186905282019290925260608101919091527f28f40053783033ef755556a0c3315379141f51a33aed8334174ffbadd90bde4890608001612dd7565b60408051808201909152600080825260208201526137d860a084016080850161572f565b80156137ed5750600e546001600160a01b0316155b15613824576040517f5af6d2aa00000000000000000000000000000000000000000000000000000000815260040160405180910390fd5b6001600160a01b0382166000908152600360209081526040822090829061384d9087018761503f565b63ffffffff168152602080820192909252604090810160009081208784013582529092529020546138899067ffffffffffffffff166001615b7c565b905060006040518060e001604052808367ffffffffffffffff1681526020017f000000000000000000000000000000000000000000000000000000000000000063ffffffff168152602001856001600160a01b031681526020018660000160208101906138f6919061503f565b63ffffffff168152602001866020013581526020016139f2847f0000000000000000000000000000000000000000000000000000000000000000888a6000016020810190613944919061503f565b8b60200135600085856001600160a01b03861660405160c09390931b7fffffffffffffffff00000000000000000000000000000000000000000000000016602084015260e091821b7fffffffff000000000000000000000000000000000000000000000000000000009081166028850152602c8401919091529085901b16604c8201526050810183905260700160405160208183030381529060405280519060200120905095945050505050565b8152602001613a046040880188615b9d565b8080601f016020809104026020016040519081016040528093929190818152602001838380828437600092018290525093909452509293509150613a519050856109e2602089018961503f565b90506001600160a01b03811663d80e9bd983613a7060608a018a615b9d565b613a8060a08c0160808d0161572f565b6040518563ffffffff1660e01b8152600401613a9f9493929190615c02565b6040805180830381865afa158015613abb573d6000803e3d6000fd5b505050506040513d601f19601f820116820180604052508101906114e39190615cf9565b613ae761449f565b6040517f01ffc9a70000000000000000000000000000000000000000000000000000000081527f97f025840000000000000000000000000000000000000000000000000000000060048201526001600160a01b038216906301ffc9a790602401602060405180830381865afa158015613b64573d6000803e3d6000fd5b505050506040513d601f19601f82011682018060405250810190613b889190615712565b613bbe576040517feb64f35d00000000000000000000000000000000000000000000000000000000815260040160405180910390fd5b6001600160a01b03811660009081526005602052604090205460ff1615613c11576040517f8aea2fe600000000000000000000000000000000000000000000000000000000815260040160405180910390fd5b6001600160a01b038116600081815260056020908152604080832080547fffffffffffffffffffffffffffffffffffffffffffffffffffffffffffffff001660019081179091556004805491820181559093527f8a35acfbc15ff81a39ae7d344fd709f28e8600b4aa8c65c6b64bfe7fe36bd19b90920180547fffffffffffffffffffffffff0000000000000000000000000000000000000000168417905590519182527f6b374d56679ca9463f27c85c6311e2bb7fde69bf201d3da39d53f10bd9d78af591016132a4565b613ce561449f565b6001600160a01b038116613d7b576040517f08c379a000000000000000000000000000000000000000000000000000000000815260206004820152602660248201527f4f776e61626c653a206e6577206f776e657220697320746865207a65726f206160448201527f64647265737300000000000000000000000000000000000000000000000000006064820152608401611579565b613d8481614513565b50565b6001600160a01b038516600090815260016020908152604080832063ffffffff88168452825280832086845290915281205467ffffffffffffffff908116908416811015613ee257600181015b8467ffffffffffffffff168167ffffffffffffffff1611613e7d576001600160a01b038816600090815260026020908152604080832063ffffffff8b1684528252808320898452825280832067ffffffffffffffff85168452909152902054613e75576040517fc09b635000000000000000000000000000000000000000000000000000000000815267ffffffffffffffff82166004820152602401611579565b600101613dd4565b506001600160a01b038716600090815260016020908152604080832063ffffffff8a1684528252808320888452909152902080547fffffffffffffffffffffffffffffffffffffffffffffffff00000000000000001667ffffffffffffffff86161790555b82516020808501919091206001600160a01b038916600090815260028352604080822063ffffffff8b1683528452808220898352845280822067ffffffffffffffff891683529093529190912054909250808314613f76576040517f7182306f0000000000000000000000000000000000000000000000000000000081526004810182905260248101849052604401611579565b50506001600160a01b038616600090815260026020908152604080832063ffffffff891684528252808320878452825280832067ffffffffffffffff8716845290915281205595945050505050565b336001600160a01b03821614801590613ff857506001600160a01b038181166000908152600f6020526040902054163314155b15613d84576040517fc4c5259300000000000000000000000000000000000000000000000000000000815260040160405180910390fd5b614037614b6e565b6000806140c08561404b602087018761503f565b6001600160a01b0391909116600090815260036020908152604080832063ffffffff94909416835292815282822081890135835290522080547fffffffffffffffffffffffffffffffffffffffffffffffff00000000000000008116600167ffffffffffffffff928316019182161790915590565b905060006040518060e001604052808367ffffffffffffffff1681526020017f000000000000000000000000000000000000000000000000000000000000000063ffffffff168152602001876001600160a01b0316815260200186600001602081019061412d919061503f565b63ffffffff1681526020018660200135815260200161417b847f00000000000000000000000000000000000000000000000000000000000000008a8a6000016020810190613944919061503f565b815260200161418d6040880188615b9d565b8080601f0160208091040260200160405190810160405280939291908181526020018383808284376000920182905250939094525092935091506141da9050876109e2602089018961503f565b90506000806001600160a01b038316634389e58f856141fc60608c018c615b9d565b61420c60a08e0160808f0161572f565b6040518563ffffffff1660e01b815260040161422b9493929190615c02565b6000604051808303816000875af115801561424a573d6000803e3d6000fd5b505050506040513d6000823e601f3d9081017fffffffffffffffffffffffffffffffffffffffffffffffffffffffffffffffe01682016040526142909190810190615d15565b90925090507f1ab700d4ced0c005b164c0f789fd09fcbb0156d4c2041b8a3bfbcd961cd1567f816142c460608b018b615b9d565b866040516142d59493929190615d64565b60405180910390a1506040805160608101825260a090940151845267ffffffffffffffff909416602084015292820192909252925090509250929050565b600081156143dc57600e546040517f70a082310000000000000000000000000000000000000000000000000000000081523060048201526001600160a01b03909116906370a0823190602401602060405180830381865afa15801561437c573d6000803e3d6000fd5b505050506040513d601f19601f820116820180604052508101906143a09190615da5565b9050806000036143dc576040517f1775123700000000000000000000000000000000000000000000000000000000815260040160405180910390fd5b919050565b82518210806143f35750808360200151115b15612c4857825160208401516040517f4f3ec0d3000000000000000000000000000000000000000000000000000000008152600481019290925260248201849052604482015260648101829052608401611579565b831561445957614459858386614779565b8284101561446e5761446e8582868603614779565b5050505050565b83156144855761448582856147cd565b8284101561449957614499818585036147cd565b50505050565b6000546001600160a01b0316331461202c576040517f08c379a000000000000000000000000000000000000000000000000000000000815260206004820181905260248201527f4f776e61626c653a2063616c6c6572206973206e6f7420746865206f776e65726044820152606401611579565b600080546001600160a01b038381167fffffffffffffffffffffffff0000000000000000000000000000000000000000831681178455604051919092169283917f8be0079c531659141344cd1fd0a4f28419497f9722a3daafe3b4186f6b6457e09190a35050565b6000808267ffffffffffffffff16118061282857506040517fff7bd03d0000000000000000000000000000000000000000000000000000000081526001600160a01b0384169063ff7bd03d906145d5908790600401615dbe565b602060405180830381865afa1580156145f2573d6000803e3d6000fd5b505050506040513d601f19601f820116820180604052508101906128289190615712565b6001600160a01b03831661462e57612c4882826147cd565b612c48838383614779565b600067ffffffffffffffff82166146566060860160408701615581565b67ffffffffffffffff16118061282857506001600160a01b038316600090815260026020908152604082209082906146909088018861503f565b63ffffffff1663ffffffff16815260200190815260200160002060008660200135815260200190815260200160002060008660400160208101906146d49190615581565b67ffffffffffffffff1681526020810191909152604001600020541415949350505050565b80614730576040517f09beffb600000000000000000000000000000000000000000000000000000000815260040160405180910390fd5b6001600160a01b03909416600090815260026020908152604080832063ffffffff909616835294815284822093825292835283812067ffffffffffffffff909216815291522055565b6001600160a01b0382166147b9576040517f6b7a931000000000000000000000000000000000000000000000000000000000815260040160405180910390fd5b612c486001600160a01b03841683836148ac565b6001600160a01b03821661480d576040517f6b7a931000000000000000000000000000000000000000000000000000000000815260040160405180910390fd5b6000826001600160a01b03168260405160006040518083038185875af1925050503d806000811461485a576040519150601f19603f3d011682016040523d82523d6000602084013e61485f565b606091505b5050905080612c48576040517f465bc8340000000000000000000000000000000000000000000000000000000081526001600160a01b038416600482015260248101839052604401611579565b604080516001600160a01b03848116602483015260448083018590528351808403909101815260649092018352602080830180517bffffffffffffffffffffffffffffffffffffffffffffffffffffffff167fa9059cbb0000000000000000000000000000000000000000000000000000000017905283518085019094528084527f5361666545524332303a206c6f772d6c6576656c2063616c6c206661696c656490840152612c489286929160009161496a918516908490614a17565b905080516000148061498b57508080602001905181019061498b9190615712565b612c48576040517f08c379a000000000000000000000000000000000000000000000000000000000815260206004820152602a60248201527f5361666545524332303a204552433230206f7065726174696f6e20646964206e60448201527f6f742073756363656564000000000000000000000000000000000000000000006064820152608401611579565b6060612828848460008585600080866001600160a01b03168587604051614a3e9190615dcc565b60006040518083038185875af1925050503d8060008114614a7b576040519150601f19603f3d011682016040523d82523d6000602084013e614a80565b606091505b5091509150614a9187838387614a9c565b979650505050505050565b60608315614b25578251600003614b1e576001600160a01b0385163b614b1e576040517f08c379a000000000000000000000000000000000000000000000000000000000815260206004820152601d60248201527f416464726573733a2063616c6c20746f206e6f6e2d636f6e74726163740000006044820152606401611579565b5081612828565b6128288383815115614b3a5781518083602001fd5b806040517f08c379a00000000000000000000000000000000000000000000000000000000081526004016115799190614eea565b604051806060016040528060008019168152602001600067ffffffffffffffff168152602001614bb1604051806040016040528060008152602001600081525090565b905290565b600060608284031215614bc857600080fd5b50919050565b80356001600160a01b03811681146143dc57600080fd5b60008083601f840112614bf757600080fd5b50813567ffffffffffffffff811115614c0f57600080fd5b60208301915083602082850101111561176057600080fd5b600080600080600080600060e0888a031215614c4257600080fd5b614c4c8989614bb6565b9650614c5a60608901614bce565b95506080880135945060a088013567ffffffffffffffff80821115614c7e57600080fd5b614c8a8b838c01614be5565b909650945060c08a0135915080821115614ca357600080fd5b50614cb08a828b01614be5565b989b979a50959850939692959293505050565b803563ffffffff811681146143dc57600080fd5b60008060008060808587031215614ced57600080fd5b614cf685614bce565b9350614d0460208601614cc3565b9250614d1260408601614bce565b9396929550929360600135925050565b60008060408385031215614d3557600080fd5b823567ffffffffffffffff811115614d4c57600080fd5b830160a08186031215614d5e57600080fd5b9150614d6c60208401614bce565b90509250929050565b60006080820190508251825267ffffffffffffffff60208401511660208301526040830151614db1604084018280518252602090810151910152565b5092915050565b600080600080600060c08688031215614dd057600080fd5b614dd986614bce565b9450614de88760208801614bb6565b93506080860135925060a086013567ffffffffffffffff811115614e0b57600080fd5b614e1788828901614be5565b969995985093965092949392505050565b60008060008060808587031215614e3e57600080fd5b614e4785614bce565b9350614e5560208601614bce565b9250614e6360408601614cc3565b9150614e7160608601614cc3565b905092959194509250565b60005b83811015614e97578181015183820152602001614e7f565b50506000910152565b60008151808452614eb8816020860160208601614e7c565b601f017fffffffffffffffffffffffffffffffffffffffffffffffffffffffffffffffe0169290920160200192915050565b6020815260006121996020830184614ea0565b803567ffffffffffffffff811681146143dc57600080fd5b600080600080600060a08688031215614f2d57600080fd5b614f3686614bce565b9450614f4460208701614cc3565b935060408601359250614f5960608701614efd565b949793965091946080013592915050565b803561ffff811681146143dc57600080fd5b60008060008060808587031215614f9257600080fd5b614f9b85614bce565b9350614fa960208601614bce565b925060408501359150614e7160608601614f6a565b60008060408385031215614fd157600080fd5b614fda83614bce565b9150614d6c60208401614cc3565b600060208284031215614ffa57600080fd5b61219982614bce565b60008060006060848603121561501857600080fd5b61502184614bce565b925061502f60208501614cc3565b9150604084013590509250925092565b60006020828403121561505157600080fd5b61219982614cc3565b6000806000806000806000806000806000806101208d8f03121561507d57600080fd5b6150868d614bce565b9b5061509460208e01614bce565b9a5060408d013599506150a960608e01614f6a565b985060808d0135975060a08d0135965067ffffffffffffffff60c08e013511156150d257600080fd5b6150e28e60c08f01358f01614be5565b909650945067ffffffffffffffff60e08e0135111561510057600080fd5b6151108e60e08f01358f01614be5565b909450925067ffffffffffffffff6101008e0135111561512f57600080fd5b6151408e6101008f01358f01614be5565b81935080925050509295989b509295989b509295989b565b60008060008060008060008060008060006101408c8e03121561517a57600080fd5b6151848d8d614bb6565b9a5061519260608d01614bce565b995060808c0135985060a08c0135975060c08c0135965067ffffffffffffffff8060e08e013511156151c357600080fd5b6151d38e60e08f01358f01614be5565b90975095506101008d01358110156151ea57600080fd5b6151fb8e6101008f01358f01614be5565b90955093506101208d013581101561521257600080fd5b506152248d6101208e01358e01614be5565b81935080925050509295989b509295989b9093969950565b6000806000806060858703121561525257600080fd5b61525b85614bce565b935061526960208601614bce565b9250604085013567ffffffffffffffff8082111561528657600080fd5b818701915087601f83011261529a57600080fd5b8135818111156152a957600080fd5b8860208260051b85010111156152be57600080fd5b95989497505060200194505050565b6000806000806000608086880312156152e557600080fd5b6152ee86614bce565b94506020860135935061530360408701614f6a565b9250606086013567ffffffffffffffff811115614e0b57600080fd5b6000806080838503121561533257600080fd5b61533c8484614bb6565b9150614d6c60608401614bce565b6020808252825182820181905260009190848201906040850190845b8181101561538b5783516001600160a01b031683529284019291840191600101615366565b50909695505050505050565b60008060008060008060008060c0898b0312156153b357600080fd5b6153bc89614bce565b97506153ca60208a01614bce565b9650604089013595506153df60608a01614f6a565b9450608089013567ffffffffffffffff808211156153fc57600080fd5b6154088c838d01614be5565b909650945060a08b013591508082111561542157600080fd5b5061542e8b828c01614be5565b999c989b5096995094979396929594505050565b60008060006060848603121561545757600080fd5b61546084614bce565b925061546e60208501614cc3565b915061547c60408501614bce565b90509250925092565b60008060006060848603121561549a57600080fd5b6154a384614cc3565b925061502f60208501614bce565b6000806000606084860312156154c657600080fd5b6154a384614bce565b600080600060a084860312156154e457600080fd5b6154ee8585614bb6565b92506154fc60608501614bce565b9150608084013590509250925092565b6000806040838503121561551f57600080fd5b614d5e83614cc3565b6000806000806080858703121561553e57600080fd5b61554785614bce565b935061555560208601614cc3565b925060408501359150614e7160608601614efd565b815181526020808301519082015260408101611961565b60006020828403121561559357600080fd5b61219982614efd565b838152818360208301376000910160200190815292915050565b63ffffffff6155c482614cc3565b1682526020810135602083015267ffffffffffffffff6155e660408301614efd565b1660408301525050565b8183528181602085013750600060208284010152600060207fffffffffffffffffffffffffffffffffffffffffffffffffffffffffffffffe0601f840116840101905092915050565b61564381896155b6565b86606082015260e06080820152600061566060e0830187896155f0565b6001600160a01b03861660a084015282810360c08401526156828185876155f0565b9a9950505050505050505050565b6080810161569e82856155b6565b6001600160a01b03831660608301529392505050565b7f4e487b7100000000000000000000000000000000000000000000000000000000600052602160045260246000fd5b6000602082840312156156f557600080fd5b81516003811061219957600080fd5b8015158114613d8457600080fd5b60006020828403121561572457600080fd5b815161219981615704565b60006020828403121561574157600080fd5b813561219981615704565b7f4e487b7100000000000000000000000000000000000000000000000000000000600052604160045260246000fd5b600082601f83011261578c57600080fd5b815167ffffffffffffffff808211156157a7576157a761574c565b604051601f83017fffffffffffffffffffffffffffffffffffffffffffffffffffffffffffffffe0908116603f011681019082821181831017156157ed576157ed61574c565b8160405283815286602085880101111561580657600080fd5b6114e3846020830160208901614e7c565b60006020828403121561582957600080fd5b815167ffffffffffffffff81111561584057600080fd5b6128288482850161577b565b8a815261ffff8a16602082015288604082015287606082015260e06080820152600061587c60e08301888a6155f0565b82810360a084015261588f8187896155f0565b905082810360c08401526158a48185876155f0565b9d9c50505050505050505050505050565b7f4e487b7100000000000000000000000000000000000000000000000000000000600052601160045260246000fd5b80820180821115611961576119616158b5565b6000610120615906838e6155b6565b8b60608401528a60808401528960a08401528060c084015261592b818401898b6155f0565b905082810360e08401526159408187896155f0565b90508281036101008401526158a48185876155f0565b600060408083016001600160a01b03871684526020604081860152818683526060925060608601905060608760051b8701018860005b89811015615a97577fffffffffffffffffffffffffffffffffffffffffffffffffffffffffffffffa089840301845281357fffffffffffffffffffffffffffffffffffffffffffffffffffffffffffffffa18c36030181126159ed57600080fd5b8b0163ffffffff806159fe83614cc3565b16855280615a0d888401614cc3565b168786015250878101357fffffffffffffffffffffffffffffffffffffffffffffffffffffffffffffffe1823603018112615a4757600080fd5b01858101903567ffffffffffffffff811115615a6257600080fd5b803603821315615a7157600080fd5b8789860152615a8388860182846155f0565b95870195945050509084019060010161598c565b50909a9950505050505050505050565b8183823760009101908152919050565b60006001600160a01b03808916835280881660208401525085604083015261ffff8516606083015260a06080830152615af460a0830184866155f0565b98975050505050505050565b60006001600160a01b03808a16835288602084015260a06040840152615b2a60a08401888a6155f0565b81871660608501528381036080850152615b458186886155f0565b9b9a5050505050505050505050565b60a08101615b6282866155b6565b6001600160a01b0393909316606082015260800152919050565b67ffffffffffffffff818116838216019080821115614db157614db16158b5565b60008083357fffffffffffffffffffffffffffffffffffffffffffffffffffffffffffffffe1843603018112615bd257600080fd5b83018035915067ffffffffffffffff821115615bed57600080fd5b60200191503681900382131561176057600080fd5b6060815267ffffffffffffffff855116606082015263ffffffff60208601511660808201526001600160a01b0360408601511660a082015260006060860151615c5360c084018263ffffffff169052565b50608086015160e083015260a086015161010083015260c086015160e0610120840152615c84610140840182614ea0565b90508281036020840152615c998186886155f0565b915050612eeb604083018415159052565b600060408284031215615cbc57600080fd5b6040516040810181811067ffffffffffffffff82111715615cdf57615cdf61574c565b604052825181526020928301519281019290925250919050565b600060408284031215615d0b57600080fd5b6121998383615caa565b60008060608385031215615d2857600080fd5b615d328484615caa565b9150604083015167ffffffffffffffff811115615d4e57600080fd5b615d5a8582860161577b565b9150509250929050565b606081526000615d776060830187614ea0565b8281036020840152615d8a8186886155f0565b9150506001600160a01b038316604083015295945050505050565b600060208284031215615db757600080fd5b5051919050565b6060810161196182846155b6565b60008251615dde818460208701614e7c565b919091019291505056fea2646970667358221220a4da2e9123afb1893c8eba5695a1781969b9b8e8bb40a036b2e1056486cd4f8664736f6c63430008160033608060405234801561001057600080fd5b5061026f806100206000396000f3fe608060405234801561001057600080fd5b506004361061004c5760003560e01c806301ffc9a71461007e5780631881d94d146100a657806354fd4d50146100b55780636750cd4c146100dc575b6040517f2657b6c300000000000000000000000000000000000000000000000000000000815260040160405180910390fd5b61009161008c366004610189565b6100f0565b60405190151581526020015b60405180910390f35b600260405161009d91906101d2565b6040805167ffffffffffffffff815260ff602082015260029181019190915260600161009d565b6100916100ea366004610213565b50600190565b60007fffffffff0000000000000000000000000000000000000000000000000000000082167f97f0258400000000000000000000000000000000000000000000000000000000148061018357507f01ffc9a7000000000000000000000000000000000000000000000000000000007fffffffff000000000000000000000000000000000000000000000000000000008316145b92915050565b60006020828403121561019b57600080fd5b81357fffffffff00000000000000000000000000000000000000000000000000000000811681146101cb57600080fd5b9392505050565b602081016003831061020d577f4e487b7100000000000000000000000000000000000000000000000000000000600052602160045260246000fd5b91905290565b60006020828403121561022557600080fd5b813563ffffffff811681146101cb57600080fdfea2646970667358221220fc0bdb244a8db02551ee0d839fddd1ec6ee72ba9d105ceb482169d7b49c16ec564736f6c63430008160033","linkReferences":{}},"methodIdentifiers":{"EMPTY_PAYLOAD_HASH()":"cb5026b9","NIL_PAYLOAD_HASH()":"2baf0be7","blockedLibrary()":"73318091","burn(address,uint32,bytes32,uint64,bytes32)":"40f80683","clear(address,(uint32,bytes32,uint64),bytes32,bytes)":"2a56c1b0","composeQueue(address,address,bytes32,uint16)":"35d330b0","defaultReceiveLibrary(uint32)":"6f50a803","defaultReceiveLibraryTimeout(uint32)":"6e83f5bb","defaultSendLibrary(uint32)":"f64be4c7","delegates(address)":"587cde1e","eid()":"416ecebf","getConfig(address,address,uint32,uint32)":"2b3197b9","getReceiveLibrary(address,uint32)":"402f8468","getRegisteredLibraries()":"9132e5c3","getSendContext()":"14f651a9","getSendLibrary(address,uint32)":"b96a277f","inboundNonce(address,uint32,bytes32)":"a0dd43fc","inboundPayloadHash(address,uint32,bytes32,uint64)":"c9fc7bcd","initializable((uint32,bytes32,uint64),address)":"861e1ca5","isDefaultSendLibrary(address,uint32)":"dc93c8a2","isRegisteredLibrary(address)":"dc706a62","isSendingMessage()":"79624ca9","isSupportedEid(uint32)":"6750cd4c","isValidReceiveLibrary(address,uint32,address)":"9d7f9775","lazyInboundNonce(address,uint32,bytes32)":"5b17bb70","lzCompose(address,address,bytes32,uint16,bytes,bytes)":"91d20fa1","lzComposeAlert(address,address,bytes32,uint16,uint256,uint256,bytes,bytes,bytes)":"697fe6b6","lzReceive((uint32,bytes32,uint64),address,bytes32,bytes,bytes)":"0c0c389e","lzReceiveAlert((uint32,bytes32,uint64),address,bytes32,uint256,uint256,bytes,bytes,bytes)":"6bf73fa3","lzToken()":"e4fe1d94","nativeToken()":"e1758bd8","nextGuid(address,uint32,bytes32)":"aafe5e07","nilify(address,uint32,bytes32,uint64,bytes32)":"2e80fbf3","outboundNonce(address,uint32,bytes32)":"9c6d7340","owner()":"8da5cb5b","quote((uint32,bytes32,bytes,bytes,bool),address)":"ddc28c58","receiveLibraryTimeout(address,uint32)":"ef667aa1","recoverToken(address,address,uint256)":"a7229fd9","registerLibrary(address)":"e8964e81","renounceOwnership()":"715018a6","send((uint32,bytes32,bytes,bytes,bool),address)":"2637a450","sendCompose(address,bytes32,uint16,bytes)":"7cb59012","setConfig(address,address,(uint32,uint32,bytes)[])":"6dbd9f90","setDefaultReceiveLibrary(uint32,address,uint256)":"a718531b","setDefaultReceiveLibraryTimeout(uint32,address,uint256)":"d4b4ec8f","setDefaultSendLibrary(uint32,address)":"aafea312","setDelegate(address)":"ca5eb5e1","setLzToken(address)":"c28e0eed","setReceiveLibrary(address,uint32,address,uint256)":"6a14d715","setReceiveLibraryTimeout(address,uint32,address,uint256)":"183c834f","setSendLibrary(address,uint32,address)":"9535ff30","skip(address,uint32,bytes32,uint64)":"d70b8902","transferOwnership(address)":"f2fde38b","verifiable((uint32,bytes32,uint64),address)":"c9a54a99","verify((uint32,bytes32,uint64),address,bytes32)":"a825d747"},"id":77}