{"abi":[{"type":"constructor","inputs":[{"name":"_name","type":"string","internalType":"string"},{"name":"_symbol","type":"string","internalType":"string"},{"name":"_lzEndpoint","type":"address","internalType":"address"},{"name":"_delegate","type":"address","internalType":"address"}],"stateMutability":"nonpayable"},{"type":"function","name":"SEND","inputs":[],"outputs":[{"name":"","type":"uint16","internalType":"uint16"}],"stateMutability":"view"},{"type":"function","name":"SEND_AND_CALL","inputs":[],"outputs":[{"name":"","type":"uint16","internalType":"uint16"}],"stateMutability":"view"},{"type":"function","name":"allowInitializePath","inputs":[{"name":"origin","type":"tuple","internalType":"struct Origin","components":[{"name":"srcEid","type":"uint32","internalType":"uint32"},{"name":"sender","type":"bytes32","internalType":"bytes32"},{"name":"nonce","type":"uint64","internalType":"uint64"}]}],"outputs":[{"name":"","type":"bool","internalType":"bool"}],"stateMutability":"view"},{"type":"function","name":"allowance","inputs":[{"name":"owner","type":"address","internalType":"address"},{"name":"spender","type":"address","internalType":"address"}],"outputs":[{"name":"","type":"uint256","internalType":"uint256"}],"stateMutability":"view"},{"type":"function","name":"approvalRequired","inputs":[],"outputs":[{"name":"","type":"bool","internalType":"bool"}],"stateMutability":"pure"},{"type":"function","name":"approve","inputs":[{"name":"spender","type":"address","internalType":"address"},{"name":"amount","type":"uint256","internalType":"uint256"}],"outputs":[{"name":"","type":"bool","internalType":"bool"}],"stateMutability":"nonpayable"},{"type":"function","name":"balanceOf","inputs":[{"name":"account","type":"address","internalType":"address"}],"outputs":[{"name":"","type":"uint256","internalType":"uint256"}],"stateMutability":"view"},{"type":"function","name":"buildMsgAndOptions","inputs":[{"name":"_sendParam","type":"tuple","internalType":"struct SendParam","components":[{"name":"dstEid","type":"uint32","internalType":"uint32"},{"name":"to","type":"bytes32","internalType":"bytes32"},{"name":"amountLD","type":"uint256","internalType":"uint256"},{"name":"minAmountLD","type":"uint256","internalType":"uint256"},{"name":"extraOptions","type":"bytes","internalType":"bytes"},{"name":"composeMsg","type":"bytes","internalType":"bytes"},{"name":"oftCmd","type":"bytes","internalType":"bytes"}]},{"name":"_amountToCreditLD","type":"uint256","internalType":"uint256"}],"outputs":[{"name":"message","type":"bytes","internalType":"bytes"},{"name":"options","type":"bytes","internalType":"bytes"}],"stateMutability":"view"},{"type":"function","name":"combineOptions","inputs":[{"name":"_eid","type":"uint32","internalType":"uint32"},{"name":"_msgType","type":"uint16","internalType":"uint16"},{"name":"_extraOptions","type":"bytes","internalType":"bytes"}],"outputs":[{"name":"","type":"bytes","internalType":"bytes"}],"stateMutability":"view"},{"type":"function","name":"composeMsgSender","inputs":[],"outputs":[{"name":"sender","type":"address","internalType":"address"}],"stateMutability":"view"},{"type":"function","name":"credit","inputs":[{"name":"_to","type":"address","internalType":"address"},{"name":"_amountToCreditLD","type":"uint256","internalType":"uint256"},{"name":"_srcEid","type":"uint32","internalType":"uint32"}],"outputs":[{"name":"amountReceivedLD","type":"uint256","internalType":"uint256"}],"stateMutability":"nonpayable"},{"type":"function","name":"debit","inputs":[{"name":"_amountToSendLD","type":"uint256","internalType":"uint256"},{"name":"_minAmountToCreditLD","type":"uint256","internalType":"uint256"},{"name":"_dstEid","type":"uint32","internalType":"uint32"}],"outputs":[{"name":"amountDebitedLD","type":"uint256","internalType":"uint256"},{"name":"amountToCreditLD","type":"uint256","internalType":"uint256"}],"stateMutability":"nonpayable"},{"type":"function","name":"debitView","inputs":[{"name":"_amountToSendLD","type":"uint256","internalType":"uint256"},{"name":"_minAmountToCreditLD","type":"uint256","internalType":"uint256"},{"name":"_dstEid","type":"uint32","internalType":"uint32"}],"outputs":[{"name":"amountDebitedLD","type":"uint256","internalType":"uint256"},{"name":"amountToCreditLD","type":"uint256","internalType":"uint256"}],"stateMutability":"view"},{"type":"function","name":"decimalConversionRate","inputs":[],"outputs":[{"name":"","type":"uint256","internalType":"uint256"}],"stateMutability":"view"},{"type":"function","name":"decimals","inputs":[],"outputs":[{"name":"","type":"uint8","internalType":"uint8"}],"stateMutability":"view"},{"type":"function","name":"decreaseAllowance","inputs":[{"name":"spender","type":"address","internalType":"address"},{"name":"subtractedValue","type":"uint256","internalType":"uint256"}],"outputs":[{"name":"","type":"bool","internalType":"bool"}],"stateMutability":"nonpayable"},{"type":"function","name":"endpoint","inputs":[],"outputs":[{"name":"","type":"address","internalType":"contract ILayerZeroEndpointV2"}],"stateMutability":"view"},{"type":"function","name":"enforcedOptions","inputs":[{"name":"eid","type":"uint32","internalType":"uint32"},{"name":"msgType","type":"uint16","internalType":"uint16"}],"outputs":[{"name":"enforcedOption","type":"bytes","internalType":"bytes"}],"stateMutability":"view"},{"type":"function","name":"increaseAllowance","inputs":[{"name":"spender","type":"address","internalType":"address"},{"name":"addedValue","type":"uint256","internalType":"uint256"}],"outputs":[{"name":"","type":"bool","internalType":"bool"}],"stateMutability":"nonpayable"},{"type":"function","name":"isPeer","inputs":[{"name":"_eid","type":"uint32","internalType":"uint32"},{"name":"_peer","type":"bytes32","internalType":"bytes32"}],"outputs":[{"name":"","type":"bool","internalType":"bool"}],"stateMutability":"view"},{"type":"function","name":"lzReceive","inputs":[{"name":"_origin","type":"tuple","internalType":"struct Origin","components":[{"name":"srcEid","type":"uint32","internalType":"uint32"},{"name":"sender","type":"bytes32","internalType":"bytes32"},{"name":"nonce","type":"uint64","internalType":"uint64"}]},{"name":"_guid","type":"bytes32","internalType":"bytes32"},{"name":"_message","type":"bytes","internalType":"bytes"},{"name":"_executor","type":"address","internalType":"address"},{"name":"_extraData","type":"bytes","internalType":"bytes"}],"outputs":[],"stateMutability":"payable"},{"type":"function","name":"lzReceiveAndRevert","inputs":[{"name":"_packets","type":"tuple[]","internalType":"struct InboundPacket[]","components":[{"name":"origin","type":"tuple","internalType":"struct Origin","components":[{"name":"srcEid","type":"uint32","internalType":"uint32"},{"name":"sender","type":"bytes32","internalType":"bytes32"},{"name":"nonce","type":"uint64","internalType":"uint64"}]},{"name":"dstEid","type":"uint32","internalType":"uint32"},{"name":"receiver","type":"address","internalType":"address"},{"name":"guid","type":"bytes32","internalType":"bytes32"},{"name":"value","type":"uint256","internalType":"uint256"},{"name":"executor","type":"address","internalType":"address"},{"name":"message","type":"bytes","internalType":"bytes"},{"name":"extraData","type":"bytes","internalType":"bytes"}]}],"outputs":[],"stateMutability":"payable"},{"type":"function","name":"lzReceiveSimulate","inputs":[{"name":"_origin","type":"tuple","internalType":"struct Origin","components":[{"name":"srcEid","type":"uint32","internalType":"uint32"},{"name":"sender","type":"bytes32","internalType":"bytes32"},{"name":"nonce","type":"uint64","internalType":"uint64"}]},{"name":"_guid","type":"bytes32","internalType":"bytes32"},{"name":"_message","type":"bytes","internalType":"bytes"},{"name":"_executor","type":"address","internalType":"address"},{"name":"_extraData","type":"bytes","internalType":"bytes"}],"outputs":[],"stateMutability":"payable"},{"type":"function","name":"mint","inputs":[{"name":"_to","type":"address","internalType":"address"},{"name":"_amount","type":"uint256","internalType":"uint256"}],"outputs":[],"stateMutability":"nonpayable"},{"type":"function","name":"msgInspector","inputs":[],"outputs":[{"name":"","type":"address","internalType":"address"}],"stateMutability":"view"},{"type":"function","name":"name","inputs":[],"outputs":[{"name":"","type":"string","internalType":"string"}],"stateMutability":"view"},{"type":"function","name":"nextNonce","inputs":[{"name":"","type":"uint32","internalType":"uint32"},{"name":"","type":"bytes32","internalType":"bytes32"}],"outputs":[{"name":"nonce","type":"uint64","internalType":"uint64"}],"stateMutability":"view"},{"type":"function","name":"oApp","inputs":[],"outputs":[{"name":"","type":"address","internalType":"address"}],"stateMutability":"view"},{"type":"function","name":"oAppVersion","inputs":[],"outputs":[{"name":"senderVersion","type":"uint64","internalType":"uint64"},{"name":"receiverVersion","type":"uint64","internalType":"uint64"}],"stateMutability":"pure"},{"type":"function","name":"oftVersion","inputs":[],"outputs":[{"name":"interfaceId","type":"bytes4","internalType":"bytes4"},{"name":"version","type":"uint64","internalType":"uint64"}],"stateMutability":"pure"},{"type":"function","name":"owner","inputs":[],"outputs":[{"name":"","type":"address","internalType":"address"}],"stateMutability":"view"},{"type":"function","name":"peers","inputs":[{"name":"eid","type":"uint32","internalType":"uint32"}],"outputs":[{"name":"peer","type":"bytes32","internalType":"bytes32"}],"stateMutability":"view"},{"type":"function","name":"preCrime","inputs":[],"outputs":[{"name":"","type":"address","internalType":"address"}],"stateMutability":"view"},{"type":"function","name":"quoteOFT","inputs":[{"name":"_sendParam","type":"tuple","internalType":"struct SendParam","components":[{"name":"dstEid","type":"uint32","internalType":"uint32"},{"name":"to","type":"bytes32","internalType":"bytes32"},{"name":"amountLD","type":"uint256","internalType":"uint256"},{"name":"minAmountLD","type":"uint256","internalType":"uint256"},{"name":"extraOptions","type":"bytes","internalType":"bytes"},{"name":"composeMsg","type":"bytes","internalType":"bytes"},{"name":"oftCmd","type":"bytes","internalType":"bytes"}]}],"outputs":[{"name":"oftLimit","type":"tuple","internalType":"struct OFTLimit","components":[{"name":"minAmountLD","type":"uint256","internalType":"uint256"},{"name":"maxAmountLD","type":"uint256","internalType":"uint256"}]},{"name":"oftFeeDetails","type":"tuple[]","internalType":"struct OFTFeeDetail[]","components":[{"name":"feeAmountLD","type":"int256","internalType":"int256"},{"name":"description","type":"string","internalType":"string"}]},{"name":"oftReceipt","type":"tuple","internalType":"struct OFTReceipt","components":[{"name":"amountSentLD","type":"uint256","internalType":"uint256"},{"name":"amountReceivedLD","type":"uint256","internalType":"uint256"}]}],"stateMutability":"view"},{"type":"function","name":"quoteSend","inputs":[{"name":"_sendParam","type":"tuple","internalType":"struct SendParam","components":[{"name":"dstEid","type":"uint32","internalType":"uint32"},{"name":"to","type":"bytes32","internalType":"bytes32"},{"name":"amountLD","type":"uint256","internalType":"uint256"},{"name":"minAmountLD","type":"uint256","internalType":"uint256"},{"name":"extraOptions","type":"bytes","internalType":"bytes"},{"name":"composeMsg","type":"bytes","internalType":"bytes"},{"name":"oftCmd","type":"bytes","internalType":"bytes"}]},{"name":"_payInLzToken","type":"bool","internalType":"bool"}],"outputs":[{"name":"msgFee","type":"tuple","internalType":"struct MessagingFee","components":[{"name":"nativeFee","type":"uint256","internalType":"uint256"},{"name":"lzTokenFee","type":"uint256","internalType":"uint256"}]}],"stateMutability":"view"},{"type":"function","name":"removeDust","inputs":[{"name":"_amountLD","type":"uint256","internalType":"uint256"}],"outputs":[{"name":"amountLD","type":"uint256","internalType":"uint256"}],"stateMutability":"view"},{"type":"function","name":"renounceOwnership","inputs":[],"outputs":[],"stateMutability":"nonpayable"},{"type":"function","name":"send","inputs":[{"name":"_sendParam","type":"tuple","internalType":"struct SendParam","components":[{"name":"dstEid","type":"uint32","internalType":"uint32"},{"name":"to","type":"bytes32","internalType":"bytes32"},{"name":"amountLD","type":"uint256","internalType":"uint256"},{"name":"minAmountLD","type":"uint256","internalType":"uint256"},{"name":"extraOptions","type":"bytes","internalType":"bytes"},{"name":"composeMsg","type":"bytes","internalType":"bytes"},{"name":"oftCmd","type":"bytes","internalType":"bytes"}]},{"name":"_fee","type":"tuple","internalType":"struct MessagingFee","components":[{"name":"nativeFee","type":"uint256","internalType":"uint256"},{"name":"lzTokenFee","type":"uint256","internalType":"uint256"}]},{"name":"_refundAddress","type":"address","internalType":"address"}],"outputs":[{"name":"msgReceipt","type":"tuple","internalType":"struct MessagingReceipt","components":[{"name":"guid","type":"bytes32","internalType":"bytes32"},{"name":"nonce","type":"uint64","internalType":"uint64"},{"name":"fee","type":"tuple","internalType":"struct MessagingFee","components":[{"name":"nativeFee","type":"uint256","internalType":"uint256"},{"name":"lzTokenFee","type":"uint256","internalType":"uint256"}]}]},{"name":"oftReceipt","type":"tuple","internalType":"struct OFTReceipt","components":[{"name":"amountSentLD","type":"uint256","internalType":"uint256"},{"name":"amountReceivedLD","type":"uint256","internalType":"uint256"}]}],"stateMutability":"payable"},{"type":"function","name":"setDelegate","inputs":[{"name":"_delegate","type":"address","internalType":"address"}],"outputs":[],"stateMutability":"nonpayable"},{"type":"function","name":"setEnforcedOptions","inputs":[{"name":"_enforcedOptions","type":"tuple[]","internalType":"struct EnforcedOptionParam[]","components":[{"name":"eid","type":"uint32","internalType":"uint32"},{"name":"msgType","type":"uint16","internalType":"uint16"},{"name":"options","type":"bytes","internalType":"bytes"}]}],"outputs":[],"stateMutability":"nonpayable"},{"type":"function","name":"setMsgInspector","inputs":[{"name":"_msgInspector","type":"address","internalType":"address"}],"outputs":[],"stateMutability":"nonpayable"},{"type":"function","name":"setPeer","inputs":[{"name":"_eid","type":"uint32","internalType":"uint32"},{"name":"_peer","type":"bytes32","internalType":"bytes32"}],"outputs":[],"stateMutability":"nonpayable"},{"type":"function","name":"setPreCrime","inputs":[{"name":"_preCrime","type":"address","internalType":"address"}],"outputs":[],"stateMutability":"nonpayable"},{"type":"function","name":"sharedDecimals","inputs":[],"outputs":[{"name":"","type":"uint8","internalType":"uint8"}],"stateMutability":"pure"},{"type":"function","name":"symbol","inputs":[],"outputs":[{"name":"","type":"string","internalType":"string"}],"stateMutability":"view"},{"type":"function","name":"toLD","inputs":[{"name":"_amountSD","type":"uint64","internalType":"uint64"}],"outputs":[{"name":"amountLD","type":"uint256","internalType":"uint256"}],"stateMutability":"view"},{"type":"function","name":"toSD","inputs":[{"name":"_amountLD","type":"uint256","internalType":"uint256"}],"outputs":[{"name":"amountSD","type":"uint64","internalType":"uint64"}],"stateMutability":"view"},{"type":"function","name":"token","inputs":[],"outputs":[{"name":"","type":"address","internalType":"address"}],"stateMutability":"view"},{"type":"function","name":"totalSupply","inputs":[],"outputs":[{"name":"","type":"uint256","internalType":"uint256"}],"stateMutability":"view"},{"type":"function","name":"transfer","inputs":[{"name":"to","type":"address","internalType":"address"},{"name":"amount","type":"uint256","internalType":"uint256"}],"outputs":[{"name":"","type":"bool","internalType":"bool"}],"stateMutability":"nonpayable"},{"type":"function","name":"transferFrom","inputs":[{"name":"from","type":"address","internalType":"address"},{"name":"to","type":"address","internalType":"address"},{"name":"amount","type":"uint256","internalType":"uint256"}],"outputs":[{"name":"","type":"bool","internalType":"bool"}],"stateMutability":"nonpayable"},{"type":"function","name":"transferOwnership","inputs":[{"name":"newOwner","type":"address","internalType":"address"}],"outputs":[],"stateMutability":"nonpayable"},{"type":"event","name":"Approval","inputs":[{"name":"owner","type":"address","indexed":true,"internalType":"address"},{"name":"spender","type":"address","indexed":true,"internalType":"address"},{"name":"value","type":"uint256","indexed":false,"internalType":"uint256"}],"anonymous":false},{"type":"event","name":"EnforcedOptionSet","inputs":[{"name":"_enforcedOptions","type":"tuple[]","indexed":false,"internalType":"struct EnforcedOptionParam[]","components":[{"name":"eid","type":"uint32","internalType":"uint32"},{"name":"msgType","type":"uint16","internalType":"uint16"},{"name":"options","type":"bytes","internalType":"bytes"}]}],"anonymous":false},{"type":"event","name":"MsgInspectorSet","inputs":[{"name":"inspector","type":"address","indexed":false,"internalType":"address"}],"anonymous":false},{"type":"event","name":"OFTReceived","inputs":[{"name":"guid","type":"bytes32","indexed":true,"internalType":"bytes32"},{"name":"srcEid","type":"uint32","indexed":false,"internalType":"uint32"},{"name":"toAddress","type":"address","indexed":true,"internalType":"address"},{"name":"amountReceivedLD","type":"uint256","indexed":false,"internalType":"uint256"}],"anonymous":false},{"type":"event","name":"OFTSent","inputs":[{"name":"guid","type":"bytes32","indexed":true,"internalType":"bytes32"},{"name":"dstEid","type":"uint32","indexed":false,"internalType":"uint32"},{"name":"fromAddress","type":"address","indexed":true,"internalType":"address"},{"name":"amountSentLD","type":"uint256","indexed":false,"internalType":"uint256"},{"name":"amountReceivedLD","type":"uint256","indexed":false,"internalType":"uint256"}],"anonymous":false},{"type":"event","name":"OwnershipTransferred","inputs":[{"name":"previousOwner","type":"address","indexed":true,"internalType":"address"},{"name":"newOwner","type":"address","indexed":true,"internalType":"address"}],"anonymous":false},{"type":"event","name":"PeerSet","inputs":[{"name":"eid","type":"uint32","indexed":false,"internalType":"uint32"},{"name":"peer","type":"bytes32","indexed":false,"internalType":"bytes32"}],"anonymous":false},{"type":"event","name":"PreCrimeSet","inputs":[{"name":"preCrimeAddress","type":"address","indexed":false,"internalType":"address"}],"anonymous":false},{"type":"event","name":"Transfer","inputs":[{"name":"from","type":"address","indexed":true,"internalType":"address"},{"name":"to","type":"address","indexed":true,"internalType":"address"},{"name":"value","type":"uint256","indexed":false,"internalType":"uint256"}],"anonymous":false},{"type":"error","name":"InvalidDelegate","inputs":[]},{"type":"error","name":"InvalidEndpointCall","inputs":[]},{"type":"error","name":"InvalidLocalDecimals","inputs":[]},{"type":"error","name":"InvalidOptions","inputs":[{"name":"options","type":"bytes","internalType":"bytes"}]},{"type":"error","name":"LzTokenUnavailable","inputs":[]},{"type":"error","name":"NoPeer","inputs":[{"name":"eid","type":"uint32","internalType":"uint32"}]},{"type":"error","name":"NotEnoughNative","inputs":[{"name":"msgValue","type":"uint256","internalType":"uint256"}]},{"type":"error","name":"OnlyEndpoint","inputs":[{"name":"addr","type":"address","internalType":"address"}]},{"type":"error","name":"OnlyPeer","inputs":[{"name":"eid","type":"uint32","internalType":"uint32"},{"name":"sender","type":"bytes32","internalType":"bytes32"}]},{"type":"error","name":"OnlySelf","inputs":[]},{"type":"error","name":"SimulationResult","inputs":[{"name":"result","type":"bytes","internalType":"bytes"}]},{"type":"error","name":"SlippageExceeded","inputs":[{"name":"amountLD","type":"uint256","internalType":"uint256"},{"name":"minAmountLD","type":"uint256","internalType":"uint256"}]}],"bytecode":{"object":"0x60c06040523480156200001157600080fd5b50604051620048343803806200483483398101604081905262000034916200039f565b83838383838360128484818181816200004d3362000198565b6001600160a01b0380831660805281166200007b57604051632d618d8160e21b815260040160405180910390fd5b60805160405163ca5eb5e160e01b81526001600160a01b0383811660048301529091169063ca5eb5e190602401600060405180830381600087803b158015620000c357600080fd5b505af1158015620000d8573d6000803e3d6000fd5b5050505050505050620000f0620001e860201b60201c565b60ff168360ff16101562000117576040516301e9714b60e41b815260040160405180910390fd5b6200012460068462000444565b6200013190600a62000563565b60a052506008915062000147905083826200060b565b5060096200015682826200060b565b505050505050506200018a620001716200019460201b60201c565b6200018060126103e8620006d7565b61ffff16620001ed565b5050505062000716565b3390565b600080546001600160a01b038381166001600160a01b0319831681178455604051919092169283917f8be0079c531659141344cd1fd0a4f28419497f9722a3daafe3b4186f6b6457e09190a35050565b600690565b6001600160a01b038216620002485760405162461bcd60e51b815260206004820152601f60248201527f45524332303a206d696e7420746f20746865207a65726f206164647265737300604482015260640160405180910390fd5b80600760008282546200025c919062000700565b90915550506001600160a01b0382166000818152600560209081526040808320805486019055518481527fddf252ad1be2c89b69c2b068fc378daa952ba7f163c4a11628f55a4df523b3ef910160405180910390a35050565b505050565b634e487b7160e01b600052604160045260246000fd5b600082601f830112620002e257600080fd5b81516001600160401b0380821115620002ff57620002ff620002ba565b604051601f8301601f19908116603f011681019082821181831017156200032a576200032a620002ba565b81604052838152602092508660208588010111156200034857600080fd5b600091505b838210156200036c57858201830151818301840152908201906200034d565b6000602085830101528094505050505092915050565b80516001600160a01b03811681146200039a57600080fd5b919050565b60008060008060808587031215620003b657600080fd5b84516001600160401b0380821115620003ce57600080fd5b620003dc88838901620002d0565b95506020870151915080821115620003f357600080fd5b506200040287828801620002d0565b935050620004136040860162000382565b9150620004236060860162000382565b905092959194509250565b634e487b7160e01b600052601160045260246000fd5b60ff82811682821603908111156200046057620004606200042e565b92915050565b600181815b80851115620004a75781600019048211156200048b576200048b6200042e565b808516156200049957918102915b93841c93908002906200046b565b509250929050565b600082620004c05750600162000460565b81620004cf5750600062000460565b8160018114620004e85760028114620004f35762000513565b600191505062000460565b60ff8411156200050757620005076200042e565b50506001821b62000460565b5060208310610133831016604e8410600b841016171562000538575081810a62000460565b62000544838362000466565b80600019048211156200055b576200055b6200042e565b029392505050565b60006200057460ff841683620004af565b9392505050565b600181811c908216806200059057607f821691505b602082108103620005b157634e487b7160e01b600052602260045260246000fd5b50919050565b601f821115620002b5576000816000526020600020601f850160051c81016020861015620005e25750805b601f850160051c820191505b818110156200060357828155600101620005ee565b505050505050565b81516001600160401b03811115620006275762000627620002ba565b6200063f816200063884546200057b565b84620005b7565b602080601f8311600181146200067757600084156200065e5750858301515b600019600386901b1c1916600185901b17855562000603565b600085815260208120601f198616915b82811015620006a85788860151825594840194600190910190840162000687565b5085821015620006c75787850151600019600388901b60f8161c191681555b5050505050600190811b01905550565b61ffff818116838216028082169190828114620006f857620006f86200042e565b505092915050565b808201808211156200046057620004606200042e565b60805160a0516140b2620007826000396000818161081d01528181611c8c015281816124fe01526125910152600081816106fa01528181610c4b0152818161170901528181611dc101528181612284015281816125f701528181612a310152612b1b01526140b26000f3fe60806040526004361061033f5760003560e01c8063715018a6116101b0578063bb0b6a53116100ec578063d045a0dc11610095578063f01630231161006f578063f016302314610a47578063f2fde38b14610a67578063fc0c546a14610649578063ff7bd03d14610a8757600080fd5b8063d045a0dc146109c1578063d4243885146109d4578063dd62ed3e146109f457600080fd5b8063c0779988116100c6578063c077998814610960578063c7c7f5b314610980578063ca5eb5e1146109a157600080fd5b8063bb0b6a5314610900578063bc70b3541461092d578063bd815db01461094d57600080fd5b80639f68b96411610159578063b3a5abeb11610133578063b3a5abeb14610893578063b731ea0a146108b3578063b92d0eff14610649578063b98bd070146108e057600080fd5b80639f68b9641461083f578063a457c2d714610853578063a9059cbb1461087357600080fd5b80638da5cb5b1161018a5780638da5cb5b146107cb57806395d89b41146107f6578063963efcaa1461080b57600080fd5b8063715018a61461077f5780637d25a05e14610794578063857749b0146107b757600080fd5b8063313ce5671161027f57806352ae2879116102285780635a0dfe4d116102025780635a0dfe4d146106b15780635e280f11146106e85780636fc1b31e1461071c57806370a082311461073c57600080fd5b806352ae28791461064957806354f524141461065c5780635535d4611461069157600080fd5b80633b6f743b116102595780633b6f743b146105dc57806340c10f19146106095780634dba701b1461062957600080fd5b8063313ce5671461057a5780633400288b1461059c57806339509351146105bc57600080fd5b806313137d65116102ec57806317442b70116102c657806317442b701461050557806318160ddd146105265780631f5e13341461054557806323b872dd1461055a57600080fd5b806313137d6514610487578063134d4f251461049c578063156a0d0f146104c457600080fd5b80630d35b4151161031d5780630d35b415146103cd5780630e78842c146103fc578063111ecdad1461043557600080fd5b8063056d62de1461034457806306fdde031461037b578063095ea7b31461039d575b600080fd5b34801561035057600080fd5b5061036461035f366004612e77565b610aa7565b604051610372929190612f2a565b60405180910390f35b34801561038757600080fd5b50610390610ac0565b6040516103729190612f4f565b3480156103a957600080fd5b506103bd6103b8366004612f84565b610b52565b6040519015158152602001610372565b3480156103d957600080fd5b506103ed6103e8366004612fb0565b610b6c565b60405161037293929190612fe5565b34801561040857600080fd5b5061041c61041736600461309c565b610c3e565b60405167ffffffffffffffff9091168152602001610372565b34801561044157600080fd5b506004546104629073ffffffffffffffffffffffffffffffffffffffff1681565b60405173ffffffffffffffffffffffffffffffffffffffff9091168152602001610372565b61049a610495366004613109565b610c49565b005b3480156104a857600080fd5b506104b1600281565b60405161ffff9091168152602001610372565b3480156104d057600080fd5b50604080517f02e49c2c0000000000000000000000000000000000000000000000000000000081526001602082015201610372565b34801561051157600080fd5b50604080516001808252602082015201610372565b34801561053257600080fd5b506007545b604051908152602001610372565b34801561055157600080fd5b506104b1600181565b34801561056657600080fd5b506103bd6105753660046131a9565b610d48565b34801561058657600080fd5b5060125b60405160ff9091168152602001610372565b3480156105a857600080fd5b5061049a6105b7366004613203565b610d6e565b3480156105c857600080fd5b506103bd6105d7366004612f84565b610dcc565b3480156105e857600080fd5b506105fc6105f736600461322d565b610e18565b604051610372919061327f565b34801561061557600080fd5b5061049a610624366004612f84565b610e7f565b34801561063557600080fd5b50610537610644366004613296565b610e8d565b34801561065557600080fd5b5030610462565b34801561066857600080fd5b5061067c6106773660046132d4565b610ea2565b60408051928352602083019190915201610372565b34801561069d57600080fd5b506103906106ac366004613312565b610ebd565b3480156106bd57600080fd5b506103bd6106cc366004613203565b63ffffffff919091166000908152600160205260409020541490565b3480156106f457600080fd5b506104627f000000000000000000000000000000000000000000000000000000000000000081565b34801561072857600080fd5b5061049a610737366004613345565b610f62565b34801561074857600080fd5b50610537610757366004613345565b73ffffffffffffffffffffffffffffffffffffffff1660009081526005602052604090205490565b34801561078b57600080fd5b5061049a610fe4565b3480156107a057600080fd5b5061041c6107af366004613203565b600092915050565b3480156107c357600080fd5b50600661058a565b3480156107d757600080fd5b5060005473ffffffffffffffffffffffffffffffffffffffff16610462565b34801561080257600080fd5b50610390610ff8565b34801561081757600080fd5b506105377f000000000000000000000000000000000000000000000000000000000000000081565b34801561084b57600080fd5b5060006103bd565b34801561085f57600080fd5b506103bd61086e366004612f84565b611007565b34801561087f57600080fd5b506103bd61088e366004612f84565b6110e3565b34801561089f57600080fd5b506105376108ae366004613378565b6110f1565b3480156108bf57600080fd5b506002546104629073ffffffffffffffffffffffffffffffffffffffff1681565b3480156108ec57600080fd5b5061049a6108fb3660046133da565b6110fc565b34801561090c57600080fd5b5061053761091b36600461341c565b60016020526000908152604090205481565b34801561093957600080fd5b50610390610948366004613437565b61125d565b61049a61095b3660046133da565b6113e9565b34801561096c57600080fd5b5061053761097b36600461309c565b6115b7565b61099361098e366004613498565b6115c2565b604051610372929190613524565b3480156109ad57600080fd5b5061049a6109bc366004613345565b6116bc565b61049a6109cf366004613109565b611768565b3480156109e057600080fd5b5061049a6109ef366004613345565b6117b0565b348015610a0057600080fd5b50610537610a0f366004613577565b73ffffffffffffffffffffffffffffffffffffffff918216600090815260066020908152604080832093909416825291909152205490565b348015610a5357600080fd5b5061067c610a623660046132d4565b61182b565b348015610a7357600080fd5b5061049a610a82366004613345565b611839565b348015610a9357600080fd5b506103bd610aa23660046135a5565b6118f0565b606080610ab48484611926565b915091505b9250929050565b606060088054610acf906135c1565b80601f0160208091040260200160405190810160405280929190818152602001828054610afb906135c1565b8015610b485780601f10610b1d57610100808354040283529160200191610b48565b820191906000526020600020905b815481529060010190602001808311610b2b57829003601f168201915b5050505050905090565b600033610b60818585611a7d565b60019150505b92915050565b60408051808201909152600080825260208201526060610b9f604051806040016040528060008152602001600081525090565b604080518082018252600080825267ffffffffffffffff602080840182905284518381529081019094529195509182610bfb565b604080518082019091526000815260606020820152815260200190600190039081610bd35790505b509350600080610c20604089013560608a0135610c1b60208c018c61341c565b611c30565b60408051808201909152918252602082015296989597505050505050565b6000610b6682611c85565b7f000000000000000000000000000000000000000000000000000000000000000073ffffffffffffffffffffffffffffffffffffffff163314610cbf576040517f91ac5e4f0000000000000000000000000000000000000000000000000000000081523360048201526024015b60405180910390fd5b60208701803590610cd990610cd4908a61341c565b611cb1565b14610d3057610ceb602088018861341c565b6040517fc26bebcc00000000000000000000000000000000000000000000000000000000815263ffffffff909116600482015260208801356024820152604401610cb6565b610d3f87878787878787611d06565b50505050505050565b600033610d56858285611ea0565b610d61858585611f77565b60019150505b9392505050565b610d766121ed565b63ffffffff8216600081815260016020908152604091829020849055815192835282018390527f238399d427b947898edb290f5ff0f9109849b1c3ba196a42e35f00c50a54b98b91015b60405180910390a15050565b33600081815260066020908152604080832073ffffffffffffffffffffffffffffffffffffffff87168452909152812054909190610b609082908690610e1390879061366c565b611a7d565b60408051808201909152600080825260208201526000610e4860408501356060860135610c1b602088018861341c565b915050600080610e588684611926565b9092509050610e75610e6d602088018861341c565b83838861226e565b9695505050505050565b610e89828261235c565b5050565b6000610e9a848484612451565b949350505050565b600080610eb0858585612465565b915091505b935093915050565b600360209081526000928352604080842090915290825290208054610ee1906135c1565b80601f0160208091040260200160405190810160405280929190818152602001828054610f0d906135c1565b8015610f5a5780601f10610f2f57610100808354040283529160200191610f5a565b820191906000526020600020905b815481529060010190602001808311610f3d57829003601f168201915b505050505081565b610f6a6121ed565b600480547fffffffffffffffffffffffff00000000000000000000000000000000000000001673ffffffffffffffffffffffffffffffffffffffff83169081179091556040519081527ff0be4f1e87349231d80c36b33f9e8639658eeaf474014dee15a3e6a4d4414197906020015b60405180910390a150565b610fec6121ed565b610ff66000612482565b565b606060098054610acf906135c1565b33600081815260066020908152604080832073ffffffffffffffffffffffffffffffffffffffff87168452909152812054909190838110156110cb576040517f08c379a000000000000000000000000000000000000000000000000000000000815260206004820152602560248201527f45524332303a2064656372656173656420616c6c6f77616e63652062656c6f7760448201527f207a65726f0000000000000000000000000000000000000000000000000000006064820152608401610cb6565b6110d88286868403611a7d565b506001949350505050565b600033610b60818585611f77565b6000610b66826124f7565b6111046121ed565b60005b8181101561122b576111498383838181106111245761112461367f565b905060200281019061113691906136ae565b6111449060408101906136ec565b61252d565b82828281811061115b5761115b61367f565b905060200281019061116d91906136ae565b61117b9060408101906136ec565b600360008686868181106111915761119161367f565b90506020028101906111a391906136ae565b6111b190602081019061341c565b63ffffffff1663ffffffff16815260200190815260200160002060008686868181106111df576111df61367f565b90506020028101906111f191906136ae565b611202906040810190602001613751565b61ffff1681526020810191909152604001600020916112229190836137bc565b50600101611107565b507fbe4864a8e820971c0247f5992e2da559595f7bf076a21cb5928d443d2a13b6748282604051610dc092919061391f565b63ffffffff8416600090815260036020908152604080832061ffff87168452909152812080546060929190611291906135c1565b80601f01602080910402602001604051908101604052809291908181526020018280546112bd906135c1565b801561130a5780601f106112df5761010080835404028352916020019161130a565b820191906000526020600020905b8154815290600101906020018083116112ed57829003601f168201915b50505050509050805160000361135a5783838080601f016020809104026020016040519081016040528093929190818152602001838380828437600092019190915250929450610e9a9350505050565b600083900361136a579050610e9a565b600283106113b35761137c848461252d565b8061138a8460028188613a5d565b60405160200161139c93929190613a87565b604051602081830303815290604052915050610e9a565b83836040517f9a6d49cd000000000000000000000000000000000000000000000000000000008152600401610cb6929190613aaf565b60005b818110156114f257368383838181106114075761140761367f565b90506020028101906114199190613ac3565b905061144c61142b602083018361341c565b602083013563ffffffff919091166000908152600160205260409020541490565b61145657506114ea565b3063d045a0dc60c08301358360a08101356114756101008301836136ec565b611486610100890160e08a01613345565b6114946101208a018a6136ec565b6040518963ffffffff1660e01b81526004016114b69796959493929190613af7565b6000604051808303818588803b1580156114cf57600080fd5b505af11580156114e3573d6000803e3d6000fd5b5050505050505b6001016113ec565b503373ffffffffffffffffffffffffffffffffffffffff16638e9e70996040518163ffffffff1660e01b8152600401600060405180830381865afa15801561153e573d6000803e3d6000fd5b505050506040513d6000823e601f3d9081017fffffffffffffffffffffffffffffffffffffffffffffffffffffffffffffffe01682016040526115849190810190613bb4565b6040517f8351eea7000000000000000000000000000000000000000000000000000000008152600401610cb69190612f4f565b6000610b668261258d565b6115ca612e17565b6040805180820190915260008082526020820152600080611600604088013560608901356115fb60208b018b61341c565b612465565b915091506000806116118984611926565b909250905061163d61162660208b018b61341c565b8383611637368d90038d018d613c74565b8b6125c4565b60408051808201909152858152602080820186905282519298509096503391907f85496b760a4b7f8d66384b9df21b381f5d1b1e79f229a47aaf4c232edc2fe59a9061168b908d018d61341c565b6040805163ffffffff909216825260208201899052810187905260600160405180910390a350505050935093915050565b6116c46121ed565b6040517fca5eb5e100000000000000000000000000000000000000000000000000000000815273ffffffffffffffffffffffffffffffffffffffff82811660048301527f0000000000000000000000000000000000000000000000000000000000000000169063ca5eb5e190602401600060405180830381600087803b15801561174d57600080fd5b505af1158015611761573d6000803e3d6000fd5b5050505050565b3330146117a1576040517f14d4a4e800000000000000000000000000000000000000000000000000000000815260040160405180910390fd5b610d3f87878787878787610d30565b6117b86121ed565b600280547fffffffffffffffffffffffff00000000000000000000000000000000000000001673ffffffffffffffffffffffffffffffffffffffff83169081179091556040519081527fd48d879cef83a1c0bdda516f27b13ddb1b3f8bbac1c9e1511bb2a659c242776090602001610fd9565b600080610eb0858585611c30565b6118416121ed565b73ffffffffffffffffffffffffffffffffffffffff81166118e4576040517f08c379a000000000000000000000000000000000000000000000000000000000815260206004820152602660248201527f4f776e61626c653a206e6577206f776e657220697320746865207a65726f206160448201527f64647265737300000000000000000000000000000000000000000000000000006064820152608401610cb6565b6118ed81612482565b50565b6000602082018035906001908390611908908661341c565b63ffffffff1681526020810191909152604001600020541492915050565b6060806000611983856020013561193c86611c85565b61194960a08901896136ec565b8080601f0160208091040260200160405190810160405280939291908181526020018383808284376000920191909152506126dc92505050565b9093509050600081611996576001611999565b60025b90506119b96119ab602088018861341c565b8261094860808a018a6136ec565b60045490935073ffffffffffffffffffffffffffffffffffffffff1615611a7457600480546040517f043a78eb00000000000000000000000000000000000000000000000000000000815273ffffffffffffffffffffffffffffffffffffffff9091169163043a78eb91611a31918891889101612f2a565b602060405180830381865afa158015611a4e573d6000803e3d6000fd5b505050506040513d601f19601f82011682018060405250810190611a729190613ca6565b505b50509250929050565b73ffffffffffffffffffffffffffffffffffffffff8316611b1f576040517f08c379a0000000000000000000000000000000000000000000000000000000008152602060048201526024808201527f45524332303a20617070726f76652066726f6d20746865207a65726f2061646460448201527f72657373000000000000000000000000000000000000000000000000000000006064820152608401610cb6565b73ffffffffffffffffffffffffffffffffffffffff8216611bc2576040517f08c379a000000000000000000000000000000000000000000000000000000000815260206004820152602260248201527f45524332303a20617070726f766520746f20746865207a65726f20616464726560448201527f73730000000000000000000000000000000000000000000000000000000000006064820152608401610cb6565b73ffffffffffffffffffffffffffffffffffffffff83811660008181526006602090815260408083209487168084529482529182902085905590518481527f8c5be1e5ebec7d5bd14f71427d1e84f3dd0314c0f7b2291e5b200ac8c7c3b925910160405180910390a3505050565b600080611c3c8561258d565b915081905083811015610eb5576040517f71c4efed0000000000000000000000000000000000000000000000000000000081526004810182905260248101859052604401610cb6565b6000610b667f000000000000000000000000000000000000000000000000000000000000000083613cc3565b63ffffffff811660009081526001602052604081205480610b66576040517ff6ff4fb700000000000000000000000000000000000000000000000000000000815263ffffffff84166004820152602401610cb6565b6000611d18611d15878761276e565b90565b90506000611d4482611d32611d2d8a8a612786565b6124f7565b611d3f60208d018d61341c565b612451565b90506028861115611e31576000611d81611d6460608c0160408d01613378565b611d7160208d018d61341c565b84611d7c8c8c6127a9565b6127f4565b6040517f7cb5901200000000000000000000000000000000000000000000000000000000815290915073ffffffffffffffffffffffffffffffffffffffff7f00000000000000000000000000000000000000000000000000000000000000001690637cb5901290611dfd9086908d906000908790600401613cfe565b600060405180830381600087803b158015611e1757600080fd5b505af1158015611e2b573d6000803e3d6000fd5b50505050505b73ffffffffffffffffffffffffffffffffffffffff8216887fefed6d3500546b29533b128a29e3a94d70788727f0507505ac12eaf2e578fd9c611e7760208d018d61341c565b6040805163ffffffff9092168252602082018690520160405180910390a3505050505050505050565b73ffffffffffffffffffffffffffffffffffffffff8381166000908152600660209081526040808320938616835292905220547fffffffffffffffffffffffffffffffffffffffffffffffffffffffffffffffff8114611f715781811015611f64576040517f08c379a000000000000000000000000000000000000000000000000000000000815260206004820152601d60248201527f45524332303a20696e73756666696369656e7420616c6c6f77616e63650000006044820152606401610cb6565b611f718484848403611a7d565b50505050565b73ffffffffffffffffffffffffffffffffffffffff831661201a576040517f08c379a000000000000000000000000000000000000000000000000000000000815260206004820152602560248201527f45524332303a207472616e736665722066726f6d20746865207a65726f20616460448201527f64726573730000000000000000000000000000000000000000000000000000006064820152608401610cb6565b73ffffffffffffffffffffffffffffffffffffffff82166120bd576040517f08c379a000000000000000000000000000000000000000000000000000000000815260206004820152602360248201527f45524332303a207472616e7366657220746f20746865207a65726f206164647260448201527f65737300000000000000000000000000000000000000000000000000000000006064820152608401610cb6565b73ffffffffffffffffffffffffffffffffffffffff831660009081526005602052604090205481811015612173576040517f08c379a000000000000000000000000000000000000000000000000000000000815260206004820152602660248201527f45524332303a207472616e7366657220616d6f756e742065786365656473206260448201527f616c616e636500000000000000000000000000000000000000000000000000006064820152608401610cb6565b73ffffffffffffffffffffffffffffffffffffffff80851660008181526005602052604080822086860390559286168082529083902080548601905591517fddf252ad1be2c89b69c2b068fc378daa952ba7f163c4a11628f55a4df523b3ef906121e09086815260200190565b60405180910390a3611f71565b60005473ffffffffffffffffffffffffffffffffffffffff163314610ff6576040517f08c379a000000000000000000000000000000000000000000000000000000000815260206004820181905260248201527f4f776e61626c653a2063616c6c6572206973206e6f7420746865206f776e65726044820152606401610cb6565b60408051808201909152600080825260208201527f000000000000000000000000000000000000000000000000000000000000000073ffffffffffffffffffffffffffffffffffffffff1663ddc28c586040518060a001604052808863ffffffff1681526020016122de89611cb1565b8152602001878152602001868152602001851515815250306040518363ffffffff1660e01b8152600401612313929190613d3d565b6040805180830381865afa15801561232f573d6000803e3d6000fd5b505050506040513d601f19601f820116820180604052508101906123539190613e11565b95945050505050565b73ffffffffffffffffffffffffffffffffffffffff82166123d9576040517f08c379a000000000000000000000000000000000000000000000000000000000815260206004820152601f60248201527f45524332303a206d696e7420746f20746865207a65726f2061646472657373006044820152606401610cb6565b80600760008282546123eb919061366c565b909155505073ffffffffffffffffffffffffffffffffffffffff82166000818152600560209081526040808320805486019055518481527fddf252ad1be2c89b69c2b068fc378daa952ba7f163c4a11628f55a4df523b3ef910160405180910390a35050565b600061245d848461235c565b509092915050565b600080612473858585611c30565b9092509050610eb53383612826565b6000805473ffffffffffffffffffffffffffffffffffffffff8381167fffffffffffffffffffffffff0000000000000000000000000000000000000000831681178455604051919092169283917f8be0079c531659141344cd1fd0a4f28419497f9722a3daafe3b4186f6b6457e09190a35050565b6000610b667f000000000000000000000000000000000000000000000000000000000000000067ffffffffffffffff8416613e2d565b600061253c6002828486613a5d565b61254591613e44565b60f01c9050600381146125885782826040517f9a6d49cd000000000000000000000000000000000000000000000000000000008152600401610cb6929190613aaf565b505050565b60007f00000000000000000000000000000000000000000000000000000000000000006125ba8184613cc3565b610b669190613e2d565b6125cc612e17565b60006125db84600001516129ec565b6020850151909150156125f5576125f58460200151612a2d565b7f000000000000000000000000000000000000000000000000000000000000000073ffffffffffffffffffffffffffffffffffffffff16632637a450826040518060a001604052808b63ffffffff1681526020016126528c611cb1565b81526020018a815260200189815260200160008960200151111515815250866040518463ffffffff1660e01b815260040161268e929190613d3d565b60806040518083038185885af11580156126ac573d6000803e3d6000fd5b50505050506040513d601f19601f820116820180604052508101906126d19190613e8c565b979650505050505050565b805160609015158061273d57848460405160200161272992919091825260c01b7fffffffffffffffff00000000000000000000000000000000000000000000000016602082015260280190565b604051602081830303815290604052612764565b848433856040516020016127549493929190613ef4565b6040516020818303038152906040525b9150935093915050565b600061277d6020828486613a5d565b610d6791613f4d565b6000612796602860208486613a5d565b61279f91613f89565b60c01c9392505050565b60606127b88260288186613a5d565b8080601f016020809104026020016040519081016040528093929190818152602001838380828437600092019190915250929695505050505050565b60608484848460405160200161280d9493929190613fcf565b6040516020818303038152906040529050949350505050565b73ffffffffffffffffffffffffffffffffffffffff82166128c9576040517f08c379a000000000000000000000000000000000000000000000000000000000815260206004820152602160248201527f45524332303a206275726e2066726f6d20746865207a65726f2061646472657360448201527f73000000000000000000000000000000000000000000000000000000000000006064820152608401610cb6565b73ffffffffffffffffffffffffffffffffffffffff82166000908152600560205260409020548181101561297f576040517f08c379a000000000000000000000000000000000000000000000000000000000815260206004820152602260248201527f45524332303a206275726e20616d6f756e7420657863656564732062616c616e60448201527f63650000000000000000000000000000000000000000000000000000000000006064820152608401610cb6565b73ffffffffffffffffffffffffffffffffffffffff831660008181526005602090815260408083208686039055600780548790039055518581529192917fddf252ad1be2c89b69c2b068fc378daa952ba7f163c4a11628f55a4df523b3ef910160405180910390a3505050565b6000813414612a29576040517f9f704120000000000000000000000000000000000000000000000000000000008152346004820152602401610cb6565b5090565b60007f000000000000000000000000000000000000000000000000000000000000000073ffffffffffffffffffffffffffffffffffffffff1663e4fe1d946040518163ffffffff1660e01b8152600401602060405180830381865afa158015612a9a573d6000803e3d6000fd5b505050506040513d601f19601f82011682018060405250810190612abe919061404d565b905073ffffffffffffffffffffffffffffffffffffffff8116612b0d576040517f5373352a00000000000000000000000000000000000000000000000000000000815260040160405180910390fd5b6040805133602482018190527f000000000000000000000000000000000000000000000000000000000000000073ffffffffffffffffffffffffffffffffffffffff818116604485015260648085018890528551808603909101815260849094018552602080850180517bffffffffffffffffffffffffffffffffffffffffffffffffffffffff167f23b872dd0000000000000000000000000000000000000000000000000000000017905285518087019096528086527f5361666545524332303a206c6f772d6c6576656c2063616c6c206661696c656490860152610e8994908616938791611f71918691600090612c099084908490612cb6565b9050805160001480612c2a575080806020019051810190612c2a9190613ca6565b612588576040517f08c379a000000000000000000000000000000000000000000000000000000000815260206004820152602a60248201527f5361666545524332303a204552433230206f7065726174696f6e20646964206e60448201527f6f742073756363656564000000000000000000000000000000000000000000006064820152608401610cb6565b6060610e9a8484600085856000808673ffffffffffffffffffffffffffffffffffffffff168587604051612cea919061406a565b60006040518083038185875af1925050503d8060008114612d27576040519150601f19603f3d011682016040523d82523d6000602084013e612d2c565b606091505b50915091506126d18783838760608315612dce578251600003612dc75773ffffffffffffffffffffffffffffffffffffffff85163b612dc7576040517f08c379a000000000000000000000000000000000000000000000000000000000815260206004820152601d60248201527f416464726573733a2063616c6c20746f206e6f6e2d636f6e74726163740000006044820152606401610cb6565b5081610e9a565b610e9a8383815115612de35781518083602001fd5b806040517f08c379a0000000000000000000000000000000000000000000000000000000008152600401610cb69190612f4f565b604051806060016040528060008019168152602001600067ffffffffffffffff168152602001612e5a604051806040016040528060008152602001600081525090565b905290565b600060e08284031215612e7157600080fd5b50919050565b60008060408385031215612e8a57600080fd5b823567ffffffffffffffff811115612ea157600080fd5b612ead85828601612e5f565b95602094909401359450505050565b60005b83811015612ed7578181015183820152602001612ebf565b50506000910152565b60008151808452612ef8816020860160208601612ebc565b601f017fffffffffffffffffffffffffffffffffffffffffffffffffffffffffffffffe0169290920160200192915050565b604081526000612f3d6040830185612ee0565b82810360208401526123538185612ee0565b602081526000610d676020830184612ee0565b73ffffffffffffffffffffffffffffffffffffffff811681146118ed57600080fd5b60008060408385031215612f9757600080fd5b8235612fa281612f62565b946020939093013593505050565b600060208284031215612fc257600080fd5b813567ffffffffffffffff811115612fd957600080fd5b610e9a84828501612e5f565b8351815260208085015190820152600060a08201604060a0604085015281865180845260c08601915060c08160051b8701019350602080890160005b8381101561307e578887037fffffffffffffffffffffffffffffffffffffffffffffffffffffffffffffff4001855281518051885283015183880187905261306b87890182612ee0565b9750509382019390820190600101613021565b50508751606088015250505060208501516080850152509050610e9a565b6000602082840312156130ae57600080fd5b5035919050565b600060608284031215612e7157600080fd5b60008083601f8401126130d957600080fd5b50813567ffffffffffffffff8111156130f157600080fd5b602083019150836020828501011115610ab957600080fd5b600080600080600080600060e0888a03121561312457600080fd5b61312e89896130b5565b965060608801359550608088013567ffffffffffffffff8082111561315257600080fd5b61315e8b838c016130c7565b909750955060a08a0135915061317382612f62565b90935060c0890135908082111561318957600080fd5b506131968a828b016130c7565b989b979a50959850939692959293505050565b6000806000606084860312156131be57600080fd5b83356131c981612f62565b925060208401356131d981612f62565b929592945050506040919091013590565b803563ffffffff811681146131fe57600080fd5b919050565b6000806040838503121561321657600080fd5b612fa2836131ea565b80151581146118ed57600080fd5b6000806040838503121561324057600080fd5b823567ffffffffffffffff81111561325757600080fd5b61326385828601612e5f565b92505060208301356132748161321f565b809150509250929050565b815181526020808301519082015260408101610b66565b6000806000606084860312156132ab57600080fd5b83356132b681612f62565b9250602084013591506132cb604085016131ea565b90509250925092565b6000806000606084860312156132e957600080fd5b83359250602084013591506132cb604085016131ea565b803561ffff811681146131fe57600080fd5b6000806040838503121561332557600080fd5b61332e836131ea565b915061333c60208401613300565b90509250929050565b60006020828403121561335757600080fd5b8135610d6781612f62565b67ffffffffffffffff811681146118ed57600080fd5b60006020828403121561338a57600080fd5b8135610d6781613362565b60008083601f8401126133a757600080fd5b50813567ffffffffffffffff8111156133bf57600080fd5b6020830191508360208260051b8501011115610ab957600080fd5b600080602083850312156133ed57600080fd5b823567ffffffffffffffff81111561340457600080fd5b61341085828601613395565b90969095509350505050565b60006020828403121561342e57600080fd5b610d67826131ea565b6000806000806060858703121561344d57600080fd5b613456856131ea565b935061346460208601613300565b9250604085013567ffffffffffffffff81111561348057600080fd5b61348c878288016130c7565b95989497509550505050565b600080600083850360808112156134ae57600080fd5b843567ffffffffffffffff8111156134c557600080fd5b6134d187828801612e5f565b94505060407fffffffffffffffffffffffffffffffffffffffffffffffffffffffffffffffe08201121561350457600080fd5b50602084019150606084013561351981612f62565b809150509250925092565b600060c0820190508351825267ffffffffffffffff60208501511660208301526040840151613560604084018280518252602090810151910152565b5082516080830152602083015160a0830152610d67565b6000806040838503121561358a57600080fd5b823561359581612f62565b9150602083013561327481612f62565b6000606082840312156135b757600080fd5b610d6783836130b5565b600181811c908216806135d557607f821691505b602082108103612e71577f4e487b7100000000000000000000000000000000000000000000000000000000600052602260045260246000fd5b7f4e487b7100000000000000000000000000000000000000000000000000000000600052604160045260246000fd5b7f4e487b7100000000000000000000000000000000000000000000000000000000600052601160045260246000fd5b80820180821115610b6657610b6661363d565b7f4e487b7100000000000000000000000000000000000000000000000000000000600052603260045260246000fd5b600082357fffffffffffffffffffffffffffffffffffffffffffffffffffffffffffffffa18336030181126136e257600080fd5b9190910192915050565b60008083357fffffffffffffffffffffffffffffffffffffffffffffffffffffffffffffffe184360301811261372157600080fd5b83018035915067ffffffffffffffff82111561373c57600080fd5b602001915036819003821315610ab957600080fd5b60006020828403121561376357600080fd5b610d6782613300565b601f821115612588576000816000526020600020601f850160051c810160208610156137955750805b601f850160051c820191505b818110156137b4578281556001016137a1565b505050505050565b67ffffffffffffffff8311156137d4576137d461360e565b6137e8836137e283546135c1565b8361376c565b6000601f84116001811461383a57600085156138045750838201355b7fffffffffffffffffffffffffffffffffffffffffffffffffffffffffffffffff600387901b1c1916600186901b178355611761565b6000838152602090207fffffffffffffffffffffffffffffffffffffffffffffffffffffffffffffffe0861690835b828110156138895786850135825560209485019460019092019101613869565b50868210156138c4577fffffffffffffffffffffffffffffffffffffffffffffffffffffffffffffffff60f88860031b161c19848701351681555b505060018560011b0183555050505050565b8183528181602085013750600060208284010152600060207fffffffffffffffffffffffffffffffffffffffffffffffffffffffffffffffe0601f840116840101905092915050565b60208082528181018390526000906040808401600586901b8501820187855b88811015613a4f577fffffffffffffffffffffffffffffffffffffffffffffffffffffffffffffffc088840301845281357fffffffffffffffffffffffffffffffffffffffffffffffffffffffffffffffa18b360301811261399f57600080fd5b8a01606063ffffffff6139b1836131ea565b16855261ffff6139c2898401613300565b1688860152868201357fffffffffffffffffffffffffffffffffffffffffffffffffffffffffffffffe18336030181126139fb57600080fd5b90910187810191903567ffffffffffffffff811115613a1957600080fd5b803603831315613a2857600080fd5b8188870152613a3a82870182856138d6565b9689019695505050918601915060010161393e565b509098975050505050505050565b60008085851115613a6d57600080fd5b83861115613a7a57600080fd5b5050820193919092039150565b60008451613a99818460208901612ebc565b8201838582376000930192835250909392505050565b602081526000610e9a6020830184866138d6565b600082357ffffffffffffffffffffffffffffffffffffffffffffffffffffffffffffffec18336030181126136e257600080fd5b63ffffffff613b05896131ea565b1681526020880135602082015260006040890135613b2281613362565b67ffffffffffffffff811660408401525087606083015260e06080830152613b4e60e0830187896138d6565b73ffffffffffffffffffffffffffffffffffffffff861660a084015282810360c0840152613b7d8185876138d6565b9a9950505050505050505050565b6040805190810167ffffffffffffffff81118282101715613bae57613bae61360e565b60405290565b600060208284031215613bc657600080fd5b815167ffffffffffffffff80821115613bde57600080fd5b818401915084601f830112613bf257600080fd5b815181811115613c0457613c0461360e565b604051601f82017fffffffffffffffffffffffffffffffffffffffffffffffffffffffffffffffe0908116603f01168101908382118183101715613c4a57613c4a61360e565b81604052828152876020848701011115613c6357600080fd5b6126d1836020830160208801612ebc565b600060408284031215613c8657600080fd5b613c8e613b8b565b82358152602083013560208201528091505092915050565b600060208284031215613cb857600080fd5b8151610d678161321f565b600082613cf9577f4e487b7100000000000000000000000000000000000000000000000000000000600052601260045260246000fd5b500490565b73ffffffffffffffffffffffffffffffffffffffff8516815283602082015261ffff83166040820152608060608201526000610e756080830184612ee0565b6040815263ffffffff8351166040820152602083015160608201526000604084015160a06080840152613d7360e0840182612ee0565b905060608501517fffffffffffffffffffffffffffffffffffffffffffffffffffffffffffffffc08483030160a0850152613dae8282612ee0565b60809690960151151560c085015250505073ffffffffffffffffffffffffffffffffffffffff9190911660209091015290565b600060408284031215613df357600080fd5b613dfb613b8b565b9050815181526020820151602082015292915050565b600060408284031215613e2357600080fd5b610d678383613de1565b8082028115828204841417610b6657610b6661363d565b7fffff0000000000000000000000000000000000000000000000000000000000008135818116916002851015613e845780818660020360031b1b83161692505b505092915050565b600060808284031215613e9e57600080fd5b6040516060810181811067ffffffffffffffff82111715613ec157613ec161360e565b604052825181526020830151613ed681613362565b6020820152613ee88460408501613de1565b60408201529392505050565b8481527fffffffffffffffff0000000000000000000000000000000000000000000000008460c01b16602082015282602882015260008251613f3d816048850160208701612ebc565b9190910160480195945050505050565b80356020831015610b66577fffffffffffffffffffffffffffffffffffffffffffffffffffffffffffffffff602084900360031b1b1692915050565b7fffffffffffffffff0000000000000000000000000000000000000000000000008135818116916008851015613e845760089490940360031b84901b1690921692915050565b7fffffffffffffffff0000000000000000000000000000000000000000000000008560c01b1681527fffffffff000000000000000000000000000000000000000000000000000000008460e01b16600882015282600c8201526000825161403d81602c850160208701612ebc565b91909101602c0195945050505050565b60006020828403121561405f57600080fd5b8151610d6781612f62565b600082516136e2818460208701612ebc56fea264697066735822122035922f33478f81d3155ada6456afd77c2ed32431d1e91ecae718c7c689b6ba6464736f6c63430008160033","linkReferences":{}},"methodIdentifiers":{"SEND()":"1f5e1334","SEND_AND_CALL()":"134d4f25","allowInitializePath((uint32,bytes32,uint64))":"ff7bd03d","allowance(address,address)":"dd62ed3e","approvalRequired()":"9f68b964","approve(address,uint256)":"095ea7b3","balanceOf(address)":"70a08231","buildMsgAndOptions((uint32,bytes32,uint256,uint256,bytes,bytes,bytes),uint256)":"056d62de","combineOptions(uint32,uint16,bytes)":"bc70b354","composeMsgSender()":"b92d0eff","credit(address,uint256,uint32)":"4dba701b","debit(uint256,uint256,uint32)":"54f52414","debitView(uint256,uint256,uint32)":"f0163023","decimalConversionRate()":"963efcaa","decimals()":"313ce567","decreaseAllowance(address,uint256)":"a457c2d7","endpoint()":"5e280f11","enforcedOptions(uint32,uint16)":"5535d461","increaseAllowance(address,uint256)":"39509351","isPeer(uint32,bytes32)":"5a0dfe4d","lzReceive((uint32,bytes32,uint64),bytes32,bytes,address,bytes)":"13137d65","lzReceiveAndRevert(((uint32,bytes32,uint64),uint32,address,bytes32,uint256,address,bytes,bytes)[])":"bd815db0","lzReceiveSimulate((uint32,bytes32,uint64),bytes32,bytes,address,bytes)":"d045a0dc","mint(address,uint256)":"40c10f19","msgInspector()":"111ecdad","name()":"06fdde03","nextNonce(uint32,bytes32)":"7d25a05e","oApp()":"52ae2879","oAppVersion()":"17442b70","oftVersion()":"156a0d0f","owner()":"8da5cb5b","peers(uint32)":"bb0b6a53","preCrime()":"b731ea0a","quoteOFT((uint32,bytes32,uint256,uint256,bytes,bytes,bytes))":"0d35b415","quoteSend((uint32,bytes32,uint256,uint256,bytes,bytes,bytes),bool)":"3b6f743b","removeDust(uint256)":"c0779988","renounceOwnership()":"715018a6","send((uint32,bytes32,uint256,uint256,bytes,bytes,bytes),(uint256,uint256),address)":"c7c7f5b3","setDelegate(address)":"ca5eb5e1","setEnforcedOptions((uint32,uint16,bytes)[])":"b98bd070","setMsgInspector(address)":"6fc1b31e","setPeer(uint32,bytes32)":"3400288b","setPreCrime(address)":"d4243885","sharedDecimals()":"857749b0","symbol()":"95d89b41","toLD(uint64)":"b3a5abeb","toSD(uint256)":"0e78842c","token()":"fc0c546a","totalSupply()":"18160ddd","transfer(address,uint256)":"a9059cbb","transferFrom(address,address,uint256)":"23b872dd","transferOwnership(address)":"f2fde38b"},"id":20}