{"abi":[{"type":"constructor","inputs":[{"name":"_vid","type":"uint32","internalType":"uint32"},{"name":"_messageLibs","type":"address[]","internalType":"address[]"},{"name":"_priceFeed","type":"address","internalType":"address"},{"name":"_signers","type":"address[]","internalType":"address[]"},{"name":"_quorum","type":"uint64","internalType":"uint64"},{"name":"_admins","type":"address[]","internalType":"address[]"}],"stateMutability":"nonpayable"},{"type":"function","name":"DEFAULT_ADMIN_ROLE","inputs":[],"outputs":[{"name":"","type":"bytes32","internalType":"bytes32"}],"stateMutability":"view"},{"type":"function","name":"allowlistSize","inputs":[],"outputs":[{"name":"","type":"uint64","internalType":"uint64"}],"stateMutability":"view"},{"type":"function","name":"assignJob","inputs":[{"name":"_param","type":"tuple","internalType":"struct ILayerZeroDVN.AssignJobParam","components":[{"name":"dstEid","type":"uint32","internalType":"uint32"},{"name":"packetHeader","type":"bytes","internalType":"bytes"},{"name":"payloadHash","type":"bytes32","internalType":"bytes32"},{"name":"confirmations","type":"uint64","internalType":"uint64"},{"name":"sender","type":"address","internalType":"address"}]},{"name":"_options","type":"bytes","internalType":"bytes"}],"outputs":[{"name":"totalFee","type":"uint256","internalType":"uint256"}],"stateMutability":"payable"},{"type":"function","name":"assignJob","inputs":[{"name":"_dstEid","type":"uint16","internalType":"uint16"},{"name":"","type":"uint16","internalType":"uint16"},{"name":"_confirmations","type":"uint64","internalType":"uint64"},{"name":"_sender","type":"address","internalType":"address"}],"outputs":[{"name":"totalFee","type":"uint256","internalType":"uint256"}],"stateMutability":"nonpayable"},{"type":"function","name":"defaultMultiplierBps","inputs":[],"outputs":[{"name":"","type":"uint16","internalType":"uint16"}],"stateMutability":"view"},{"type":"function","name":"dstConfig","inputs":[{"name":"dstEid","type":"uint32","internalType":"uint32"}],"outputs":[{"name":"gas","type":"uint64","internalType":"uint64"},{"name":"multiplierBps","type":"uint16","internalType":"uint16"},{"name":"floorMarginUSD","type":"uint128","internalType":"uint128"}],"stateMutability":"view"},{"type":"function","name":"execute","inputs":[{"name":"_params","type":"tuple[]","internalType":"struct ExecuteParam[]","components":[{"name":"vid","type":"uint32","internalType":"uint32"},{"name":"target","type":"address","internalType":"address"},{"name":"callData","type":"bytes","internalType":"bytes"},{"name":"expiration","type":"uint256","internalType":"uint256"},{"name":"signatures","type":"bytes","internalType":"bytes"}]}],"outputs":[],"stateMutability":"nonpayable"},{"type":"function","name":"getFee","inputs":[{"name":"_dstEid","type":"uint32","internalType":"uint32"},{"name":"_confirmations","type":"uint64","internalType":"uint64"},{"name":"_sender","type":"address","internalType":"address"},{"name":"_options","type":"bytes","internalType":"bytes"}],"outputs":[{"name":"fee","type":"uint256","internalType":"uint256"}],"stateMutability":"view"},{"type":"function","name":"getFee","inputs":[{"name":"_dstEid","type":"uint16","internalType":"uint16"},{"name":"","type":"uint16","internalType":"uint16"},{"name":"_confirmations","type":"uint64","internalType":"uint64"},{"name":"_sender","type":"address","internalType":"address"}],"outputs":[{"name":"fee","type":"uint256","internalType":"uint256"}],"stateMutability":"view"},{"type":"function","name":"getRoleAdmin","inputs":[{"name":"role","type":"bytes32","internalType":"bytes32"}],"outputs":[{"name":"","type":"bytes32","internalType":"bytes32"}],"stateMutability":"view"},{"type":"function","name":"getSupportedOptionTypes","inputs":[{"name":"_eid","type":"uint32","internalType":"uint32"}],"outputs":[{"name":"","type":"uint8[]","internalType":"uint8[]"}],"stateMutability":"view"},{"type":"function","name":"grantRole","inputs":[{"name":"_role","type":"bytes32","internalType":"bytes32"},{"name":"_account","type":"address","internalType":"address"}],"outputs":[],"stateMutability":"nonpayable"},{"type":"function","name":"hasAcl","inputs":[{"name":"_sender","type":"address","internalType":"address"}],"outputs":[{"name":"","type":"bool","internalType":"bool"}],"stateMutability":"view"},{"type":"function","name":"hasRole","inputs":[{"name":"role","type":"bytes32","internalType":"bytes32"},{"name":"account","type":"address","internalType":"address"}],"outputs":[{"name":"","type":"bool","internalType":"bool"}],"stateMutability":"view"},{"type":"function","name":"hashCallData","inputs":[{"name":"_vid","type":"uint32","internalType":"uint32"},{"name":"_target","type":"address","internalType":"address"},{"name":"_callData","type":"bytes","internalType":"bytes"},{"name":"_expiration","type":"uint256","internalType":"uint256"}],"outputs":[{"name":"","type":"bytes32","internalType":"bytes32"}],"stateMutability":"pure"},{"type":"function","name":"paused","inputs":[],"outputs":[{"name":"","type":"bool","internalType":"bool"}],"stateMutability":"view"},{"type":"function","name":"priceFeed","inputs":[],"outputs":[{"name":"","type":"address","internalType":"address"}],"stateMutability":"view"},{"type":"function","name":"quorum","inputs":[],"outputs":[{"name":"","type":"uint64","internalType":"uint64"}],"stateMutability":"view"},{"type":"function","name":"quorumChangeAdmin","inputs":[{"name":"_param","type":"tuple","internalType":"struct ExecuteParam","components":[{"name":"vid","type":"uint32","internalType":"uint32"},{"name":"target","type":"address","internalType":"address"},{"name":"callData","type":"bytes","internalType":"bytes"},{"name":"expiration","type":"uint256","internalType":"uint256"},{"name":"signatures","type":"bytes","internalType":"bytes"}]}],"outputs":[],"stateMutability":"nonpayable"},{"type":"function","name":"renounceRole","inputs":[{"name":"","type":"bytes32","internalType":"bytes32"},{"name":"","type":"address","internalType":"address"}],"outputs":[],"stateMutability":"pure"},{"type":"function","name":"revokeRole","inputs":[{"name":"_role","type":"bytes32","internalType":"bytes32"},{"name":"_account","type":"address","internalType":"address"}],"outputs":[],"stateMutability":"nonpayable"},{"type":"function","name":"setDefaultMultiplierBps","inputs":[{"name":"_multiplierBps","type":"uint16","internalType":"uint16"}],"outputs":[],"stateMutability":"nonpayable"},{"type":"function","name":"setDstConfig","inputs":[{"name":"_params","type":"tuple[]","internalType":"struct IDVN.DstConfigParam[]","components":[{"name":"dstEid","type":"uint32","internalType":"uint32"},{"name":"gas","type":"uint64","internalType":"uint64"},{"name":"multiplierBps","type":"uint16","internalType":"uint16"},{"name":"floorMarginUSD","type":"uint128","internalType":"uint128"}]}],"outputs":[],"stateMutability":"nonpayable"},{"type":"function","name":"setPaused","inputs":[{"name":"_paused","type":"bool","internalType":"bool"}],"outputs":[],"stateMutability":"nonpayable"},{"type":"function","name":"setPriceFeed","inputs":[{"name":"_priceFeed","type":"address","internalType":"address"}],"outputs":[],"stateMutability":"nonpayable"},{"type":"function","name":"setQuorum","inputs":[{"name":"_quorum","type":"uint64","internalType":"uint64"}],"outputs":[],"stateMutability":"nonpayable"},{"type":"function","name":"setSigner","inputs":[{"name":"_signer","type":"address","internalType":"address"},{"name":"_active","type":"bool","internalType":"bool"}],"outputs":[],"stateMutability":"nonpayable"},{"type":"function","name":"setSupportedOptionTypes","inputs":[{"name":"_eid","type":"uint32","internalType":"uint32"},{"name":"_optionTypes","type":"uint8[]","internalType":"uint8[]"}],"outputs":[],"stateMutability":"nonpayable"},{"type":"function","name":"setWorkerFeeLib","inputs":[{"name":"_workerFeeLib","type":"address","internalType":"address"}],"outputs":[],"stateMutability":"nonpayable"},{"type":"function","name":"signerSize","inputs":[],"outputs":[{"name":"","type":"uint64","internalType":"uint64"}],"stateMutability":"view"},{"type":"function","name":"signers","inputs":[{"name":"signer","type":"address","internalType":"address"}],"outputs":[{"name":"active","type":"bool","internalType":"bool"}],"stateMutability":"view"},{"type":"function","name":"supportsInterface","inputs":[{"name":"interfaceId","type":"bytes4","internalType":"bytes4"}],"outputs":[{"name":"","type":"bool","internalType":"bool"}],"stateMutability":"view"},{"type":"function","name":"usedHashes","inputs":[{"name":"executableHash","type":"bytes32","internalType":"bytes32"}],"outputs":[{"name":"used","type":"bool","internalType":"bool"}],"stateMutability":"view"},{"type":"function","name":"verifySignatures","inputs":[{"name":"_hash","type":"bytes32","internalType":"bytes32"},{"name":"_signatures","type":"bytes","internalType":"bytes"}],"outputs":[{"name":"","type":"bool","internalType":"bool"},{"name":"","type":"uint8","internalType":"enum MultiSig.Errors"}],"stateMutability":"view"},{"type":"function","name":"vid","inputs":[],"outputs":[{"name":"","type":"uint32","internalType":"uint32"}],"stateMutability":"view"},{"type":"function","name":"withdrawFee","inputs":[{"name":"_lib","type":"address","internalType":"address"},{"name":"_to","type":"address","internalType":"address"},{"name":"_amount","type":"uint256","internalType":"uint256"}],"outputs":[],"stateMutability":"nonpayable"},{"type":"function","name":"withdrawFeeFromUlnV2","inputs":[{"name":"_lib","type":"address","internalType":"address"},{"name":"_to","type":"address","internalType":"address payable"},{"name":"_amount","type":"uint256","internalType":"uint256"}],"outputs":[],"stateMutability":"nonpayable"},{"type":"function","name":"withdrawToken","inputs":[{"name":"_token","type":"address","internalType":"address"},{"name":"_to","type":"address","internalType":"address"},{"name":"_amount","type":"uint256","internalType":"uint256"}],"outputs":[],"stateMutability":"nonpayable"},{"type":"function","name":"workerFeeLib","inputs":[],"outputs":[{"name":"","type":"address","internalType":"address"}],"stateMutability":"view"},{"type":"event","name":"ExecuteFailed","inputs":[{"name":"_index","type":"uint256","indexed":false,"internalType":"uint256"},{"name":"_data","type":"bytes","indexed":false,"internalType":"bytes"}],"anonymous":false},{"type":"event","name":"HashAlreadyUsed","inputs":[{"name":"param","type":"tuple","indexed":false,"internalType":"struct ExecuteParam","components":[{"name":"vid","type":"uint32","internalType":"uint32"},{"name":"target","type":"address","internalType":"address"},{"name":"callData","type":"bytes","internalType":"bytes"},{"name":"expiration","type":"uint256","internalType":"uint256"},{"name":"signatures","type":"bytes","internalType":"bytes"}]},{"name":"_hash","type":"bytes32","indexed":false,"internalType":"bytes32"}],"anonymous":false},{"type":"event","name":"Paused","inputs":[{"name":"account","type":"address","indexed":false,"internalType":"address"}],"anonymous":false},{"type":"event","name":"RoleAdminChanged","inputs":[{"name":"role","type":"bytes32","indexed":true,"internalType":"bytes32"},{"name":"previousAdminRole","type":"bytes32","indexed":true,"internalType":"bytes32"},{"name":"newAdminRole","type":"bytes32","indexed":true,"internalType":"bytes32"}],"anonymous":false},{"type":"event","name":"RoleGranted","inputs":[{"name":"role","type":"bytes32","indexed":true,"internalType":"bytes32"},{"name":"account","type":"address","indexed":true,"internalType":"address"},{"name":"sender","type":"address","indexed":true,"internalType":"address"}],"anonymous":false},{"type":"event","name":"RoleRevoked","inputs":[{"name":"role","type":"bytes32","indexed":true,"internalType":"bytes32"},{"name":"account","type":"address","indexed":true,"internalType":"address"},{"name":"sender","type":"address","indexed":true,"internalType":"address"}],"anonymous":false},{"type":"event","name":"SetDefaultMultiplierBps","inputs":[{"name":"multiplierBps","type":"uint16","indexed":false,"internalType":"uint16"}],"anonymous":false},{"type":"event","name":"SetDstConfig","inputs":[{"name":"params","type":"tuple[]","indexed":false,"internalType":"struct IDVN.DstConfigParam[]","components":[{"name":"dstEid","type":"uint32","internalType":"uint32"},{"name":"gas","type":"uint64","internalType":"uint64"},{"name":"multiplierBps","type":"uint16","internalType":"uint16"},{"name":"floorMarginUSD","type":"uint128","internalType":"uint128"}]}],"anonymous":false},{"type":"event","name":"SetPriceFeed","inputs":[{"name":"priceFeed","type":"address","indexed":false,"internalType":"address"}],"anonymous":false},{"type":"event","name":"SetSupportedOptionTypes","inputs":[{"name":"dstEid","type":"uint32","indexed":false,"internalType":"uint32"},{"name":"optionTypes","type":"uint8[]","indexed":false,"internalType":"uint8[]"}],"anonymous":false},{"type":"event","name":"SetWorkerLib","inputs":[{"name":"workerLib","type":"address","indexed":false,"internalType":"address"}],"anonymous":false},{"type":"event","name":"Unpaused","inputs":[{"name":"account","type":"address","indexed":false,"internalType":"address"}],"anonymous":false},{"type":"event","name":"UpdateQuorum","inputs":[{"name":"_quorum","type":"uint64","indexed":false,"internalType":"uint64"}],"anonymous":false},{"type":"event","name":"UpdateSigner","inputs":[{"name":"_signer","type":"address","indexed":false,"internalType":"address"},{"name":"_active","type":"bool","indexed":false,"internalType":"bool"}],"anonymous":false},{"type":"event","name":"VerifierFeePaid","inputs":[{"name":"fee","type":"uint256","indexed":false,"internalType":"uint256"}],"anonymous":false},{"type":"event","name":"VerifySignaturesFailed","inputs":[{"name":"idx","type":"uint256","indexed":false,"internalType":"uint256"}],"anonymous":false},{"type":"event","name":"Withdraw","inputs":[{"name":"lib","type":"address","indexed":false,"internalType":"address"},{"name":"to","type":"address","indexed":false,"internalType":"address"},{"name":"amount","type":"uint256","indexed":false,"internalType":"uint256"}],"anonymous":false},{"type":"error","name":"DVN_DuplicatedHash","inputs":[{"name":"executableHash","type":"bytes32","internalType":"bytes32"}]},{"type":"error","name":"DVN_InstructionExpired","inputs":[]},{"type":"error","name":"DVN_InvalidRole","inputs":[{"name":"role","type":"bytes32","internalType":"bytes32"}]},{"type":"error","name":"DVN_InvalidSignatures","inputs":[]},{"type":"error","name":"DVN_InvalidTarget","inputs":[{"name":"target","type":"address","internalType":"address"}]},{"type":"error","name":"DVN_InvalidVid","inputs":[{"name":"vid","type":"uint32","internalType":"uint32"}]},{"type":"error","name":"DVN_OnlySelf","inputs":[]},{"type":"error","name":"MultiSig_OnlySigner","inputs":[]},{"type":"error","name":"MultiSig_QuorumIsZero","inputs":[]},{"type":"error","name":"MultiSig_SignersSizeIsLessThanQuorum","inputs":[{"name":"signersSize","type":"uint64","internalType":"uint64"},{"name":"quorum","type":"uint64","internalType":"uint64"}]},{"type":"error","name":"MultiSig_StateAlreadySet","inputs":[{"name":"signer","type":"address","internalType":"address"},{"name":"active","type":"bool","internalType":"bool"}]},{"type":"error","name":"MultiSig_UnorderedSigners","inputs":[]},{"type":"error","name":"Transfer_NativeFailed","inputs":[{"name":"_to","type":"address","internalType":"address"},{"name":"_value","type":"uint256","internalType":"uint256"}]},{"type":"error","name":"Transfer_ToAddressIsZero","inputs":[]},{"type":"error","name":"Worker_NotAllowed","inputs":[]},{"type":"error","name":"Worker_OnlyMessageLib","inputs":[]},{"type":"error","name":"Worker_RoleRenouncingDisabled","inputs":[]}],"bytecode":{"object":"0x60a06040523480156200001157600080fd5b5060405162004c4938038062004c498339810160408190526200003491620004c4565b6001805460ff61ffff60e81b01191661017760ed1b179055600280546001600160a01b0319166001600160a01b03861617905582828686612ee060008660005b8551811015620000d557620000cc7f724aface199fe5bed93ae8508474576a9adf3dc443b2c451842a2242919f19de878381518110620000b857620000b862000597565b60200260200101516200027b60201b60201c565b60010162000074565b5060005b815181101562000126576200011d7fa49807205ce4d355092ef5a8a18f56e8913cf4a201fbe287825b095693c21775838381518110620000b857620000b862000597565b600101620000d9565b505050505050806001600160401b03166000036200015757604051635f86e17760e01b815260040160405180910390fd5b806001600160401b0316825110156200019d5781516040516378e2c15760e11b81526001600160401b039182166004820152908216602482015260440160405180910390fd5b6000805b83518110156200022f576000848281518110620001c257620001c262000597565b60200260200101519050826001600160a01b0316816001600160a01b031611620001ff576040516305fa937f60e11b815260040160405180910390fd5b6001600160a01b0381166000908152600460205260409020805460ff1916600190811790915590925001620001a1565b50509051600580546001600160401b0393841668010000000000000000026001600160801b0319909116939092169290921717905550505063ffffffff90921660805250620005ea9050565b7f74845de37cfabd357633214b47fa91ccd19b05b7c5a08ac22c187f811fb62bca82148015620002cc57506000828152602081815260408083206001600160a01b038516845290915290205460ff16155b15620003195760018054601590620002f490600160a81b90046001600160401b0316620005ad565b91906101000a8154816001600160401b0302191690836001600160401b031602179055505b62000325828262000329565b5050565b6000828152602081815260408083206001600160a01b038516845290915290205460ff1662000325576000828152602081815260408083206001600160a01b03851684529091529020805460ff19166001179055620003853390565b6001600160a01b0316816001600160a01b0316837f2f8788117e7eff1d82e926ec794901d17c78024a50270940304540a733656f0d60405160405180910390a45050565b634e487b7160e01b600052604160045260246000fd5b80516001600160a01b0381168114620003f757600080fd5b919050565b600082601f8301126200040e57600080fd5b815160206001600160401b03808311156200042d576200042d620003c9565b8260051b604051601f19603f83011681018181108482111715620004555762000455620003c9565b60405293845260208187018101949081019250878511156200047657600080fd5b6020870191505b84821015620004a1576200049182620003df565b835291830191908301906200047d565b979650505050505050565b80516001600160401b0381168114620003f757600080fd5b60008060008060008060c08789031215620004de57600080fd5b865163ffffffff81168114620004f357600080fd5b60208801519096506001600160401b03808211156200051157600080fd5b6200051f8a838b01620003fc565b96506200052f60408a01620003df565b955060608901519150808211156200054657600080fd5b620005548a838b01620003fc565b94506200056460808a01620004ac565b935060a08901519150808211156200057b57600080fd5b506200058a89828a01620003fc565b9150509295509295509295565b634e487b7160e01b600052603260045260246000fd5b60006001600160401b038281166002600160401b03198101620005e057634e487b7160e01b600052601160045260246000fd5b6001019392505050565b608051614635620006146000396000818161085501528181611708015261229801526146356000f3fe60806040526004361061029f5760003560e01c80638585c9451161016e578063c7a823e0116100cb578063d547741f1161007f578063f010cb2311610064578063f010cb2314610906578063f3b4ebd014610926578063fd62e7501461094657600080fd5b8063d547741f146108c6578063dafe0ccc146108e657600080fd5b8063cd88b903116100b0578063cd88b90314610823578063cf34c76814610843578063d2ae21041461088c57600080fd5b8063c7a823e0146107d5578063c7b2370b1461080357600080fd5b8063aef18bf711610122578063c358de0a11610107578063c358de0a14610763578063c416aa5114610783578063c5e193cd146107b557600080fd5b8063aef18bf714610713578063b143044b1461074357600080fd5b806395d376d71161015357806395d376d7146106465780639e94496514610659578063a217fddf146106fe57600080fd5b80638585c945146105d557806391d14854146105f557600080fd5b80632f2ff15d1161021c5780635553fb8e116101d0578063724e78da116101b5578063724e78da14610533578063736c0d5b14610553578063741bef1a1461058357600080fd5b80635553fb8e146104fb5780635c975abb1461051b57600080fd5b806331cb61051161020157806331cb61051461049b57806336568abe146104bb57806352d3b871146104db57600080fd5b80632f2ff15d1461045b57806330bb3aac1461047b57600080fd5b806316c38b3c11610273578063248a9ca311610258578063248a9ca3146103d057806326e67a371461040e5780632de113761461043b57600080fd5b806316c38b3c1461036a5780631703a0181461038a57600080fd5b8062bf2e80146102a457806301e33667146102f857806301ffc9a71461031a5780631095b6d71461034a575b600080fd5b3480156102b057600080fd5b506001546102e0907d010000000000000000000000000000000000000000000000000000000000900461ffff1681565b60405161ffff90911681526020015b60405180910390f35b34801561030457600080fd5b50610318610313366004613732565b610967565b005b34801561032657600080fd5b5061033a610335366004613773565b6109a2565b60405190151581526020016102ef565b34801561035657600080fd5b50610318610365366004613732565b610a3b565b34801561037657600080fd5b506103186103853660046137c3565b610bcb565b34801561039657600080fd5b506005546103b79068010000000000000000900467ffffffffffffffff1681565b60405167ffffffffffffffff90911681526020016102ef565b3480156103dc57600080fd5b506104006103eb3660046137e0565b60009081526020819052604090206001015490565b6040519081526020016102ef565b34801561041a57600080fd5b5061042e61042936600461380d565b610bf0565b6040516102ef9190613828565b34801561044757600080fd5b5061033a61045636600461386f565b610c77565b34801561046757600080fd5b5061031861047636600461388c565b610d5c565b34801561048757600080fd5b50610400610496366004613916565b610eb0565b3480156104a757600080fd5b506103186104b636600461398e565b611027565b3480156104c757600080fd5b506103186104d636600461388c565b61106a565b3480156104e757600080fd5b506103186104f63660046139bc565b61109c565b34801561050757600080fd5b50610400610516366004613a43565b611268565b34801561052757600080fd5b5060015460ff1661033a565b34801561053f57600080fd5b5061031861054e36600461386f565b6113df565b34801561055f57600080fd5b5061033a61056e36600461386f565b60046020526000908152604090205460ff1681565b34801561058f57600080fd5b506002546105b09073ffffffffffffffffffffffffffffffffffffffff1681565b60405173ffffffffffffffffffffffffffffffffffffffff90911681526020016102ef565b3480156105e157600080fd5b506103186105f0366004613a99565b611484565b34801561060157600080fd5b5061033a61061036600461388c565b60009182526020828152604080842073ffffffffffffffffffffffffffffffffffffffff93909316845291905290205460ff1690565b610400610654366004613acc565b6114c9565b34801561066557600080fd5b506106c361067436600461380d565b60066020526000908152604090205467ffffffffffffffff81169068010000000000000000810461ffff16906a010000000000000000000090046fffffffffffffffffffffffffffffffff1683565b6040805167ffffffffffffffff909416845261ffff90921660208401526fffffffffffffffffffffffffffffffff16908201526060016102ef565b34801561070a57600080fd5b50610400600081565b34801561071f57600080fd5b5061033a61072e3660046137e0565b60076020526000908152604090205460ff1681565b34801561074f57600080fd5b5061031861075e366004613b7a565b6116a5565b34801561076f57600080fd5b5061031861077e366004613bbc565b6119b5565b34801561078f57600080fd5b506001546105b090610100900473ffffffffffffffffffffffffffffffffffffffff1681565b3480156107c157600080fd5b506104006107d0366004613a43565b611a63565b3480156107e157600080fd5b506107f56107f0366004613bd7565b611c41565b6040516102ef929190613c45565b34801561080f57600080fd5b5061031861081e36600461386f565b611e51565b34801561082f57600080fd5b5061031861083e366004613c92565b611ef5565b34801561084f57600080fd5b506108777f000000000000000000000000000000000000000000000000000000000000000081565b60405163ffffffff90911681526020016102ef565b34801561089857600080fd5b506001546103b7907501000000000000000000000000000000000000000000900467ffffffffffffffff1681565b3480156108d257600080fd5b506103186108e136600461388c565b611f46565b3480156108f257600080fd5b50610318610901366004613732565b61205b565b34801561091257600080fd5b50610400610921366004613cd8565b612191565b34801561093257600080fd5b50610318610941366004613d43565b6121cd565b34801561095257600080fd5b506005546103b79067ffffffffffffffff1681565b7fa49807205ce4d355092ef5a8a18f56e8913cf4a201fbe287825b095693c2177561099181612442565b61099c84848461244c565b50505050565b60007fffffffff0000000000000000000000000000000000000000000000000000000082167f7965db0b000000000000000000000000000000000000000000000000000000001480610a3557507f01ffc9a7000000000000000000000000000000000000000000000000000000007fffffffff000000000000000000000000000000000000000000000000000000008316145b92915050565b7fa49807205ce4d355092ef5a8a18f56e8913cf4a201fbe287825b095693c21775610a6581612442565b73ffffffffffffffffffffffffffffffffffffffff841660009081527f9b50f4667d2d24216ccbf0dce3a90c0f620fa4d895e7b069d80ff6247fd25620602052604090205460ff16610ae3576040517f5ee08b9700000000000000000000000000000000000000000000000000000000815260040160405180910390fd5b6040517ffd9be52200000000000000000000000000000000000000000000000000000000815273ffffffffffffffffffffffffffffffffffffffff84811660048301526024820184905285169063fd9be52290604401600060405180830381600087803b158015610b5357600080fd5b505af1158015610b67573d6000803e3d6000fd5b50506040805173ffffffffffffffffffffffffffffffffffffffff8089168252871660208201529081018590527f9b1bfa7fa9ee420a16e124f794c35ac9f90472acc99140eb2f6447c714cad8eb925060600190505b60405180910390a150505050565b6000610bd681612442565b8115610be857610be461247c565b5050565b610be46124fb565b63ffffffff8116600090815260036020908152604091829020805483518184028101840190945280845260609392830182828015610c6b57602002820191906000526020600020906000905b825461010083900a900460ff16815260206001928301818104948501949093039092029101808411610c3c5790505b50505050509050919050565b73ffffffffffffffffffffffffffffffffffffffff811660009081527f93c430521711328044ae92d0f1f1286cf040bc4a382f1642bd89984e86630553602052604081205460ff1615610ccc57506000919050565b6001547501000000000000000000000000000000000000000000900467ffffffffffffffff161580610d42575073ffffffffffffffffffffffffffffffffffffffff821660009081527f4ac82e3087b7dedf7f532cbc6915c722df8c1e31f1388c318a617b52760eaf8b602052604090205460ff165b15610d4f57506001919050565b506000919050565b919050565b817f74845de37cfabd357633214b47fa91ccd19b05b7c5a08ac22c187f811fb62bca811480610daa57507f4270fae16c6d150d00e80b689daca99e8073b1838ff2b6063a37be9d851283e481145b80610dd457507f724aface199fe5bed93ae8508474576a9adf3dc443b2c451842a2242919f19de81145b15610e1757303314610e12576040517ffaba723a00000000000000000000000000000000000000000000000000000000815260040160405180910390fd5b610ea1565b7fa49807205ce4d355092ef5a8a18f56e8913cf4a201fbe287825b095693c217758103610e6757610e127fa49807205ce4d355092ef5a8a18f56e8913cf4a201fbe287825b095693c21775612442565b6040517f94fdc372000000000000000000000000000000000000000000000000000000008152600481018290526024015b60405180910390fd5b610eab8383612552565b505050565b600083610ebc81610c77565b610ef2576040517f4ab5ebcd00000000000000000000000000000000000000000000000000000000815260040160405180910390fd5b6040805160c08101825260025473ffffffffffffffffffffffffffffffffffffffff908116825263ffffffff8a16602080840182905267ffffffffffffffff808c16858701528a8416606086015260055468010000000000000000900416608085015260015461ffff7d01000000000000000000000000000000000000000000000000000000000082041660a0860152600092835260069091529084902093517f7bfa20a9000000000000000000000000000000000000000000000000000000008152929361010090910490911691637bfa20a991610fda918591908a908a90600401613dc1565b602060405180830381865afa158015610ff7573d6000803e3d6000fd5b505050506040513d601f19601f8201168201806040525081019061101b9190613e8e565b98975050505050505050565b303314611060576040517ffaba723a00000000000000000000000000000000000000000000000000000000815260040160405180910390fd5b610be48282612618565b6040517fdec9f03100000000000000000000000000000000000000000000000000000000815260040160405180910390fd5b7fa49807205ce4d355092ef5a8a18f56e8913cf4a201fbe287825b095693c217756110c681612442565b60005b8281101561122957368484838181106110e4576110e4613ea7565b9050608002019050604051806060016040528082602001602081019061110a9190613a99565b67ffffffffffffffff1681526020016111296060840160408501613bbc565b61ffff1681526020016111426080840160608501613ef6565b6fffffffffffffffffffffffffffffffff16905260066000611167602085018561380d565b63ffffffff1681526020808201929092526040908101600020835181549385015194909201516fffffffffffffffffffffffffffffffff166a0100000000000000000000027fffffffffffff00000000000000000000000000000000ffffffffffffffffffff61ffff90951668010000000000000000027fffffffffffffffffffffffffffffffffffffffffffff0000000000000000000090941667ffffffffffffffff909316929092179290921792909216919091179055506001016110c9565b507f7dd21e42791b013d1929e86f0c59085e4fca24251f0f1aa81917b3b1611766e0838360405161125b929190613f11565b60405180910390a1505050565b60008161127481610c77565b6112aa576040517f4ab5ebcd00000000000000000000000000000000000000000000000000000000815260040160405180910390fd5b6040805160c08101825260025473ffffffffffffffffffffffffffffffffffffffff908116825261ffff808a16602080850182905267ffffffffffffffff808b168688015289851660608701526005546801000000000000000090041660808601526001547d010000000000000000000000000000000000000000000000000000000000810490931660a08601526000918252600681528582208651918201875291815294517f7bfa20a9000000000000000000000000000000000000000000000000000000008152939461010090920490921692637bfa20a99261139392869260040161401d565b602060405180830381865afa1580156113b0573d6000803e3d6000fd5b505050506040513d601f19601f820116820180604052508101906113d49190613e8e565b979650505050505050565b7fa49807205ce4d355092ef5a8a18f56e8913cf4a201fbe287825b095693c2177561140981612442565b600280547fffffffffffffffffffffffff00000000000000000000000000000000000000001673ffffffffffffffffffffffffffffffffffffffff84169081179091556040519081527ff724a45d041687842411f2b977ef22ab8f43c8f1104f4592b42a00f9b34a643d906020015b60405180910390a15050565b3033146114bd576040517ffaba723a00000000000000000000000000000000000000000000000000000000815260040160405180910390fd5b6114c681612818565b50565b60007f724aface199fe5bed93ae8508474576a9adf3dc443b2c451842a2242919f19de6114f581612442565b61150560a086016080870161386f565b61150e81610c77565b611544576040517f4ab5ebcd00000000000000000000000000000000000000000000000000000000815260040160405180910390fd5b6040805160c0810190915260025473ffffffffffffffffffffffffffffffffffffffff16815260009060208082019061157f908a018a61380d565b63ffffffff16815260200161159a60808a0160608b01613a99565b67ffffffffffffffff1681526020016115b960a08a0160808b0161386f565b73ffffffffffffffffffffffffffffffffffffffff908116825260055468010000000000000000900467ffffffffffffffff166020808401919091526001547d010000000000000000000000000000000000000000000000000000000000810461ffff16604090940193909352929350610100909104169063df2b057e90839060069060009061164b908d018d61380d565b63ffffffff1663ffffffff16815260200190815260200160002089896040518563ffffffff1660e01b81526004016116869493929190613dc1565b6020604051808303816000875af11580156113b0573d6000803e3d6000fd5b7fa49807205ce4d355092ef5a8a18f56e8913cf4a201fbe287825b095693c217756116cf81612442565b60005b8281101561099c57368484838181106116ed576116ed613ea7565b90506020028101906116ff91906140f3565b905063ffffffff7f000000000000000000000000000000000000000000000000000000000000000016611735602083018361380d565b63ffffffff161461174657506119ad565b4281606001351161175757506119ad565b6000611790611769602084018461380d565b611779604085016020860161386f565b6117866040860186614131565b8660600135612191565b905060006117a5826107f06080860186614131565b509050806117e8576040518481527fd6d90193101048cc1b6edcdc2348f5acf7a4a4a97d3e7b668b74cb7602ab3ebc9060200160405180910390a15050506119ad565b60006118086117fa6040860186614131565b61180391614196565b612930565b905080156118a15760008381526007602052604090205460ff1615611869577f9bb9bddbdf537a2104255307230b323d7982f4512ee8e5bd15df62ddca50ab978484604051611858929190614242565b60405180910390a1505050506119ad565b600083815260076020526040902080547fffffffffffffffffffffffffffffffffffffffffffffffffffffffffffffff001660011790555b6000806118b4604087016020880161386f565b73ffffffffffffffffffffffffffffffffffffffff166118d76040880188614131565b6040516118e5929190614308565b6000604051808303816000865af19150503d8060008114611922576040519150601f19603f3d011682016040523d82523d6000602084013e611927565b606091505b5091509150816119a657821561196c57600085815260076020526040902080547fffffffffffffffffffffffffffffffffffffffffffffffffffffffffffffff001690555b7fdc8cdd96296241bbefda4a8e18ad2e0985a8da6495b34d409cfc4c886ee3b0cf878260405161199d929190614318565b60405180910390a15b5050505050505b6001016116d2565b7fa49807205ce4d355092ef5a8a18f56e8913cf4a201fbe287825b095693c217756119df81612442565b600180547fff0000ffffffffffffffffffffffffffffffffffffffffffffffffffffffffff167d01000000000000000000000000000000000000000000000000000000000061ffff8516908102919091179091556040519081527f7af0ac740036ffb1c97b03697859d729e80a44ae5030543d64971c313565ab4d90602001611478565b60007f724aface199fe5bed93ae8508474576a9adf3dc443b2c451842a2242919f19de611a8f81612442565b82611a9981610c77565b611acf576040517f4ab5ebcd00000000000000000000000000000000000000000000000000000000815260040160405180910390fd5b6040805160c08101825260025473ffffffffffffffffffffffffffffffffffffffff908116825261ffff808b16602080850182905267ffffffffffffffff808c16868801528a851660608701526005546801000000000000000090041660808601526001547d010000000000000000000000000000000000000000000000000000000000810490931660a08601526000918252600681528582208651918201875291815294517fdf2b057e00000000000000000000000000000000000000000000000000000000815293946101009092049092169263df2b057e92611bb892869260040161401d565b6020604051808303816000875af1158015611bd7573d6000803e3d6000fd5b505050506040513d601f19601f82011682018060405250810190611bfb9190613e8e565b93507f87e46b0a6199bc734632187269a103c05714ee0adae5b28f30723955724f37ef84604051611c2e91815260200190565b60405180910390a1505050949350505050565b6005546000908190611c6a9068010000000000000000900467ffffffffffffffff166041614360565b8314611c7c5750600090506001611e49565b6000611cd5866040517f19457468657265756d205369676e6564204d6573736167653a0a3332000000006020820152603c8101829052600090605c01604051602081830303815290604052805190602001209050919050565b90506000805b60055468010000000000000000900467ffffffffffffffff16811015611e3d573660008888611d0b856041614360565b90611d17866001614377565b611d22906041614360565b92611d2f9392919061438a565b91509150600080611d768785858080601f0160208091040260200160405190810160405280939291908181526020018383808284376000920191909152506129cb92505050565b90925090506000816004811115611d8f57611d8f613c16565b14611da857600060019850985050505050505050611e49565b8573ffffffffffffffffffffffffffffffffffffffff168273ffffffffffffffffffffffffffffffffffffffff1611611def57600060029850985050505050505050611e49565b73ffffffffffffffffffffffffffffffffffffffff821660009081526004602052604090205460ff16611e3057600060039850985050505050505050611e49565b5093505050600101611cdb565b50600160009350935050505b935093915050565b7fa49807205ce4d355092ef5a8a18f56e8913cf4a201fbe287825b095693c21775611e7b81612442565b600180547fffffffffffffffffffffff0000000000000000000000000000000000000000ff1661010073ffffffffffffffffffffffffffffffffffffffff8516908102919091179091556040519081527f1399be28223800f8669b3ba5f8721d9fc16fc4e8d0bbf98378791c8c5a3015e090602001611478565b7fa49807205ce4d355092ef5a8a18f56e8913cf4a201fbe287825b095693c21775611f1f81612442565b63ffffffff84166000908152600360205260409020611f3f908484613652565b5050505050565b817f74845de37cfabd357633214b47fa91ccd19b05b7c5a08ac22c187f811fb62bca811480611f9457507f4270fae16c6d150d00e80b689daca99e8073b1838ff2b6063a37be9d851283e481145b80611fbe57507f724aface199fe5bed93ae8508474576a9adf3dc443b2c451842a2242919f19de81145b1561200157303314611ffc576040517ffaba723a00000000000000000000000000000000000000000000000000000000815260040160405180910390fd5b612051565b7fa49807205ce4d355092ef5a8a18f56e8913cf4a201fbe287825b095693c217758103610e6757611ffc7fa49807205ce4d355092ef5a8a18f56e8913cf4a201fbe287825b095693c21775612442565b610eab8383612a10565b7fa49807205ce4d355092ef5a8a18f56e8913cf4a201fbe287825b095693c2177561208581612442565b73ffffffffffffffffffffffffffffffffffffffff841660009081527f9b50f4667d2d24216ccbf0dce3a90c0f620fa4d895e7b069d80ff6247fd25620602052604090205460ff16612103576040517f5ee08b9700000000000000000000000000000000000000000000000000000000815260040160405180910390fd5b6040517f07b18bde00000000000000000000000000000000000000000000000000000000815273ffffffffffffffffffffffffffffffffffffffff8481166004830152602482018490528516906307b18bde90604401600060405180830381600087803b15801561217357600080fd5b505af1158015612187573d6000803e3d6000fd5b5050505050505050565b600085858386866040516020016121ac9594939291906143b4565b60405160208183030381529060405280519060200120905095945050505050565b4281606001351161220a576040517f0bbaf26300000000000000000000000000000000000000000000000000000000815260040160405180910390fd5b3061221b604083016020840161386f565b73ffffffffffffffffffffffffffffffffffffffff161461229157612246604082016020830161386f565b6040517f1ce0bfcd00000000000000000000000000000000000000000000000000000000815273ffffffffffffffffffffffffffffffffffffffff9091166004820152602401610e98565b63ffffffff7f0000000000000000000000000000000000000000000000000000000000000000166122c5602083018361380d565b63ffffffff1614612318576122dd602082018261380d565b6040517f2697e1c200000000000000000000000000000000000000000000000000000000815263ffffffff9091166004820152602401610e98565b600061232a611769602084018461380d565b9050600061233f826107f06080860186614131565b50905080612379576040517f15ecadee00000000000000000000000000000000000000000000000000000000815260040160405180910390fd5b60008281526007602052604090205460ff16156123c5576040517f9d6a45a600000000000000000000000000000000000000000000000000000000815260048101839052602401610e98565b6000828152600760205260409081902080547fffffffffffffffffffffffffffffffffffffffffffffffffffffffffffffff00166001179055610eab907fa49807205ce4d355092ef5a8a18f56e8913cf4a201fbe287825b095693c217759061243090860186614131565b81019061243d919061386f565b612552565b6114c68133612ad5565b73ffffffffffffffffffffffffffffffffffffffff831661247157610eab8282612b8d565b610eab838383612c93565b612484612d01565b600180547fffffffffffffffffffffffffffffffffffffffffffffffffffffffffffffff0016811790557f62e78cea01bee320cd4e420270b5ea74000d11b0c9f74754ebdbfc544b05a258335b60405173ffffffffffffffffffffffffffffffffffffffff909116815260200160405180910390a1565b612503612d70565b600180547fffffffffffffffffffffffffffffffffffffffffffffffffffffffffffffff001690557f5db9ee0a495bf2e6ff9c91a7834c1ba4fdd244a5e8aa4e537bd38aeae4b073aa336124d1565b7f74845de37cfabd357633214b47fa91ccd19b05b7c5a08ac22c187f811fb62bca821480156125af575060008281526020818152604080832073ffffffffffffffffffffffffffffffffffffffff8516845290915290205460ff16155b1561260e57600180546015906125e7907501000000000000000000000000000000000000000000900467ffffffffffffffff16614426565b91906101000a81548167ffffffffffffffff021916908367ffffffffffffffff1602179055505b610be48282612ddc565b73ffffffffffffffffffffffffffffffffffffffff821660009081526004602052604090205481151560ff90911615150361269f576040517f58c8d2a000000000000000000000000000000000000000000000000000000000815273ffffffffffffffffffffffffffffffffffffffff831660048201528115156024820152604401610e98565b73ffffffffffffffffffffffffffffffffffffffff8216600090815260046020526040812080547fffffffffffffffffffffffffffffffffffffffffffffffffffffffffffffff0016831515179055816127115760055461270c9060019067ffffffffffffffff1661444d565b612729565b6005546127299067ffffffffffffffff166001614475565b60055490915067ffffffffffffffff680100000000000000009091048116908216811115612797576040517ff1c582ae00000000000000000000000000000000000000000000000000000000815267ffffffffffffffff808416600483015282166024820152604401610e98565b600580547fffffffffffffffffffffffffffffffffffffffffffffffff00000000000000001667ffffffffffffffff84161790556040805173ffffffffffffffffffffffffffffffffffffffff8616815284151560208201527f863d338cad74814b108a06288ad5e0e80d56495e0332238b1d2cdcfa0ca8e5ce9101610bbd565b8067ffffffffffffffff1660000361285c576040517f5f86e17700000000000000000000000000000000000000000000000000000000815260040160405180910390fd5b60055467ffffffffffffffff9081169082168110156128bb576040517ff1c582ae00000000000000000000000000000000000000000000000000000000815267ffffffffffffffff808316600483015283166024820152604401610e98565b600580547fffffffffffffffffffffffffffffffff0000000000000000ffffffffffffffff166801000000000000000067ffffffffffffffff8516908102919091179091556040519081527fb600f3cf7f38a4b49bb0c75f722ef69f7e3e39ef3bb4aa8207fd86e724a2324990602001611478565b60007fffffffff0000000000000000000000000000000000000000000000000000000082167f0223536e0000000000000000000000000000000000000000000000000000000014801590610a3557507fffffffff0000000000000000000000000000000000000000000000000000000082167f704316e500000000000000000000000000000000000000000000000000000000141592915050565b6000808251604103612a015760208301516040840151606085015160001a6129f587828585612ecc565b94509450505050612a09565b506000905060025b9250929050565b7f74845de37cfabd357633214b47fa91ccd19b05b7c5a08ac22c187f811fb62bca82148015612a6c575060008281526020818152604080832073ffffffffffffffffffffffffffffffffffffffff8516845290915290205460ff165b15612acb5760018054601590612aa4907501000000000000000000000000000000000000000000900467ffffffffffffffff16614496565b91906101000a81548167ffffffffffffffff021916908367ffffffffffffffff1602179055505b610be48282612fbb565b60008281526020818152604080832073ffffffffffffffffffffffffffffffffffffffff8516845290915290205460ff16610be457612b1381613072565b612b1e836020613091565b604051602001612b2f9291906144d8565b604080517fffffffffffffffffffffffffffffffffffffffffffffffffffffffffffffffe0818403018152908290527f08c379a0000000000000000000000000000000000000000000000000000000008252610e9891600401614559565b73ffffffffffffffffffffffffffffffffffffffff8216612bda576040517f6b7a931000000000000000000000000000000000000000000000000000000000815260040160405180910390fd5b60008273ffffffffffffffffffffffffffffffffffffffff168260405160006040518083038185875af1925050503d8060008114612c34576040519150601f19603f3d011682016040523d82523d6000602084013e612c39565b606091505b5050905080610eab576040517f465bc83400000000000000000000000000000000000000000000000000000000815273ffffffffffffffffffffffffffffffffffffffff8416600482015260248101839052604401610e98565b73ffffffffffffffffffffffffffffffffffffffff8216612ce0576040517f6b7a931000000000000000000000000000000000000000000000000000000000815260040160405180910390fd5b610eab73ffffffffffffffffffffffffffffffffffffffff841683836132db565b60015460ff1615612d6e576040517f08c379a000000000000000000000000000000000000000000000000000000000815260206004820152601060248201527f5061757361626c653a20706175736564000000000000000000000000000000006044820152606401610e98565b565b60015460ff16612d6e576040517f08c379a000000000000000000000000000000000000000000000000000000000815260206004820152601460248201527f5061757361626c653a206e6f74207061757365640000000000000000000000006044820152606401610e98565b60008281526020818152604080832073ffffffffffffffffffffffffffffffffffffffff8516845290915290205460ff16610be45760008281526020818152604080832073ffffffffffffffffffffffffffffffffffffffff85168452909152902080547fffffffffffffffffffffffffffffffffffffffffffffffffffffffffffffff00166001179055612e6e3390565b73ffffffffffffffffffffffffffffffffffffffff168173ffffffffffffffffffffffffffffffffffffffff16837f2f8788117e7eff1d82e926ec794901d17c78024a50270940304540a733656f0d60405160405180910390a45050565b6000807f7fffffffffffffffffffffffffffffff5d576e7357a4501ddfe92f46681b20a0831115612f035750600090506003612fb2565b6040805160008082526020820180845289905260ff881692820192909252606081018690526080810185905260019060a0016020604051602081039080840390855afa158015612f57573d6000803e3d6000fd5b50506040517fffffffffffffffffffffffffffffffffffffffffffffffffffffffffffffffe0015191505073ffffffffffffffffffffffffffffffffffffffff8116612fab57600060019250925050612fb2565b9150600090505b94509492505050565b60008281526020818152604080832073ffffffffffffffffffffffffffffffffffffffff8516845290915290205460ff1615610be45760008281526020818152604080832073ffffffffffffffffffffffffffffffffffffffff8516808552925280832080547fffffffffffffffffffffffffffffffffffffffffffffffffffffffffffffff0016905551339285917ff6391f5c32d9c69d2a47ea670b442974b53935d1edc7fd64eb21e047a839171b9190a45050565b6060610a3573ffffffffffffffffffffffffffffffffffffffff831660145b606060006130a0836002614360565b6130ab906002614377565b67ffffffffffffffff8111156130c3576130c361456c565b6040519080825280601f01601f1916602001820160405280156130ed576020820181803683370190505b5090507f30000000000000000000000000000000000000000000000000000000000000008160008151811061312457613124613ea7565b60200101907effffffffffffffffffffffffffffffffffffffffffffffffffffffffffffff1916908160001a9053507f78000000000000000000000000000000000000000000000000000000000000008160018151811061318757613187613ea7565b60200101907effffffffffffffffffffffffffffffffffffffffffffffffffffffffffffff1916908160001a90535060006131c3846002614360565b6131ce906001614377565b90505b600181111561326b577f303132333435363738396162636465660000000000000000000000000000000085600f166010811061320f5761320f613ea7565b1a60f81b82828151811061322557613225613ea7565b60200101907effffffffffffffffffffffffffffffffffffffffffffffffffffffffffffff1916908160001a90535060049490941c936132648161459b565b90506131d1565b5083156132d4576040517f08c379a000000000000000000000000000000000000000000000000000000000815260206004820181905260248201527f537472696e67733a20686578206c656e67746820696e73756666696369656e746044820152606401610e98565b9392505050565b6040805173ffffffffffffffffffffffffffffffffffffffff848116602483015260448083018590528351808403909101815260649092018352602080830180517bffffffffffffffffffffffffffffffffffffffffffffffffffffffff167fa9059cbb0000000000000000000000000000000000000000000000000000000017905283518085019094528084527f5361666545524332303a206c6f772d6c6576656c2063616c6c206661696c656490840152610eab928692916000916133a6918516908490613453565b90508051600014806133c75750808060200190518101906133c791906145d0565b610eab576040517f08c379a000000000000000000000000000000000000000000000000000000000815260206004820152602a60248201527f5361666545524332303a204552433230206f7065726174696f6e20646964206e60448201527f6f742073756363656564000000000000000000000000000000000000000000006064820152608401610e98565b6060613462848460008561346a565b949350505050565b6060824710156134fc576040517f08c379a000000000000000000000000000000000000000000000000000000000815260206004820152602660248201527f416464726573733a20696e73756666696369656e742062616c616e636520666f60448201527f722063616c6c00000000000000000000000000000000000000000000000000006064820152608401610e98565b6000808673ffffffffffffffffffffffffffffffffffffffff16858760405161352591906145ed565b60006040518083038185875af1925050503d8060008114613562576040519150601f19603f3d011682016040523d82523d6000602084013e613567565b606091505b50915091506113d487838387606083156136095782516000036136025773ffffffffffffffffffffffffffffffffffffffff85163b613602576040517f08c379a000000000000000000000000000000000000000000000000000000000815260206004820152601d60248201527f416464726573733a2063616c6c20746f206e6f6e2d636f6e74726163740000006044820152606401610e98565b5081613462565b613462838381511561361e5781518083602001fd5b806040517f08c379a0000000000000000000000000000000000000000000000000000000008152600401610e989190614559565b82805482825590600052602060002090601f016020900481019282156136eb5791602002820160005b838211156136bc57833560ff1683826101000a81548160ff021916908360ff160217905550926020019260010160208160000104928301926001030261367b565b80156136e95782816101000a81549060ff02191690556001016020816000010492830192600103026136bc565b505b506136f79291506136fb565b5090565b5b808211156136f757600081556001016136fc565b73ffffffffffffffffffffffffffffffffffffffff811681146114c657600080fd5b60008060006060848603121561374757600080fd5b833561375281613710565b9250602084013561376281613710565b929592945050506040919091013590565b60006020828403121561378557600080fd5b81357fffffffff00000000000000000000000000000000000000000000000000000000811681146132d457600080fd5b80151581146114c657600080fd5b6000602082840312156137d557600080fd5b81356132d4816137b5565b6000602082840312156137f257600080fd5b5035919050565b803563ffffffff81168114610d5757600080fd5b60006020828403121561381f57600080fd5b6132d4826137f9565b6020808252825182820181905260009190848201906040850190845b8181101561386357835160ff1683529284019291840191600101613844565b50909695505050505050565b60006020828403121561388157600080fd5b81356132d481613710565b6000806040838503121561389f57600080fd5b8235915060208301356138b181613710565b809150509250929050565b803567ffffffffffffffff81168114610d5757600080fd5b60008083601f8401126138e657600080fd5b50813567ffffffffffffffff8111156138fe57600080fd5b602083019150836020828501011115612a0957600080fd5b60008060008060006080868803121561392e57600080fd5b613937866137f9565b9450613945602087016138bc565b9350604086013561395581613710565b9250606086013567ffffffffffffffff81111561397157600080fd5b61397d888289016138d4565b969995985093965092949392505050565b600080604083850312156139a157600080fd5b82356139ac81613710565b915060208301356138b1816137b5565b600080602083850312156139cf57600080fd5b823567ffffffffffffffff808211156139e757600080fd5b818501915085601f8301126139fb57600080fd5b813581811115613a0a57600080fd5b8660208260071b8501011115613a1f57600080fd5b60209290920196919550909350505050565b803561ffff81168114610d5757600080fd5b60008060008060808587031215613a5957600080fd5b613a6285613a31565b9350613a7060208601613a31565b9250613a7e604086016138bc565b91506060850135613a8e81613710565b939692955090935050565b600060208284031215613aab57600080fd5b6132d4826138bc565b600060a08284031215613ac657600080fd5b50919050565b600080600060408486031215613ae157600080fd5b833567ffffffffffffffff80821115613af957600080fd5b613b0587838801613ab4565b94506020860135915080821115613b1b57600080fd5b50613b28868287016138d4565b9497909650939450505050565b60008083601f840112613b4757600080fd5b50813567ffffffffffffffff811115613b5f57600080fd5b6020830191508360208260051b8501011115612a0957600080fd5b60008060208385031215613b8d57600080fd5b823567ffffffffffffffff811115613ba457600080fd5b613bb085828601613b35565b90969095509350505050565b600060208284031215613bce57600080fd5b6132d482613a31565b600080600060408486031215613bec57600080fd5b83359250602084013567ffffffffffffffff811115613c0a57600080fd5b613b28868287016138d4565b7f4e487b7100000000000000000000000000000000000000000000000000000000600052602160045260246000fd5b82151581526040810160048310613c85577f4e487b7100000000000000000000000000000000000000000000000000000000600052602160045260246000fd5b8260208301529392505050565b600080600060408486031215613ca757600080fd5b613cb0846137f9565b9250602084013567ffffffffffffffff811115613ccc57600080fd5b613b2886828701613b35565b600080600080600060808688031215613cf057600080fd5b613cf9866137f9565b94506020860135613d0981613710565b9350604086013567ffffffffffffffff811115613d2557600080fd5b613d31888289016138d4565b96999598509660600135949350505050565b600060208284031215613d5557600080fd5b813567ffffffffffffffff811115613d6c57600080fd5b61346284828501613ab4565b8183528181602085013750600060208284010152600060207fffffffffffffffffffffffffffffffffffffffffffffffffffffffffffffffe0601f840116840101905092915050565b6000610140613e39838873ffffffffffffffffffffffffffffffffffffffff80825116835263ffffffff6020830151166020840152604082015167ffffffffffffffff808216604086015282606085015116606086015280608085015116608086015250505061ffff60a08201511660a08301525050565b613e7a60c08401875467ffffffffffffffff81168252604081811c61ffff16602084015260509190911c6fffffffffffffffffffffffffffffffff16910152565b806101208401526113d48184018587613d78565b600060208284031215613ea057600080fd5b5051919050565b7f4e487b7100000000000000000000000000000000000000000000000000000000600052603260045260246000fd5b80356fffffffffffffffffffffffffffffffff81168114610d5757600080fd5b600060208284031215613f0857600080fd5b6132d482613ed6565b6020808252818101839052600090604080840186845b87811015613fa25763ffffffff613f3d836137f9565b16835267ffffffffffffffff613f548684016138bc565b168584015261ffff613f67858401613a31565b168484015260606fffffffffffffffffffffffffffffffff613f8a828501613ed6565b16908401526080928301929190910190600101613f27565b5090979650505050505050565b60005b83811015613fca578181015183820152602001613fb2565b50506000910152565b60008151808452613feb816020860160208601613faf565b601f017fffffffffffffffffffffffffffffffffffffffffffffffffffffffffffffffe0169290920160200192915050565b6000610140614095838773ffffffffffffffffffffffffffffffffffffffff80825116835263ffffffff6020830151166020840152604082015167ffffffffffffffff808216604086015282606085015116606086015280608085015116608086015250505061ffff60a08201511660a08301525050565b6140d660c08401865467ffffffffffffffff81168252604081811c61ffff16602084015260509190911c6fffffffffffffffffffffffffffffffff16910152565b806101208401526140e981840185613fd3565b9695505050505050565b600082357fffffffffffffffffffffffffffffffffffffffffffffffffffffffffffffff6183360301811261412757600080fd5b9190910192915050565b60008083357fffffffffffffffffffffffffffffffffffffffffffffffffffffffffffffffe184360301811261416657600080fd5b83018035915067ffffffffffffffff82111561418157600080fd5b602001915036819003821315612a0957600080fd5b7fffffffff0000000000000000000000000000000000000000000000000000000081358181169160048510156141d65780818660040360031b1b83161692505b505092915050565b60008083357fffffffffffffffffffffffffffffffffffffffffffffffffffffffffffffffe184360301811261421357600080fd5b830160208101925035905067ffffffffffffffff81111561423357600080fd5b803603821315612a0957600080fd5b6040815263ffffffff614254846137f9565b1660408201526000602084013561426a81613710565b73ffffffffffffffffffffffffffffffffffffffff16606083015261429260408501856141de565b60a060808501526142a760e085018284613d78565b915050606085013560a08401526142c160808601866141de565b7fffffffffffffffffffffffffffffffffffffffffffffffffffffffffffffffc08584030160c08601526142f6838284613d78565b93505050508260208301529392505050565b8183823760009101908152919050565b8281526040602082015260006134626040830184613fd3565b7f4e487b7100000000000000000000000000000000000000000000000000000000600052601160045260246000fd5b8082028115828204841417610a3557610a35614331565b80820180821115610a3557610a35614331565b6000808585111561439a57600080fd5b838611156143a757600080fd5b5050820193919092039150565b7fffffffff000000000000000000000000000000000000000000000000000000008660e01b1681527fffffffffffffffffffffffffffffffffffffffff0000000000000000000000008560601b1660048201528360188201528183603883013760009101603801908152949350505050565b600067ffffffffffffffff80831681810361444357614443614331565b6001019392505050565b67ffffffffffffffff82811682821603908082111561446e5761446e614331565b5092915050565b67ffffffffffffffff81811683821601908082111561446e5761446e614331565b600067ffffffffffffffff8216806144b0576144b0614331565b7fffffffffffffffffffffffffffffffffffffffffffffffffffffffffffffffff0192915050565b7f416363657373436f6e74726f6c3a206163636f756e7420000000000000000000815260008351614510816017850160208801613faf565b7f206973206d697373696e6720726f6c6520000000000000000000000000000000601791840191820152835161454d816028840160208801613faf565b01602801949350505050565b6020815260006132d46020830184613fd3565b7f4e487b7100000000000000000000000000000000000000000000000000000000600052604160045260246000fd5b6000816145aa576145aa614331565b507fffffffffffffffffffffffffffffffffffffffffffffffffffffffffffffffff0190565b6000602082840312156145e257600080fd5b81516132d4816137b5565b60008251614127818460208701613faf56fea26469706673582212203bbe4130b724e4631c4c6f87b83f72ac3cf2191c52aaeebca1c58765355defa764736f6c63430008160033","linkReferences":{}},"methodIdentifiers":{"DEFAULT_ADMIN_ROLE()":"a217fddf","allowlistSize()":"d2ae2104","assignJob((uint32,bytes,bytes32,uint64,address),bytes)":"95d376d7","assignJob(uint16,uint16,uint64,address)":"c5e193cd","defaultMultiplierBps()":"00bf2e80","dstConfig(uint32)":"9e944965","execute((uint32,address,bytes,uint256,bytes)[])":"b143044b","getFee(uint16,uint16,uint64,address)":"5553fb8e","getFee(uint32,uint64,address,bytes)":"30bb3aac","getRoleAdmin(bytes32)":"248a9ca3","getSupportedOptionTypes(uint32)":"26e67a37","grantRole(bytes32,address)":"2f2ff15d","hasAcl(address)":"2de11376","hasRole(bytes32,address)":"91d14854","hashCallData(uint32,address,bytes,uint256)":"f010cb23","paused()":"5c975abb","priceFeed()":"741bef1a","quorum()":"1703a018","quorumChangeAdmin((uint32,address,bytes,uint256,bytes))":"f3b4ebd0","renounceRole(bytes32,address)":"36568abe","revokeRole(bytes32,address)":"d547741f","setDefaultMultiplierBps(uint16)":"c358de0a","setDstConfig((uint32,uint64,uint16,uint128)[])":"52d3b871","setPaused(bool)":"16c38b3c","setPriceFeed(address)":"724e78da","setQuorum(uint64)":"8585c945","setSigner(address,bool)":"31cb6105","setSupportedOptionTypes(uint32,uint8[])":"cd88b903","setWorkerFeeLib(address)":"c7b2370b","signerSize()":"fd62e750","signers(address)":"736c0d5b","supportsInterface(bytes4)":"01ffc9a7","usedHashes(bytes32)":"aef18bf7","verifySignatures(bytes32,bytes)":"c7a823e0","vid()":"cf34c768","withdrawFee(address,address,uint256)":"1095b6d7","withdrawFeeFromUlnV2(address,address,uint256)":"dafe0ccc","withdrawToken(address,address,uint256)":"01e33667","workerFeeLib()":"c416aa51"},"id":63}