{"abi":[{"type":"function","name":"decode","inputs":[{"name":"_options","type":"bytes","internalType":"bytes"}],"outputs":[{"name":"executorOptions","type":"bytes","internalType":"bytes"},{"name":"dvnOptions","type":"bytes","internalType":"bytes"}],"stateMutability":"pure"},{"type":"error","name":"LZ_ULN_InvalidLegacyType1Option","inputs":[]},{"type":"error","name":"LZ_ULN_InvalidLegacyType2Option","inputs":[]},{"type":"error","name":"LZ_ULN_InvalidWorkerId","inputs":[{"name":"workerId","type":"uint8","internalType":"uint8"}]},{"type":"error","name":"LZ_ULN_InvalidWorkerOptions","inputs":[{"name":"cursor","type":"uint256","internalType":"uint256"}]},{"type":"error","name":"LZ_ULN_UnsupportedOptionType","inputs":[{"name":"optionType","type":"uint16","internalType":"uint16"}]}],"bytecode":{"object":"0x608060405234801561001057600080fd5b50610afd806100206000396000f3fe608060405234801561001057600080fd5b506004361061002b5760003560e01c8063e5c5e9a314610030575b600080fd5b61004361003e366004610759565b61005a565b604051610051929190610839565b60405180910390f35b6060806100678484610072565b915091509250929050565b60608060028310156100b8576040517f6592671c000000000000000000000000000000000000000000000000000000008152600060048201526024015b60405180910390fd5b60006100c76002828688610867565b6100d091610891565b60f01c905060027ffffffffffffffffffffffffffffffffffffffffffffffffffffffffffffffffd82016102a1578060005b8683101561022d57600061011b60018501858a8c610867565b610124916108d9565b60f81c90506000819003610167576040517f6780cfaf000000000000000000000000000000000000000000000000000000008152600060048201526024016100af565b8160ff1660000361017a578091506101b7565b8160ff168160ff16146101b75736600061019686868c8e610867565b915091506101a789898685856102b8565b9099509750859450919250829150505b60018401936000906101ce90600301868b8d610867565b6101d791610891565b60f01c9050600081900361021a576040517f6592671c000000000000000000000000000000000000000000000000000000008152600481018690526024016100af565b8060020161ffff16850194505050610102565b828714610269576040517f6592671c000000000000000000000000000000000000000000000000000000008152600481018490526024016100af565b600287111561029a5736600061028185858b8d610867565b9150915061029288888585856102b8565b909850965050505b50506102af565b6102ac82878761042d565b93505b50509250929050565b6060807fffffffffffffffffffffffffffffffffffffffffffffffffffffffffffffffff60ff86160161035357865115610315578684846040516020016103019392919061091f565b60405160208183030381529060405261034c565b83838080601f0160208091040260200160405190810160405280939291908181526020018383808284376000920191909152505050505b9650610422565b7ffffffffffffffffffffffffffffffffffffffffffffffffffffffffffffffffe60ff8616016103eb578551156103ad578584846040516020016103999392919061091f565b6040516020818303038152906040526103e4565b83838080601f0160208091040260200160405190810160405280939291908181526020018383808284376000920191909152505050505b9550610422565b6040517f6780cfaf00000000000000000000000000000000000000000000000000000000815260ff861660048201526024016100af565b509495939450505050565b60607fffffffffffffffffffffffffffffffffffffffffffffffffffffffffffffffff61ffff8516016105535760228214610494576040517f0dc652a800000000000000000000000000000000000000000000000000000000815260040160405180910390fd5b60006104b56104a7602260028688610867565b6104b091610947565b6106b3565b6040517f0100000000000000000000000000000000000000000000000000000000000000602082018190527e11000000000000000000000000000000000000000000000000000000000000602183015260238201527fffffffffffffffffffffffffffffffff00000000000000000000000000000000608083901b1660248201529091506034016040516020818303038152906040529150506106ac565b7ffffffffffffffffffffffffffffffffffffffffffffffffffffffffffffffffe61ffff8516016106745760428211158061058e5750606282115b156105c5576040517fc0927c5600000000000000000000000000000000000000000000000000000000815260040160405180910390fd5b60006105d86104a7602260028688610867565b905060006105ed6104a7604260228789610867565b905060007fffffffffffffffffffffffffffffffffffffffffffffffffffffffffffffffbe8501610621866042818a610867565b61062a91610947565b60405160086020938403029190911c925061065b916001916011918391889183916031916002918b918b9101610984565b60405160208183030381529060405293505050506106ac565b6040517f4170513000000000000000000000000000000000000000000000000000000000815261ffff851660048201526024016100af565b9392505050565b60006fffffffffffffffffffffffffffffffff821115610755576040517f08c379a000000000000000000000000000000000000000000000000000000000815260206004820152602760248201527f53616665436173743a2076616c756520646f65736e27742066697420696e203160448201527f323820626974730000000000000000000000000000000000000000000000000060648201526084016100af565b5090565b6000806020838503121561076c57600080fd5b823567ffffffffffffffff8082111561078457600080fd5b818501915085601f83011261079857600080fd5b8135818111156107a757600080fd5b8660208285010111156107b957600080fd5b60209290920196919550909350505050565b60005b838110156107e65781810151838201526020016107ce565b50506000910152565b600081518084526108078160208601602086016107cb565b601f017fffffffffffffffffffffffffffffffffffffffffffffffffffffffffffffffe0169290920160200192915050565b60408152600061084c60408301856107ef565b828103602084015261085e81856107ef565b95945050505050565b6000808585111561087757600080fd5b8386111561088457600080fd5b5050820193919092039150565b7fffff00000000000000000000000000000000000000000000000000000000000081358181169160028510156108d15780818660020360031b1b83161692505b505092915050565b7fff0000000000000000000000000000000000000000000000000000000000000081358181169160018510156108d15760019490940360031b84901b1690921692915050565b600084516109318184602089016107cb565b8201838582376000930192835250909392505050565b8035602083101561097e577fffffffffffffffffffffffffffffffffffffffffffffffffffffffffffffffff602084900360031b1b165b92915050565b60007fff00000000000000000000000000000000000000000000000000000000000000808c60f81b1683527fffff0000000000000000000000000000000000000000000000000000000000008b60f01b166001840152808a60f81b1660038401527fffffffffffffffffffffffffffffffff000000000000000000000000000000008960801b166004840152808860f81b16601484015250610a4d601583018760f01b7fffff000000000000000000000000000000000000000000000000000000000000169052565b610a7e601783018660f81b7fff00000000000000000000000000000000000000000000000000000000000000169052565b610aaf601883018560801b7fffffffffffffffffffffffffffffffff00000000000000000000000000000000169052565b5060288101919091526048019897505050505050505056fea264697066735822122003cb5d2b30fe54fb64941be4f9fe7b3519148902978e089442d805298a1b3ae864736f6c63430008160033","linkReferences":{}},"methodIdentifiers":{"decode(bytes)":"e5c5e9a3"},"id":139}